{
	"contracts/register_music_copyright.sol": {
		"RegisterMusicCopyright": {
			"abi": [
				{
					"inputs": [],
					"name": "authorName",
					"outputs": [
						{
							"internalType": "string",
							"name": "",
							"type": "string"
						}
					],
					"stateMutability": "view",
					"type": "function"
				},
				{
					"inputs": [],
					"name": "copyrightID",
					"outputs": [
						{
							"internalType": "bytes32",
							"name": "",
							"type": "bytes32"
						}
					],
					"stateMutability": "view",
					"type": "function"
				},
				{
					"inputs": [],
					"name": "copyrightPrice",
					"outputs": [
						{
							"internalType": "uint256",
							"name": "",
							"type": "uint256"
						}
					],
					"stateMutability": "view",
					"type": "function"
				},
				{
					"inputs": [],
					"name": "creationDate",
					"outputs": [
						{
							"internalType": "uint256",
							"name": "",
							"type": "uint256"
						}
					],
					"stateMutability": "view",
					"type": "function"
				},
				{
					"inputs": [],
					"name": "musicTitle",
					"outputs": [
						{
							"internalType": "string",
							"name": "",
							"type": "string"
						}
					],
					"stateMutability": "view",
					"type": "function"
				},
				{
					"inputs": [
						{
							"internalType": "string",
							"name": "_authorName",
							"type": "string"
						}
					],
					"name": "setAuthorName",
					"outputs": [],
					"stateMutability": "nonpayable",
					"type": "function"
				},
				{
					"inputs": [
						{
							"internalType": "uint256",
							"name": "_copyrightPrice",
							"type": "uint256"
						}
					],
					"name": "setCopyrightPrice",
					"outputs": [],
					"stateMutability": "nonpayable",
					"type": "function"
				},
				{
					"inputs": [
						{
							"internalType": "uint256",
							"name": "_creationDate",
							"type": "uint256"
						}
					],
					"name": "setCreationDate",
					"outputs": [],
					"stateMutability": "nonpayable",
					"type": "function"
				},
				{
					"inputs": [
						{
							"internalType": "string",
							"name": "_musicTitle",
							"type": "string"
						}
					],
					"name": "setMusicTitle",
					"outputs": [],
					"stateMutability": "nonpayable",
					"type": "function"
				}
			],
			"devdoc": {
				"kind": "dev",
				"methods": {},
				"version": 1
			},
			"evm": {
				"assembly": "    /* \"contracts/register_music_copyright.sol\":58:1008  contract RegisterMusicCopyright {... */\n  mstore(0x40, 0x80)\n  callvalue\n  dup1\n  iszero\n  tag_1\n  jumpi\n  0x00\n  dup1\n  revert\ntag_1:\n  pop\n  dataSize(sub_0)\n  dup1\n  dataOffset(sub_0)\n  0x00\n  codecopy\n  0x00\n  return\nstop\n\nsub_0: assembly {\n        /* \"contracts/register_music_copyright.sol\":58:1008  contract RegisterMusicCopyright {... */\n      mstore(0x40, 0x80)\n      callvalue\n      dup1\n      iszero\n      tag_1\n      jumpi\n      0x00\n      dup1\n      revert\n    tag_1:\n      pop\n      jumpi(tag_2, lt(calldatasize, 0x04))\n      shr(0xe0, calldataload(0x00))\n      dup1\n      0x69b5fb58\n      gt\n      tag_12\n      jumpi\n      dup1\n      0x69b5fb58\n      eq\n      tag_7\n      jumpi\n      dup1\n      0x6a64aabb\n      eq\n      tag_8\n      jumpi\n      dup1\n      0x8131cf26\n      eq\n      tag_9\n      jumpi\n      dup1\n      0x93c39393\n      eq\n      tag_10\n      jumpi\n      dup1\n      0xebc38f9c\n      eq\n      tag_11\n      jumpi\n      jump(tag_2)\n    tag_12:\n      dup1\n      0x05b34410\n      eq\n      tag_3\n      jumpi\n      dup1\n      0x318a0e29\n      eq\n      tag_4\n      jumpi\n      dup1\n      0x3ccb3c8f\n      eq\n      tag_5\n      jumpi\n      dup1\n      0x4c9555d8\n      eq\n      tag_6\n      jumpi\n    tag_2:\n      0x00\n      dup1\n      revert\n        /* \"contracts/register_music_copyright.sol\":300:327  uint256 public creationDate */\n    tag_3:\n      tag_13\n      tag_14\n      jump\t// in\n    tag_13:\n      mload(0x40)\n      tag_15\n      swap2\n      swap1\n      tag_16\n      jump\t// in\n    tag_15:\n      mload(0x40)\n      dup1\n      swap2\n      sub\n      swap1\n      return\n        /* \"contracts/register_music_copyright.sol\":148:172  string public musicTitle */\n    tag_4:\n      tag_17\n      tag_18\n      jump\t// in\n    tag_17:\n      mload(0x40)\n      tag_19\n      swap2\n      swap1\n      tag_20\n      jump\t// in\n    tag_19:\n      mload(0x40)\n      dup1\n      swap2\n      sub\n      swap1\n      return\n        /* \"contracts/register_music_copyright.sol\":697:807  function setCopyrightPrice(uint256 _copyrightPrice) external {... */\n    tag_5:\n      tag_21\n      0x04\n      dup1\n      calldatasize\n      sub\n      dup2\n      add\n      swap1\n      tag_22\n      swap2\n      swap1\n      tag_23\n      jump\t// in\n    tag_22:\n      tag_24\n      jump\t// in\n    tag_21:\n      stop\n        /* \"contracts/register_music_copyright.sol\":333:362  uint256 public copyrightPrice */\n    tag_6:\n      tag_25\n      tag_26\n      jump\t// in\n    tag_25:\n      mload(0x40)\n      tag_27\n      swap2\n      swap1\n      tag_16\n      jump\t// in\n    tag_27:\n      mload(0x40)\n      dup1\n      swap2\n      sub\n      swap1\n      return\n        /* \"contracts/register_music_copyright.sol\":475:575  function setAuthorName(string memory _authorName) external {... */\n    tag_7:\n      tag_28\n      0x04\n      dup1\n      calldatasize\n      sub\n      dup2\n      add\n      swap1\n      tag_29\n      swap2\n      swap1\n      tag_30\n      jump\t// in\n    tag_29:\n      tag_31\n      jump\t// in\n    tag_28:\n      stop\n        /* \"contracts/register_music_copyright.sol\":178:202  string public authorName */\n    tag_8:\n      tag_32\n      tag_33\n      jump\t// in\n    tag_32:\n      mload(0x40)\n      tag_34\n      swap2\n      swap1\n      tag_20\n      jump\t// in\n    tag_34:\n      mload(0x40)\n      dup1\n      swap2\n      sub\n      swap1\n      return\n        /* \"contracts/register_music_copyright.sol\":369:469  function setMusicTitle(string memory _musicTitle) external {... */\n    tag_9:\n      tag_35\n      0x04\n      dup1\n      calldatasize\n      sub\n      dup2\n      add\n      swap1\n      tag_36\n      swap2\n      swap1\n      tag_30\n      jump\t// in\n    tag_36:\n      tag_37\n      jump\t// in\n    tag_35:\n      stop\n        /* \"contracts/register_music_copyright.sol\":585:687  function setCreationDate(uint256 _creationDate) external {... */\n    tag_10:\n      tag_38\n      0x04\n      dup1\n      calldatasize\n      sub\n      dup2\n      add\n      swap1\n      tag_39\n      swap2\n      swap1\n      tag_23\n      jump\t// in\n    tag_39:\n      tag_40\n      jump\t// in\n    tag_38:\n      stop\n        /* \"contracts/register_music_copyright.sol\":813:1006  function copyrightID() external view returns (bytes32) {... */\n    tag_11:\n      tag_41\n      tag_42\n      jump\t// in\n    tag_41:\n      mload(0x40)\n      tag_43\n      swap2\n      swap1\n      tag_44\n      jump\t// in\n    tag_43:\n      mload(0x40)\n      dup1\n      swap2\n      sub\n      swap1\n      return\n        /* \"contracts/register_music_copyright.sol\":300:327  uint256 public creationDate */\n    tag_14:\n      sload(0x02)\n      dup2\n      jump\t// out\n        /* \"contracts/register_music_copyright.sol\":148:172  string public musicTitle */\n    tag_18:\n      0x00\n      dup1\n      sload\n      tag_45\n      swap1\n      tag_46\n      jump\t// in\n    tag_45:\n      dup1\n      0x1f\n      add\n      0x20\n      dup1\n      swap2\n      div\n      mul\n      0x20\n      add\n      mload(0x40)\n      swap1\n      dup2\n      add\n      0x40\n      mstore\n      dup1\n      swap3\n      swap2\n      swap1\n      dup2\n      dup2\n      mstore\n      0x20\n      add\n      dup3\n      dup1\n      sload\n      tag_47\n      swap1\n      tag_46\n      jump\t// in\n    tag_47:\n      dup1\n      iszero\n      tag_48\n      jumpi\n      dup1\n      0x1f\n      lt\n      tag_49\n      jumpi\n      0x0100\n      dup1\n      dup4\n      sload\n      div\n      mul\n      dup4\n      mstore\n      swap2\n      0x20\n      add\n      swap2\n      jump(tag_48)\n    tag_49:\n      dup3\n      add\n      swap2\n      swap1\n      0x00\n      mstore\n      keccak256(0x00, 0x20)\n      swap1\n    tag_50:\n      dup2\n      sload\n      dup2\n      mstore\n      swap1\n      0x01\n      add\n      swap1\n      0x20\n      add\n      dup1\n      dup4\n      gt\n      tag_50\n      jumpi\n      dup3\n      swap1\n      sub\n      0x1f\n      and\n      dup3\n      add\n      swap2\n    tag_48:\n      pop\n      pop\n      pop\n      pop\n      pop\n      dup2\n      jump\t// out\n        /* \"contracts/register_music_copyright.sol\":697:807  function setCopyrightPrice(uint256 _copyrightPrice) external {... */\n    tag_24:\n        /* \"contracts/register_music_copyright.sol\":785:800  _copyrightPrice */\n      dup1\n        /* \"contracts/register_music_copyright.sol\":768:782  copyrightPrice */\n      0x03\n        /* \"contracts/register_music_copyright.sol\":768:800  copyrightPrice = _copyrightPrice */\n      dup2\n      swap1\n      sstore\n      pop\n        /* \"contracts/register_music_copyright.sol\":697:807  function setCopyrightPrice(uint256 _copyrightPrice) external {... */\n      pop\n      jump\t// out\n        /* \"contracts/register_music_copyright.sol\":333:362  uint256 public copyrightPrice */\n    tag_26:\n      sload(0x03)\n      dup2\n      jump\t// out\n        /* \"contracts/register_music_copyright.sol\":475:575  function setAuthorName(string memory _authorName) external {... */\n    tag_31:\n        /* \"contracts/register_music_copyright.sol\":557:568  _authorName */\n      dup1\n        /* \"contracts/register_music_copyright.sol\":544:554  authorName */\n      0x01\n        /* \"contracts/register_music_copyright.sol\":544:568  authorName = _authorName */\n      swap1\n      dup2\n      tag_53\n      swap2\n      swap1\n      tag_54\n      jump\t// in\n    tag_53:\n      pop\n        /* \"contracts/register_music_copyright.sol\":475:575  function setAuthorName(string memory _authorName) external {... */\n      pop\n      jump\t// out\n        /* \"contracts/register_music_copyright.sol\":178:202  string public authorName */\n    tag_33:\n      0x01\n      dup1\n      sload\n      tag_55\n      swap1\n      tag_46\n      jump\t// in\n    tag_55:\n      dup1\n      0x1f\n      add\n      0x20\n      dup1\n      swap2\n      div\n      mul\n      0x20\n      add\n      mload(0x40)\n      swap1\n      dup2\n      add\n      0x40\n      mstore\n      dup1\n      swap3\n      swap2\n      swap1\n      dup2\n      dup2\n      mstore\n      0x20\n      add\n      dup3\n      dup1\n      sload\n      tag_56\n      swap1\n      tag_46\n      jump\t// in\n    tag_56:\n      dup1\n      iszero\n      tag_57\n      jumpi\n      dup1\n      0x1f\n      lt\n      tag_58\n      jumpi\n      0x0100\n      dup1\n      dup4\n      sload\n      div\n      mul\n      dup4\n      mstore\n      swap2\n      0x20\n      add\n      swap2\n      jump(tag_57)\n    tag_58:\n      dup3\n      add\n      swap2\n      swap1\n      0x00\n      mstore\n      keccak256(0x00, 0x20)\n      swap1\n    tag_59:\n      dup2\n      sload\n      dup2\n      mstore\n      swap1\n      0x01\n      add\n      swap1\n      0x20\n      add\n      dup1\n      dup4\n      gt\n      tag_59\n      jumpi\n      dup3\n      swap1\n      sub\n      0x1f\n      and\n      dup3\n      add\n      swap2\n    tag_57:\n      pop\n      pop\n      pop\n      pop\n      pop\n      dup2\n      jump\t// out\n        /* \"contracts/register_music_copyright.sol\":369:469  function setMusicTitle(string memory _musicTitle) external {... */\n    tag_37:\n        /* \"contracts/register_music_copyright.sol\":451:462  _musicTitle */\n      dup1\n        /* \"contracts/register_music_copyright.sol\":438:448  musicTitle */\n      0x00\n        /* \"contracts/register_music_copyright.sol\":438:462  musicTitle = _musicTitle */\n      swap1\n      dup2\n      tag_61\n      swap2\n      swap1\n      tag_54\n      jump\t// in\n    tag_61:\n      pop\n        /* \"contracts/register_music_copyright.sol\":369:469  function setMusicTitle(string memory _musicTitle) external {... */\n      pop\n      jump\t// out\n        /* \"contracts/register_music_copyright.sol\":585:687  function setCreationDate(uint256 _creationDate) external {... */\n    tag_40:\n        /* \"contracts/register_music_copyright.sol\":667:680  _creationDate */\n      dup1\n        /* \"contracts/register_music_copyright.sol\":652:664  creationDate */\n      0x02\n        /* \"contracts/register_music_copyright.sol\":652:680  creationDate = _creationDate */\n      dup2\n      swap1\n      sstore\n      pop\n        /* \"contracts/register_music_copyright.sol\":585:687  function setCreationDate(uint256 _creationDate) external {... */\n      pop\n      jump\t// out\n        /* \"contracts/register_music_copyright.sol\":813:1006  function copyrightID() external view returns (bytes32) {... */\n    tag_42:\n        /* \"contracts/register_music_copyright.sol\":859:866  bytes32 */\n      0x00\n        /* \"contracts/register_music_copyright.sol\":878:892  bytes32 hashID */\n      dup1\n        /* \"contracts/register_music_copyright.sol\":922:932  musicTitle */\n      0x00\n        /* \"contracts/register_music_copyright.sol\":934:944  authorName */\n      0x01\n        /* \"contracts/register_music_copyright.sol\":946:958  creationDate */\n      sload(0x02)\n        /* \"contracts/register_music_copyright.sol\":960:974  copyrightPrice */\n      sload(0x03)\n        /* \"contracts/register_music_copyright.sol\":905:975  abi.encodePacked(musicTitle, authorName, creationDate, copyrightPrice) */\n      add(0x20, mload(0x40))\n      tag_64\n      swap5\n      swap4\n      swap3\n      swap2\n      swap1\n      tag_65\n      jump\t// in\n    tag_64:\n      mload(0x40)\n      0x20\n      dup2\n      dup4\n      sub\n      sub\n      dup2\n      mstore\n      swap1\n      0x40\n      mstore\n        /* \"contracts/register_music_copyright.sol\":895:976  keccak256(abi.encodePacked(musicTitle, authorName, creationDate, copyrightPrice)) */\n      dup1\n      mload\n      swap1\n      0x20\n      add\n      keccak256\n        /* \"contracts/register_music_copyright.sol\":878:976  bytes32 hashID = keccak256(abi.encodePacked(musicTitle, authorName, creationDate, copyrightPrice)) */\n      swap1\n      pop\n        /* \"contracts/register_music_copyright.sol\":993:999  hashID */\n      dup1\n        /* \"contracts/register_music_copyright.sol\":986:999  return hashID */\n      swap2\n      pop\n      pop\n        /* \"contracts/register_music_copyright.sol\":813:1006  function copyrightID() external view returns (bytes32) {... */\n      swap1\n      jump\t// out\n        /* \"#utility.yul\":7:84   */\n    tag_66:\n        /* \"#utility.yul\":44:51   */\n      0x00\n        /* \"#utility.yul\":73:78   */\n      dup2\n        /* \"#utility.yul\":62:78   */\n      swap1\n      pop\n        /* \"#utility.yul\":7:84   */\n      swap2\n      swap1\n      pop\n      jump\t// out\n        /* \"#utility.yul\":90:208   */\n    tag_67:\n        /* \"#utility.yul\":177:201   */\n      tag_112\n        /* \"#utility.yul\":195:200   */\n      dup2\n        /* \"#utility.yul\":177:201   */\n      tag_66\n      jump\t// in\n    tag_112:\n        /* \"#utility.yul\":172:175   */\n      dup3\n        /* \"#utility.yul\":165:202   */\n      mstore\n        /* \"#utility.yul\":90:208   */\n      pop\n      pop\n      jump\t// out\n        /* \"#utility.yul\":214:436   */\n    tag_16:\n        /* \"#utility.yul\":307:311   */\n      0x00\n        /* \"#utility.yul\":345:347   */\n      0x20\n        /* \"#utility.yul\":334:343   */\n      dup3\n        /* \"#utility.yul\":330:348   */\n      add\n        /* \"#utility.yul\":322:348   */\n      swap1\n      pop\n        /* \"#utility.yul\":358:429   */\n      tag_114\n        /* \"#utility.yul\":426:427   */\n      0x00\n        /* \"#utility.yul\":415:424   */\n      dup4\n        /* \"#utility.yul\":411:428   */\n      add\n        /* \"#utility.yul\":402:408   */\n      dup5\n        /* \"#utility.yul\":358:429   */\n      tag_67\n      jump\t// in\n    tag_114:\n        /* \"#utility.yul\":214:436   */\n      swap3\n      swap2\n      pop\n      pop\n      jump\t// out\n        /* \"#utility.yul\":442:541   */\n    tag_68:\n        /* \"#utility.yul\":494:500   */\n      0x00\n        /* \"#utility.yul\":528:533   */\n      dup2\n        /* \"#utility.yul\":522:534   */\n      mload\n        /* \"#utility.yul\":512:534   */\n      swap1\n      pop\n        /* \"#utility.yul\":442:541   */\n      swap2\n      swap1\n      pop\n      jump\t// out\n        /* \"#utility.yul\":547:716   */\n    tag_69:\n        /* \"#utility.yul\":631:642   */\n      0x00\n        /* \"#utility.yul\":665:671   */\n      dup3\n        /* \"#utility.yul\":660:663   */\n      dup3\n        /* \"#utility.yul\":653:672   */\n      mstore\n        /* \"#utility.yul\":705:709   */\n      0x20\n        /* \"#utility.yul\":700:703   */\n      dup3\n        /* \"#utility.yul\":696:710   */\n      add\n        /* \"#utility.yul\":681:710   */\n      swap1\n      pop\n        /* \"#utility.yul\":547:716   */\n      swap3\n      swap2\n      pop\n      pop\n      jump\t// out\n        /* \"#utility.yul\":722:968   */\n    tag_70:\n        /* \"#utility.yul\":803:804   */\n      0x00\n        /* \"#utility.yul\":813:926   */\n    tag_118:\n        /* \"#utility.yul\":827:833   */\n      dup4\n        /* \"#utility.yul\":824:825   */\n      dup2\n        /* \"#utility.yul\":821:834   */\n      lt\n        /* \"#utility.yul\":813:926   */\n      iszero\n      tag_120\n      jumpi\n        /* \"#utility.yul\":912:913   */\n      dup1\n        /* \"#utility.yul\":907:910   */\n      dup3\n        /* \"#utility.yul\":903:914   */\n      add\n        /* \"#utility.yul\":897:915   */\n      mload\n        /* \"#utility.yul\":893:894   */\n      dup2\n        /* \"#utility.yul\":888:891   */\n      dup5\n        /* \"#utility.yul\":884:895   */\n      add\n        /* \"#utility.yul\":877:916   */\n      mstore\n        /* \"#utility.yul\":849:851   */\n      0x20\n        /* \"#utility.yul\":846:847   */\n      dup2\n        /* \"#utility.yul\":842:852   */\n      add\n        /* \"#utility.yul\":837:852   */\n      swap1\n      pop\n        /* \"#utility.yul\":813:926   */\n      jump(tag_118)\n    tag_120:\n        /* \"#utility.yul\":960:961   */\n      0x00\n        /* \"#utility.yul\":951:957   */\n      dup5\n        /* \"#utility.yul\":946:949   */\n      dup5\n        /* \"#utility.yul\":942:958   */\n      add\n        /* \"#utility.yul\":935:962   */\n      mstore\n        /* \"#utility.yul\":784:968   */\n      pop\n        /* \"#utility.yul\":722:968   */\n      pop\n      pop\n      pop\n      jump\t// out\n        /* \"#utility.yul\":974:1076   */\n    tag_71:\n        /* \"#utility.yul\":1015:1021   */\n      0x00\n        /* \"#utility.yul\":1066:1068   */\n      0x1f\n        /* \"#utility.yul\":1062:1069   */\n      not\n        /* \"#utility.yul\":1057:1059   */\n      0x1f\n        /* \"#utility.yul\":1050:1055   */\n      dup4\n        /* \"#utility.yul\":1046:1060   */\n      add\n        /* \"#utility.yul\":1042:1070   */\n      and\n        /* \"#utility.yul\":1032:1070   */\n      swap1\n      pop\n        /* \"#utility.yul\":974:1076   */\n      swap2\n      swap1\n      pop\n      jump\t// out\n        /* \"#utility.yul\":1082:1459   */\n    tag_72:\n        /* \"#utility.yul\":1170:1173   */\n      0x00\n        /* \"#utility.yul\":1198:1237   */\n      tag_123\n        /* \"#utility.yul\":1231:1236   */\n      dup3\n        /* \"#utility.yul\":1198:1237   */\n      tag_68\n      jump\t// in\n    tag_123:\n        /* \"#utility.yul\":1253:1324   */\n      tag_124\n        /* \"#utility.yul\":1317:1323   */\n      dup2\n        /* \"#utility.yul\":1312:1315   */\n      dup6\n        /* \"#utility.yul\":1253:1324   */\n      tag_69\n      jump\t// in\n    tag_124:\n        /* \"#utility.yul\":1246:1324   */\n      swap4\n      pop\n        /* \"#utility.yul\":1333:1398   */\n      tag_125\n        /* \"#utility.yul\":1391:1397   */\n      dup2\n        /* \"#utility.yul\":1386:1389   */\n      dup6\n        /* \"#utility.yul\":1379:1383   */\n      0x20\n        /* \"#utility.yul\":1372:1377   */\n      dup7\n        /* \"#utility.yul\":1368:1384   */\n      add\n        /* \"#utility.yul\":1333:1398   */\n      tag_70\n      jump\t// in\n    tag_125:\n        /* \"#utility.yul\":1423:1452   */\n      tag_126\n        /* \"#utility.yul\":1445:1451   */\n      dup2\n        /* \"#utility.yul\":1423:1452   */\n      tag_71\n      jump\t// in\n    tag_126:\n        /* \"#utility.yul\":1418:1421   */\n      dup5\n        /* \"#utility.yul\":1414:1453   */\n      add\n        /* \"#utility.yul\":1407:1453   */\n      swap2\n      pop\n        /* \"#utility.yul\":1174:1459   */\n      pop\n        /* \"#utility.yul\":1082:1459   */\n      swap3\n      swap2\n      pop\n      pop\n      jump\t// out\n        /* \"#utility.yul\":1465:1778   */\n    tag_20:\n        /* \"#utility.yul\":1578:1582   */\n      0x00\n        /* \"#utility.yul\":1616:1618   */\n      0x20\n        /* \"#utility.yul\":1605:1614   */\n      dup3\n        /* \"#utility.yul\":1601:1619   */\n      add\n        /* \"#utility.yul\":1593:1619   */\n      swap1\n      pop\n        /* \"#utility.yul\":1665:1674   */\n      dup2\n        /* \"#utility.yul\":1659:1663   */\n      dup2\n        /* \"#utility.yul\":1655:1675   */\n      sub\n        /* \"#utility.yul\":1651:1652   */\n      0x00\n        /* \"#utility.yul\":1640:1649   */\n      dup4\n        /* \"#utility.yul\":1636:1653   */\n      add\n        /* \"#utility.yul\":1629:1676   */\n      mstore\n        /* \"#utility.yul\":1693:1771   */\n      tag_128\n        /* \"#utility.yul\":1766:1770   */\n      dup2\n        /* \"#utility.yul\":1757:1763   */\n      dup5\n        /* \"#utility.yul\":1693:1771   */\n      tag_72\n      jump\t// in\n    tag_128:\n        /* \"#utility.yul\":1685:1771   */\n      swap1\n      pop\n        /* \"#utility.yul\":1465:1778   */\n      swap3\n      swap2\n      pop\n      pop\n      jump\t// out\n        /* \"#utility.yul\":1784:1859   */\n    tag_73:\n        /* \"#utility.yul\":1817:1823   */\n      0x00\n        /* \"#utility.yul\":1850:1852   */\n      0x40\n        /* \"#utility.yul\":1844:1853   */\n      mload\n        /* \"#utility.yul\":1834:1853   */\n      swap1\n      pop\n        /* \"#utility.yul\":1784:1859   */\n      swap1\n      jump\t// out\n        /* \"#utility.yul\":1865:1982   */\n    tag_74:\n        /* \"#utility.yul\":1974:1975   */\n      0x00\n        /* \"#utility.yul\":1971:1972   */\n      dup1\n        /* \"#utility.yul\":1964:1976   */\n      revert\n        /* \"#utility.yul\":1988:2105   */\n    tag_75:\n        /* \"#utility.yul\":2097:2098   */\n      0x00\n        /* \"#utility.yul\":2094:2095   */\n      dup1\n        /* \"#utility.yul\":2087:2099   */\n      revert\n        /* \"#utility.yul\":2111:2233   */\n    tag_76:\n        /* \"#utility.yul\":2184:2208   */\n      tag_133\n        /* \"#utility.yul\":2202:2207   */\n      dup2\n        /* \"#utility.yul\":2184:2208   */\n      tag_66\n      jump\t// in\n    tag_133:\n        /* \"#utility.yul\":2177:2182   */\n      dup2\n        /* \"#utility.yul\":2174:2209   */\n      eq\n        /* \"#utility.yul\":2164:2227   */\n      tag_134\n      jumpi\n        /* \"#utility.yul\":2223:2224   */\n      0x00\n        /* \"#utility.yul\":2220:2221   */\n      dup1\n        /* \"#utility.yul\":2213:2225   */\n      revert\n        /* \"#utility.yul\":2164:2227   */\n    tag_134:\n        /* \"#utility.yul\":2111:2233   */\n      pop\n      jump\t// out\n        /* \"#utility.yul\":2239:2378   */\n    tag_77:\n        /* \"#utility.yul\":2285:2290   */\n      0x00\n        /* \"#utility.yul\":2323:2329   */\n      dup2\n        /* \"#utility.yul\":2310:2330   */\n      calldataload\n        /* \"#utility.yul\":2301:2330   */\n      swap1\n      pop\n        /* \"#utility.yul\":2339:2372   */\n      tag_136\n        /* \"#utility.yul\":2366:2371   */\n      dup2\n        /* \"#utility.yul\":2339:2372   */\n      tag_76\n      jump\t// in\n    tag_136:\n        /* \"#utility.yul\":2239:2378   */\n      swap3\n      swap2\n      pop\n      pop\n      jump\t// out\n        /* \"#utility.yul\":2384:2713   */\n    tag_23:\n        /* \"#utility.yul\":2443:2449   */\n      0x00\n        /* \"#utility.yul\":2492:2494   */\n      0x20\n        /* \"#utility.yul\":2480:2489   */\n      dup3\n        /* \"#utility.yul\":2471:2478   */\n      dup5\n        /* \"#utility.yul\":2467:2490   */\n      sub\n        /* \"#utility.yul\":2463:2495   */\n      slt\n        /* \"#utility.yul\":2460:2579   */\n      iszero\n      tag_138\n      jumpi\n        /* \"#utility.yul\":2498:2577   */\n      tag_139\n      tag_74\n      jump\t// in\n    tag_139:\n        /* \"#utility.yul\":2460:2579   */\n    tag_138:\n        /* \"#utility.yul\":2618:2619   */\n      0x00\n        /* \"#utility.yul\":2643:2696   */\n      tag_140\n        /* \"#utility.yul\":2688:2695   */\n      dup5\n        /* \"#utility.yul\":2679:2685   */\n      dup3\n        /* \"#utility.yul\":2668:2677   */\n      dup6\n        /* \"#utility.yul\":2664:2686   */\n      add\n        /* \"#utility.yul\":2643:2696   */\n      tag_77\n      jump\t// in\n    tag_140:\n        /* \"#utility.yul\":2633:2696   */\n      swap2\n      pop\n        /* \"#utility.yul\":2589:2706   */\n      pop\n        /* \"#utility.yul\":2384:2713   */\n      swap3\n      swap2\n      pop\n      pop\n      jump\t// out\n        /* \"#utility.yul\":2719:2836   */\n    tag_78:\n        /* \"#utility.yul\":2828:2829   */\n      0x00\n        /* \"#utility.yul\":2825:2826   */\n      dup1\n        /* \"#utility.yul\":2818:2830   */\n      revert\n        /* \"#utility.yul\":2842:2959   */\n    tag_79:\n        /* \"#utility.yul\":2951:2952   */\n      0x00\n        /* \"#utility.yul\":2948:2949   */\n      dup1\n        /* \"#utility.yul\":2941:2953   */\n      revert\n        /* \"#utility.yul\":2965:3145   */\n    tag_80:\n        /* \"#utility.yul\":3013:3090   */\n      0x4e487b7100000000000000000000000000000000000000000000000000000000\n        /* \"#utility.yul\":3010:3011   */\n      0x00\n        /* \"#utility.yul\":3003:3091   */\n      mstore\n        /* \"#utility.yul\":3110:3114   */\n      0x41\n        /* \"#utility.yul\":3107:3108   */\n      0x04\n        /* \"#utility.yul\":3100:3115   */\n      mstore\n        /* \"#utility.yul\":3134:3138   */\n      0x24\n        /* \"#utility.yul\":3131:3132   */\n      0x00\n        /* \"#utility.yul\":3124:3139   */\n      revert\n        /* \"#utility.yul\":3151:3432   */\n    tag_81:\n        /* \"#utility.yul\":3234:3261   */\n      tag_145\n        /* \"#utility.yul\":3256:3260   */\n      dup3\n        /* \"#utility.yul\":3234:3261   */\n      tag_71\n      jump\t// in\n    tag_145:\n        /* \"#utility.yul\":3226:3232   */\n      dup2\n        /* \"#utility.yul\":3222:3262   */\n      add\n        /* \"#utility.yul\":3364:3370   */\n      dup2\n        /* \"#utility.yul\":3352:3362   */\n      dup2\n        /* \"#utility.yul\":3349:3371   */\n      lt\n        /* \"#utility.yul\":3328:3346   */\n      0xffffffffffffffff\n        /* \"#utility.yul\":3316:3326   */\n      dup3\n        /* \"#utility.yul\":3313:3347   */\n      gt\n        /* \"#utility.yul\":3310:3372   */\n      or\n        /* \"#utility.yul\":3307:3395   */\n      iszero\n      tag_146\n      jumpi\n        /* \"#utility.yul\":3375:3393   */\n      tag_147\n      tag_80\n      jump\t// in\n    tag_147:\n        /* \"#utility.yul\":3307:3395   */\n    tag_146:\n        /* \"#utility.yul\":3415:3425   */\n      dup1\n        /* \"#utility.yul\":3411:3413   */\n      0x40\n        /* \"#utility.yul\":3404:3426   */\n      mstore\n        /* \"#utility.yul\":3194:3432   */\n      pop\n        /* \"#utility.yul\":3151:3432   */\n      pop\n      pop\n      jump\t// out\n        /* \"#utility.yul\":3438:3567   */\n    tag_82:\n        /* \"#utility.yul\":3472:3478   */\n      0x00\n        /* \"#utility.yul\":3499:3519   */\n      tag_149\n      tag_73\n      jump\t// in\n    tag_149:\n        /* \"#utility.yul\":3489:3519   */\n      swap1\n      pop\n        /* \"#utility.yul\":3528:3561   */\n      tag_150\n        /* \"#utility.yul\":3556:3560   */\n      dup3\n        /* \"#utility.yul\":3548:3554   */\n      dup3\n        /* \"#utility.yul\":3528:3561   */\n      tag_81\n      jump\t// in\n    tag_150:\n        /* \"#utility.yul\":3438:3567   */\n      swap2\n      swap1\n      pop\n      jump\t// out\n        /* \"#utility.yul\":3573:3881   */\n    tag_83:\n        /* \"#utility.yul\":3635:3639   */\n      0x00\n        /* \"#utility.yul\":3725:3743   */\n      0xffffffffffffffff\n        /* \"#utility.yul\":3717:3723   */\n      dup3\n        /* \"#utility.yul\":3714:3744   */\n      gt\n        /* \"#utility.yul\":3711:3767   */\n      iszero\n      tag_152\n      jumpi\n        /* \"#utility.yul\":3747:3765   */\n      tag_153\n      tag_80\n      jump\t// in\n    tag_153:\n        /* \"#utility.yul\":3711:3767   */\n    tag_152:\n        /* \"#utility.yul\":3785:3814   */\n      tag_154\n        /* \"#utility.yul\":3807:3813   */\n      dup3\n        /* \"#utility.yul\":3785:3814   */\n      tag_71\n      jump\t// in\n    tag_154:\n        /* \"#utility.yul\":3777:3814   */\n      swap1\n      pop\n        /* \"#utility.yul\":3869:3873   */\n      0x20\n        /* \"#utility.yul\":3863:3867   */\n      dup2\n        /* \"#utility.yul\":3859:3874   */\n      add\n        /* \"#utility.yul\":3851:3874   */\n      swap1\n      pop\n        /* \"#utility.yul\":3573:3881   */\n      swap2\n      swap1\n      pop\n      jump\t// out\n        /* \"#utility.yul\":3887:4033   */\n    tag_84:\n        /* \"#utility.yul\":3984:3990   */\n      dup3\n        /* \"#utility.yul\":3979:3982   */\n      dup2\n        /* \"#utility.yul\":3974:3977   */\n      dup4\n        /* \"#utility.yul\":3961:3991   */\n      calldatacopy\n        /* \"#utility.yul\":4025:4026   */\n      0x00\n        /* \"#utility.yul\":4016:4022   */\n      dup4\n        /* \"#utility.yul\":4011:4014   */\n      dup4\n        /* \"#utility.yul\":4007:4023   */\n      add\n        /* \"#utility.yul\":4000:4027   */\n      mstore\n        /* \"#utility.yul\":3887:4033   */\n      pop\n      pop\n      pop\n      jump\t// out\n        /* \"#utility.yul\":4039:4464   */\n    tag_85:\n        /* \"#utility.yul\":4117:4122   */\n      0x00\n        /* \"#utility.yul\":4142:4208   */\n      tag_157\n        /* \"#utility.yul\":4158:4207   */\n      tag_158\n        /* \"#utility.yul\":4200:4206   */\n      dup5\n        /* \"#utility.yul\":4158:4207   */\n      tag_83\n      jump\t// in\n    tag_158:\n        /* \"#utility.yul\":4142:4208   */\n      tag_82\n      jump\t// in\n    tag_157:\n        /* \"#utility.yul\":4133:4208   */\n      swap1\n      pop\n        /* \"#utility.yul\":4231:4237   */\n      dup3\n        /* \"#utility.yul\":4224:4229   */\n      dup2\n        /* \"#utility.yul\":4217:4238   */\n      mstore\n        /* \"#utility.yul\":4269:4273   */\n      0x20\n        /* \"#utility.yul\":4262:4267   */\n      dup2\n        /* \"#utility.yul\":4258:4274   */\n      add\n        /* \"#utility.yul\":4307:4310   */\n      dup5\n        /* \"#utility.yul\":4298:4304   */\n      dup5\n        /* \"#utility.yul\":4293:4296   */\n      dup5\n        /* \"#utility.yul\":4289:4305   */\n      add\n        /* \"#utility.yul\":4286:4311   */\n      gt\n        /* \"#utility.yul\":4283:4395   */\n      iszero\n      tag_159\n      jumpi\n        /* \"#utility.yul\":4314:4393   */\n      tag_160\n      tag_79\n      jump\t// in\n    tag_160:\n        /* \"#utility.yul\":4283:4395   */\n    tag_159:\n        /* \"#utility.yul\":4404:4458   */\n      tag_161\n        /* \"#utility.yul\":4451:4457   */\n      dup5\n        /* \"#utility.yul\":4446:4449   */\n      dup3\n        /* \"#utility.yul\":4441:4444   */\n      dup6\n        /* \"#utility.yul\":4404:4458   */\n      tag_84\n      jump\t// in\n    tag_161:\n        /* \"#utility.yul\":4123:4464   */\n      pop\n        /* \"#utility.yul\":4039:4464   */\n      swap4\n      swap3\n      pop\n      pop\n      pop\n      jump\t// out\n        /* \"#utility.yul\":4484:4824   */\n    tag_86:\n        /* \"#utility.yul\":4540:4545   */\n      0x00\n        /* \"#utility.yul\":4589:4592   */\n      dup3\n        /* \"#utility.yul\":4582:4586   */\n      0x1f\n        /* \"#utility.yul\":4574:4580   */\n      dup4\n        /* \"#utility.yul\":4570:4587   */\n      add\n        /* \"#utility.yul\":4566:4593   */\n      slt\n        /* \"#utility.yul\":4556:4678   */\n      tag_163\n      jumpi\n        /* \"#utility.yul\":4597:4676   */\n      tag_164\n      tag_78\n      jump\t// in\n    tag_164:\n        /* \"#utility.yul\":4556:4678   */\n    tag_163:\n        /* \"#utility.yul\":4714:4720   */\n      dup2\n        /* \"#utility.yul\":4701:4721   */\n      calldataload\n        /* \"#utility.yul\":4739:4818   */\n      tag_165\n        /* \"#utility.yul\":4814:4817   */\n      dup5\n        /* \"#utility.yul\":4806:4812   */\n      dup3\n        /* \"#utility.yul\":4799:4803   */\n      0x20\n        /* \"#utility.yul\":4791:4797   */\n      dup7\n        /* \"#utility.yul\":4787:4804   */\n      add\n        /* \"#utility.yul\":4739:4818   */\n      tag_85\n      jump\t// in\n    tag_165:\n        /* \"#utility.yul\":4730:4818   */\n      swap2\n      pop\n        /* \"#utility.yul\":4546:4824   */\n      pop\n        /* \"#utility.yul\":4484:4824   */\n      swap3\n      swap2\n      pop\n      pop\n      jump\t// out\n        /* \"#utility.yul\":4830:5339   */\n    tag_30:\n        /* \"#utility.yul\":4899:4905   */\n      0x00\n        /* \"#utility.yul\":4948:4950   */\n      0x20\n        /* \"#utility.yul\":4936:4945   */\n      dup3\n        /* \"#utility.yul\":4927:4934   */\n      dup5\n        /* \"#utility.yul\":4923:4946   */\n      sub\n        /* \"#utility.yul\":4919:4951   */\n      slt\n        /* \"#utility.yul\":4916:5035   */\n      iszero\n      tag_167\n      jumpi\n        /* \"#utility.yul\":4954:5033   */\n      tag_168\n      tag_74\n      jump\t// in\n    tag_168:\n        /* \"#utility.yul\":4916:5035   */\n    tag_167:\n        /* \"#utility.yul\":5102:5103   */\n      0x00\n        /* \"#utility.yul\":5091:5100   */\n      dup3\n        /* \"#utility.yul\":5087:5104   */\n      add\n        /* \"#utility.yul\":5074:5105   */\n      calldataload\n        /* \"#utility.yul\":5132:5150   */\n      0xffffffffffffffff\n        /* \"#utility.yul\":5124:5130   */\n      dup2\n        /* \"#utility.yul\":5121:5151   */\n      gt\n        /* \"#utility.yul\":5118:5235   */\n      iszero\n      tag_169\n      jumpi\n        /* \"#utility.yul\":5154:5233   */\n      tag_170\n      tag_75\n      jump\t// in\n    tag_170:\n        /* \"#utility.yul\":5118:5235   */\n    tag_169:\n        /* \"#utility.yul\":5259:5322   */\n      tag_171\n        /* \"#utility.yul\":5314:5321   */\n      dup5\n        /* \"#utility.yul\":5305:5311   */\n      dup3\n        /* \"#utility.yul\":5294:5303   */\n      dup6\n        /* \"#utility.yul\":5290:5312   */\n      add\n        /* \"#utility.yul\":5259:5322   */\n      tag_86\n      jump\t// in\n    tag_171:\n        /* \"#utility.yul\":5249:5322   */\n      swap2\n      pop\n        /* \"#utility.yul\":5045:5332   */\n      pop\n        /* \"#utility.yul\":4830:5339   */\n      swap3\n      swap2\n      pop\n      pop\n      jump\t// out\n        /* \"#utility.yul\":5345:5422   */\n    tag_87:\n        /* \"#utility.yul\":5382:5389   */\n      0x00\n        /* \"#utility.yul\":5411:5416   */\n      dup2\n        /* \"#utility.yul\":5400:5416   */\n      swap1\n      pop\n        /* \"#utility.yul\":5345:5422   */\n      swap2\n      swap1\n      pop\n      jump\t// out\n        /* \"#utility.yul\":5428:5546   */\n    tag_88:\n        /* \"#utility.yul\":5515:5539   */\n      tag_174\n        /* \"#utility.yul\":5533:5538   */\n      dup2\n        /* \"#utility.yul\":5515:5539   */\n      tag_87\n      jump\t// in\n    tag_174:\n        /* \"#utility.yul\":5510:5513   */\n      dup3\n        /* \"#utility.yul\":5503:5540   */\n      mstore\n        /* \"#utility.yul\":5428:5546   */\n      pop\n      pop\n      jump\t// out\n        /* \"#utility.yul\":5552:5774   */\n    tag_44:\n        /* \"#utility.yul\":5645:5649   */\n      0x00\n        /* \"#utility.yul\":5683:5685   */\n      0x20\n        /* \"#utility.yul\":5672:5681   */\n      dup3\n        /* \"#utility.yul\":5668:5686   */\n      add\n        /* \"#utility.yul\":5660:5686   */\n      swap1\n      pop\n        /* \"#utility.yul\":5696:5767   */\n      tag_176\n        /* \"#utility.yul\":5764:5765   */\n      0x00\n        /* \"#utility.yul\":5753:5762   */\n      dup4\n        /* \"#utility.yul\":5749:5766   */\n      add\n        /* \"#utility.yul\":5740:5746   */\n      dup5\n        /* \"#utility.yul\":5696:5767   */\n      tag_88\n      jump\t// in\n    tag_176:\n        /* \"#utility.yul\":5552:5774   */\n      swap3\n      swap2\n      pop\n      pop\n      jump\t// out\n        /* \"#utility.yul\":5780:5960   */\n    tag_89:\n        /* \"#utility.yul\":5828:5905   */\n      0x4e487b7100000000000000000000000000000000000000000000000000000000\n        /* \"#utility.yul\":5825:5826   */\n      0x00\n        /* \"#utility.yul\":5818:5906   */\n      mstore\n        /* \"#utility.yul\":5925:5929   */\n      0x22\n        /* \"#utility.yul\":5922:5923   */\n      0x04\n        /* \"#utility.yul\":5915:5930   */\n      mstore\n        /* \"#utility.yul\":5949:5953   */\n      0x24\n        /* \"#utility.yul\":5946:5947   */\n      0x00\n        /* \"#utility.yul\":5939:5954   */\n      revert\n        /* \"#utility.yul\":5966:6286   */\n    tag_46:\n        /* \"#utility.yul\":6010:6016   */\n      0x00\n        /* \"#utility.yul\":6047:6048   */\n      0x02\n        /* \"#utility.yul\":6041:6045   */\n      dup3\n        /* \"#utility.yul\":6037:6049   */\n      div\n        /* \"#utility.yul\":6027:6049   */\n      swap1\n      pop\n        /* \"#utility.yul\":6094:6095   */\n      0x01\n        /* \"#utility.yul\":6088:6092   */\n      dup3\n        /* \"#utility.yul\":6084:6096   */\n      and\n        /* \"#utility.yul\":6115:6133   */\n      dup1\n        /* \"#utility.yul\":6105:6186   */\n      tag_179\n      jumpi\n        /* \"#utility.yul\":6171:6175   */\n      0x7f\n        /* \"#utility.yul\":6163:6169   */\n      dup3\n        /* \"#utility.yul\":6159:6176   */\n      and\n        /* \"#utility.yul\":6149:6176   */\n      swap2\n      pop\n        /* \"#utility.yul\":6105:6186   */\n    tag_179:\n        /* \"#utility.yul\":6233:6235   */\n      0x20\n        /* \"#utility.yul\":6225:6231   */\n      dup3\n        /* \"#utility.yul\":6222:6236   */\n      lt\n        /* \"#utility.yul\":6202:6220   */\n      dup2\n        /* \"#utility.yul\":6199:6237   */\n      sub\n        /* \"#utility.yul\":6196:6280   */\n      tag_180\n      jumpi\n        /* \"#utility.yul\":6252:6270   */\n      tag_181\n      tag_89\n      jump\t// in\n    tag_181:\n        /* \"#utility.yul\":6196:6280   */\n    tag_180:\n        /* \"#utility.yul\":6017:6286   */\n      pop\n        /* \"#utility.yul\":5966:6286   */\n      swap2\n      swap1\n      pop\n      jump\t// out\n        /* \"#utility.yul\":6292:6433   */\n    tag_90:\n        /* \"#utility.yul\":6341:6345   */\n      0x00\n        /* \"#utility.yul\":6364:6367   */\n      dup2\n        /* \"#utility.yul\":6356:6367   */\n      swap1\n      pop\n        /* \"#utility.yul\":6387:6390   */\n      dup2\n        /* \"#utility.yul\":6384:6385   */\n      0x00\n        /* \"#utility.yul\":6377:6391   */\n      mstore\n        /* \"#utility.yul\":6421:6425   */\n      0x20\n        /* \"#utility.yul\":6418:6419   */\n      0x00\n        /* \"#utility.yul\":6408:6426   */\n      keccak256\n        /* \"#utility.yul\":6400:6426   */\n      swap1\n      pop\n        /* \"#utility.yul\":6292:6433   */\n      swap2\n      swap1\n      pop\n      jump\t// out\n        /* \"#utility.yul\":6439:6532   */\n    tag_91:\n        /* \"#utility.yul\":6476:6482   */\n      0x00\n        /* \"#utility.yul\":6523:6525   */\n      0x20\n        /* \"#utility.yul\":6518:6520   */\n      0x1f\n        /* \"#utility.yul\":6511:6516   */\n      dup4\n        /* \"#utility.yul\":6507:6521   */\n      add\n        /* \"#utility.yul\":6503:6526   */\n      div\n        /* \"#utility.yul\":6493:6526   */\n      swap1\n      pop\n        /* \"#utility.yul\":6439:6532   */\n      swap2\n      swap1\n      pop\n      jump\t// out\n        /* \"#utility.yul\":6538:6645   */\n    tag_92:\n        /* \"#utility.yul\":6582:6590   */\n      0x00\n        /* \"#utility.yul\":6632:6637   */\n      dup3\n        /* \"#utility.yul\":6626:6630   */\n      dup3\n        /* \"#utility.yul\":6622:6638   */\n      shl\n        /* \"#utility.yul\":6601:6638   */\n      swap1\n      pop\n        /* \"#utility.yul\":6538:6645   */\n      swap3\n      swap2\n      pop\n      pop\n      jump\t// out\n        /* \"#utility.yul\":6651:7044   */\n    tag_93:\n        /* \"#utility.yul\":6720:6726   */\n      0x00\n        /* \"#utility.yul\":6770:6771   */\n      0x08\n        /* \"#utility.yul\":6758:6768   */\n      dup4\n        /* \"#utility.yul\":6754:6772   */\n      mul\n        /* \"#utility.yul\":6793:6890   */\n      tag_186\n        /* \"#utility.yul\":6823:6889   */\n      0xffffffffffffffffffffffffffffffffffffffffffffffffffffffffffffffff\n        /* \"#utility.yul\":6812:6821   */\n      dup3\n        /* \"#utility.yul\":6793:6890   */\n      tag_92\n      jump\t// in\n    tag_186:\n        /* \"#utility.yul\":6911:6950   */\n      tag_187\n        /* \"#utility.yul\":6941:6949   */\n      dup7\n        /* \"#utility.yul\":6930:6939   */\n      dup4\n        /* \"#utility.yul\":6911:6950   */\n      tag_92\n      jump\t// in\n    tag_187:\n        /* \"#utility.yul\":6899:6950   */\n      swap6\n      pop\n        /* \"#utility.yul\":6983:6987   */\n      dup1\n        /* \"#utility.yul\":6979:6988   */\n      not\n        /* \"#utility.yul\":6972:6977   */\n      dup5\n        /* \"#utility.yul\":6968:6989   */\n      and\n        /* \"#utility.yul\":6959:6989   */\n      swap4\n      pop\n        /* \"#utility.yul\":7032:7036   */\n      dup1\n        /* \"#utility.yul\":7022:7030   */\n      dup7\n        /* \"#utility.yul\":7018:7037   */\n      and\n        /* \"#utility.yul\":7011:7016   */\n      dup5\n        /* \"#utility.yul\":7008:7038   */\n      or\n        /* \"#utility.yul\":6998:7038   */\n      swap3\n      pop\n        /* \"#utility.yul\":6727:7044   */\n      pop\n      pop\n        /* \"#utility.yul\":6651:7044   */\n      swap4\n      swap3\n      pop\n      pop\n      pop\n      jump\t// out\n        /* \"#utility.yul\":7050:7110   */\n    tag_94:\n        /* \"#utility.yul\":7078:7081   */\n      0x00\n        /* \"#utility.yul\":7099:7104   */\n      dup2\n        /* \"#utility.yul\":7092:7104   */\n      swap1\n      pop\n        /* \"#utility.yul\":7050:7110   */\n      swap2\n      swap1\n      pop\n      jump\t// out\n        /* \"#utility.yul\":7116:7258   */\n    tag_95:\n        /* \"#utility.yul\":7166:7175   */\n      0x00\n        /* \"#utility.yul\":7199:7252   */\n      tag_190\n        /* \"#utility.yul\":7217:7251   */\n      tag_191\n        /* \"#utility.yul\":7226:7250   */\n      tag_192\n        /* \"#utility.yul\":7244:7249   */\n      dup5\n        /* \"#utility.yul\":7226:7250   */\n      tag_66\n      jump\t// in\n    tag_192:\n        /* \"#utility.yul\":7217:7251   */\n      tag_94\n      jump\t// in\n    tag_191:\n        /* \"#utility.yul\":7199:7252   */\n      tag_66\n      jump\t// in\n    tag_190:\n        /* \"#utility.yul\":7186:7252   */\n      swap1\n      pop\n        /* \"#utility.yul\":7116:7258   */\n      swap2\n      swap1\n      pop\n      jump\t// out\n        /* \"#utility.yul\":7264:7339   */\n    tag_96:\n        /* \"#utility.yul\":7307:7310   */\n      0x00\n        /* \"#utility.yul\":7328:7333   */\n      dup2\n        /* \"#utility.yul\":7321:7333   */\n      swap1\n      pop\n        /* \"#utility.yul\":7264:7339   */\n      swap2\n      swap1\n      pop\n      jump\t// out\n        /* \"#utility.yul\":7345:7614   */\n    tag_97:\n        /* \"#utility.yul\":7455:7494   */\n      tag_195\n        /* \"#utility.yul\":7486:7493   */\n      dup4\n        /* \"#utility.yul\":7455:7494   */\n      tag_95\n      jump\t// in\n    tag_195:\n        /* \"#utility.yul\":7516:7607   */\n      tag_196\n        /* \"#utility.yul\":7565:7606   */\n      tag_197\n        /* \"#utility.yul\":7589:7605   */\n      dup3\n        /* \"#utility.yul\":7565:7606   */\n      tag_96\n      jump\t// in\n    tag_197:\n        /* \"#utility.yul\":7557:7563   */\n      dup5\n        /* \"#utility.yul\":7550:7554   */\n      dup5\n        /* \"#utility.yul\":7544:7555   */\n      sload\n        /* \"#utility.yul\":7516:7607   */\n      tag_93\n      jump\t// in\n    tag_196:\n        /* \"#utility.yul\":7510:7514   */\n      dup3\n        /* \"#utility.yul\":7503:7608   */\n      sstore\n        /* \"#utility.yul\":7421:7614   */\n      pop\n        /* \"#utility.yul\":7345:7614   */\n      pop\n      pop\n      pop\n      jump\t// out\n        /* \"#utility.yul\":7620:7693   */\n    tag_98:\n        /* \"#utility.yul\":7665:7668   */\n      0x00\n        /* \"#utility.yul\":7620:7693   */\n      swap1\n      jump\t// out\n        /* \"#utility.yul\":7699:7888   */\n    tag_99:\n        /* \"#utility.yul\":7776:7808   */\n      tag_200\n      tag_98\n      jump\t// in\n    tag_200:\n        /* \"#utility.yul\":7817:7882   */\n      tag_201\n        /* \"#utility.yul\":7875:7881   */\n      dup2\n        /* \"#utility.yul\":7867:7873   */\n      dup5\n        /* \"#utility.yul\":7861:7865   */\n      dup5\n        /* \"#utility.yul\":7817:7882   */\n      tag_97\n      jump\t// in\n    tag_201:\n        /* \"#utility.yul\":7752:7888   */\n      pop\n        /* \"#utility.yul\":7699:7888   */\n      pop\n      pop\n      jump\t// out\n        /* \"#utility.yul\":7894:8080   */\n    tag_100:\n        /* \"#utility.yul\":7954:8074   */\n    tag_203:\n        /* \"#utility.yul\":7971:7974   */\n      dup2\n        /* \"#utility.yul\":7964:7969   */\n      dup2\n        /* \"#utility.yul\":7961:7975   */\n      lt\n        /* \"#utility.yul\":7954:8074   */\n      iszero\n      tag_205\n      jumpi\n        /* \"#utility.yul\":8025:8064   */\n      tag_206\n        /* \"#utility.yul\":8062:8063   */\n      0x00\n        /* \"#utility.yul\":8055:8060   */\n      dup3\n        /* \"#utility.yul\":8025:8064   */\n      tag_99\n      jump\t// in\n    tag_206:\n        /* \"#utility.yul\":7998:7999   */\n      0x01\n        /* \"#utility.yul\":7991:7996   */\n      dup2\n        /* \"#utility.yul\":7987:8000   */\n      add\n        /* \"#utility.yul\":7978:8000   */\n      swap1\n      pop\n        /* \"#utility.yul\":7954:8074   */\n      jump(tag_203)\n    tag_205:\n        /* \"#utility.yul\":7894:8080   */\n      pop\n      pop\n      jump\t// out\n        /* \"#utility.yul\":8086:8629   */\n    tag_101:\n        /* \"#utility.yul\":8187:8189   */\n      0x1f\n        /* \"#utility.yul\":8182:8185   */\n      dup3\n        /* \"#utility.yul\":8179:8190   */\n      gt\n        /* \"#utility.yul\":8176:8622   */\n      iszero\n      tag_208\n      jumpi\n        /* \"#utility.yul\":8221:8259   */\n      tag_209\n        /* \"#utility.yul\":8253:8258   */\n      dup2\n        /* \"#utility.yul\":8221:8259   */\n      tag_90\n      jump\t// in\n    tag_209:\n        /* \"#utility.yul\":8305:8334   */\n      tag_210\n        /* \"#utility.yul\":8323:8333   */\n      dup5\n        /* \"#utility.yul\":8305:8334   */\n      tag_91\n      jump\t// in\n    tag_210:\n        /* \"#utility.yul\":8295:8303   */\n      dup2\n        /* \"#utility.yul\":8291:8335   */\n      add\n        /* \"#utility.yul\":8488:8490   */\n      0x20\n        /* \"#utility.yul\":8476:8486   */\n      dup6\n        /* \"#utility.yul\":8473:8491   */\n      lt\n        /* \"#utility.yul\":8470:8519   */\n      iszero\n      tag_211\n      jumpi\n        /* \"#utility.yul\":8509:8517   */\n      dup2\n        /* \"#utility.yul\":8494:8517   */\n      swap1\n      pop\n        /* \"#utility.yul\":8470:8519   */\n    tag_211:\n        /* \"#utility.yul\":8532:8612   */\n      tag_212\n        /* \"#utility.yul\":8588:8610   */\n      tag_213\n        /* \"#utility.yul\":8606:8609   */\n      dup6\n        /* \"#utility.yul\":8588:8610   */\n      tag_91\n      jump\t// in\n    tag_213:\n        /* \"#utility.yul\":8578:8586   */\n      dup4\n        /* \"#utility.yul\":8574:8611   */\n      add\n        /* \"#utility.yul\":8561:8572   */\n      dup3\n        /* \"#utility.yul\":8532:8612   */\n      tag_100\n      jump\t// in\n    tag_212:\n        /* \"#utility.yul\":8191:8622   */\n      pop\n      pop\n        /* \"#utility.yul\":8176:8622   */\n    tag_208:\n        /* \"#utility.yul\":8086:8629   */\n      pop\n      pop\n      pop\n      jump\t// out\n        /* \"#utility.yul\":8635:8752   */\n    tag_102:\n        /* \"#utility.yul\":8689:8697   */\n      0x00\n        /* \"#utility.yul\":8739:8744   */\n      dup3\n        /* \"#utility.yul\":8733:8737   */\n      dup3\n        /* \"#utility.yul\":8729:8745   */\n      shr\n        /* \"#utility.yul\":8708:8745   */\n      swap1\n      pop\n        /* \"#utility.yul\":8635:8752   */\n      swap3\n      swap2\n      pop\n      pop\n      jump\t// out\n        /* \"#utility.yul\":8758:8927   */\n    tag_103:\n        /* \"#utility.yul\":8802:8808   */\n      0x00\n        /* \"#utility.yul\":8835:8886   */\n      tag_216\n        /* \"#utility.yul\":8883:8884   */\n      0x00\n        /* \"#utility.yul\":8879:8885   */\n      not\n        /* \"#utility.yul\":8871:8876   */\n      dup5\n        /* \"#utility.yul\":8868:8869   */\n      0x08\n        /* \"#utility.yul\":8864:8877   */\n      mul\n        /* \"#utility.yul\":8835:8886   */\n      tag_102\n      jump\t// in\n    tag_216:\n        /* \"#utility.yul\":8831:8887   */\n      not\n        /* \"#utility.yul\":8916:8920   */\n      dup1\n        /* \"#utility.yul\":8910:8914   */\n      dup4\n        /* \"#utility.yul\":8906:8921   */\n      and\n        /* \"#utility.yul\":8896:8921   */\n      swap2\n      pop\n        /* \"#utility.yul\":8809:8927   */\n      pop\n        /* \"#utility.yul\":8758:8927   */\n      swap3\n      swap2\n      pop\n      pop\n      jump\t// out\n        /* \"#utility.yul\":8932:9227   */\n    tag_104:\n        /* \"#utility.yul\":9008:9012   */\n      0x00\n        /* \"#utility.yul\":9154:9183   */\n      tag_218\n        /* \"#utility.yul\":9179:9182   */\n      dup4\n        /* \"#utility.yul\":9173:9177   */\n      dup4\n        /* \"#utility.yul\":9154:9183   */\n      tag_103\n      jump\t// in\n    tag_218:\n        /* \"#utility.yul\":9146:9183   */\n      swap2\n      pop\n        /* \"#utility.yul\":9216:9219   */\n      dup3\n        /* \"#utility.yul\":9213:9214   */\n      0x02\n        /* \"#utility.yul\":9209:9220   */\n      mul\n        /* \"#utility.yul\":9203:9207   */\n      dup3\n        /* \"#utility.yul\":9200:9221   */\n      or\n        /* \"#utility.yul\":9192:9221   */\n      swap1\n      pop\n        /* \"#utility.yul\":8932:9227   */\n      swap3\n      swap2\n      pop\n      pop\n      jump\t// out\n        /* \"#utility.yul\":9232:10627   */\n    tag_54:\n        /* \"#utility.yul\":9349:9386   */\n      tag_220\n        /* \"#utility.yul\":9382:9385   */\n      dup3\n        /* \"#utility.yul\":9349:9386   */\n      tag_68\n      jump\t// in\n    tag_220:\n        /* \"#utility.yul\":9451:9469   */\n      0xffffffffffffffff\n        /* \"#utility.yul\":9443:9449   */\n      dup2\n        /* \"#utility.yul\":9440:9470   */\n      gt\n        /* \"#utility.yul\":9437:9493   */\n      iszero\n      tag_221\n      jumpi\n        /* \"#utility.yul\":9473:9491   */\n      tag_222\n      tag_80\n      jump\t// in\n    tag_222:\n        /* \"#utility.yul\":9437:9493   */\n    tag_221:\n        /* \"#utility.yul\":9517:9555   */\n      tag_223\n        /* \"#utility.yul\":9549:9553   */\n      dup3\n        /* \"#utility.yul\":9543:9554   */\n      sload\n        /* \"#utility.yul\":9517:9555   */\n      tag_46\n      jump\t// in\n    tag_223:\n        /* \"#utility.yul\":9602:9669   */\n      tag_224\n        /* \"#utility.yul\":9662:9668   */\n      dup3\n        /* \"#utility.yul\":9654:9660   */\n      dup3\n        /* \"#utility.yul\":9648:9652   */\n      dup6\n        /* \"#utility.yul\":9602:9669   */\n      tag_101\n      jump\t// in\n    tag_224:\n        /* \"#utility.yul\":9696:9697   */\n      0x00\n        /* \"#utility.yul\":9720:9724   */\n      0x20\n        /* \"#utility.yul\":9707:9724   */\n      swap1\n      pop\n        /* \"#utility.yul\":9752:9754   */\n      0x1f\n        /* \"#utility.yul\":9744:9750   */\n      dup4\n        /* \"#utility.yul\":9741:9755   */\n      gt\n        /* \"#utility.yul\":9769:9770   */\n      0x01\n        /* \"#utility.yul\":9764:10382   */\n      dup2\n      eq\n      tag_226\n      jumpi\n        /* \"#utility.yul\":10426:10427   */\n      0x00\n        /* \"#utility.yul\":10443:10449   */\n      dup5\n        /* \"#utility.yul\":10440:10517   */\n      iszero\n      tag_227\n      jumpi\n        /* \"#utility.yul\":10492:10501   */\n      dup3\n        /* \"#utility.yul\":10487:10490   */\n      dup8\n        /* \"#utility.yul\":10483:10502   */\n      add\n        /* \"#utility.yul\":10477:10503   */\n      mload\n        /* \"#utility.yul\":10468:10503   */\n      swap1\n      pop\n        /* \"#utility.yul\":10440:10517   */\n    tag_227:\n        /* \"#utility.yul\":10543:10610   */\n      tag_228\n        /* \"#utility.yul\":10603:10609   */\n      dup6\n        /* \"#utility.yul\":10596:10601   */\n      dup3\n        /* \"#utility.yul\":10543:10610   */\n      tag_104\n      jump\t// in\n    tag_228:\n        /* \"#utility.yul\":10537:10541   */\n      dup7\n        /* \"#utility.yul\":10530:10611   */\n      sstore\n        /* \"#utility.yul\":10399:10621   */\n      pop\n        /* \"#utility.yul\":9734:10621   */\n      jump(tag_225)\n        /* \"#utility.yul\":9764:10382   */\n    tag_226:\n        /* \"#utility.yul\":9816:9820   */\n      0x1f\n        /* \"#utility.yul\":9812:9821   */\n      not\n        /* \"#utility.yul\":9804:9810   */\n      dup5\n        /* \"#utility.yul\":9800:9822   */\n      and\n        /* \"#utility.yul\":9850:9887   */\n      tag_229\n        /* \"#utility.yul\":9882:9886   */\n      dup7\n        /* \"#utility.yul\":9850:9887   */\n      tag_90\n      jump\t// in\n    tag_229:\n        /* \"#utility.yul\":9909:9910   */\n      0x00\n        /* \"#utility.yul\":9923:10131   */\n    tag_230:\n        /* \"#utility.yul\":9937:9944   */\n      dup3\n        /* \"#utility.yul\":9934:9935   */\n      dup2\n        /* \"#utility.yul\":9931:9945   */\n      lt\n        /* \"#utility.yul\":9923:10131   */\n      iszero\n      tag_232\n      jumpi\n        /* \"#utility.yul\":10016:10025   */\n      dup5\n        /* \"#utility.yul\":10011:10014   */\n      dup10\n        /* \"#utility.yul\":10007:10026   */\n      add\n        /* \"#utility.yul\":10001:10027   */\n      mload\n        /* \"#utility.yul\":9993:9999   */\n      dup3\n        /* \"#utility.yul\":9986:10028   */\n      sstore\n        /* \"#utility.yul\":10067:10068   */\n      0x01\n        /* \"#utility.yul\":10059:10065   */\n      dup3\n        /* \"#utility.yul\":10055:10069   */\n      add\n        /* \"#utility.yul\":10045:10069   */\n      swap2\n      pop\n        /* \"#utility.yul\":10114:10116   */\n      0x20\n        /* \"#utility.yul\":10103:10112   */\n      dup6\n        /* \"#utility.yul\":10099:10117   */\n      add\n        /* \"#utility.yul\":10086:10117   */\n      swap5\n      pop\n        /* \"#utility.yul\":9960:9964   */\n      0x20\n        /* \"#utility.yul\":9957:9958   */\n      dup2\n        /* \"#utility.yul\":9953:9965   */\n      add\n        /* \"#utility.yul\":9948:9965   */\n      swap1\n      pop\n        /* \"#utility.yul\":9923:10131   */\n      jump(tag_230)\n    tag_232:\n        /* \"#utility.yul\":10159:10165   */\n      dup7\n        /* \"#utility.yul\":10150:10157   */\n      dup4\n        /* \"#utility.yul\":10147:10166   */\n      lt\n        /* \"#utility.yul\":10144:10323   */\n      iszero\n      tag_233\n      jumpi\n        /* \"#utility.yul\":10217:10226   */\n      dup5\n        /* \"#utility.yul\":10212:10215   */\n      dup10\n        /* \"#utility.yul\":10208:10227   */\n      add\n        /* \"#utility.yul\":10202:10228   */\n      mload\n        /* \"#utility.yul\":10260:10308   */\n      tag_234\n        /* \"#utility.yul\":10302:10306   */\n      0x1f\n        /* \"#utility.yul\":10294:10300   */\n      dup10\n        /* \"#utility.yul\":10290:10307   */\n      and\n        /* \"#utility.yul\":10279:10288   */\n      dup3\n        /* \"#utility.yul\":10260:10308   */\n      tag_103\n      jump\t// in\n    tag_234:\n        /* \"#utility.yul\":10252:10258   */\n      dup4\n        /* \"#utility.yul\":10245:10309   */\n      sstore\n        /* \"#utility.yul\":10167:10323   */\n      pop\n        /* \"#utility.yul\":10144:10323   */\n    tag_233:\n        /* \"#utility.yul\":10369:10370   */\n      0x01\n        /* \"#utility.yul\":10365:10366   */\n      0x02\n        /* \"#utility.yul\":10357:10363   */\n      dup9\n        /* \"#utility.yul\":10353:10367   */\n      mul\n        /* \"#utility.yul\":10349:10371   */\n      add\n        /* \"#utility.yul\":10343:10347   */\n      dup9\n        /* \"#utility.yul\":10336:10372   */\n      sstore\n        /* \"#utility.yul\":9771:10382   */\n      pop\n      pop\n      pop\n        /* \"#utility.yul\":9734:10621   */\n    tag_225:\n      pop\n        /* \"#utility.yul\":9324:10627   */\n      pop\n      pop\n      pop\n        /* \"#utility.yul\":9232:10627   */\n      pop\n      pop\n      jump\t// out\n        /* \"#utility.yul\":10633:10781   */\n    tag_105:\n        /* \"#utility.yul\":10735:10746   */\n      0x00\n        /* \"#utility.yul\":10772:10775   */\n      dup2\n        /* \"#utility.yul\":10757:10775   */\n      swap1\n      pop\n        /* \"#utility.yul\":10633:10781   */\n      swap3\n      swap2\n      pop\n      pop\n      jump\t// out\n        /* \"#utility.yul\":10811:11685   */\n    tag_106:\n        /* \"#utility.yul\":10914:10917   */\n      0x00\n        /* \"#utility.yul\":10951:10956   */\n      dup2\n        /* \"#utility.yul\":10945:10957   */\n      sload\n        /* \"#utility.yul\":10980:11016   */\n      tag_237\n        /* \"#utility.yul\":11006:11015   */\n      dup2\n        /* \"#utility.yul\":10980:11016   */\n      tag_46\n      jump\t// in\n    tag_237:\n        /* \"#utility.yul\":11032:11121   */\n      tag_238\n        /* \"#utility.yul\":11114:11120   */\n      dup2\n        /* \"#utility.yul\":11109:11112   */\n      dup7\n        /* \"#utility.yul\":11032:11121   */\n      tag_105\n      jump\t// in\n    tag_238:\n        /* \"#utility.yul\":11025:11121   */\n      swap5\n      pop\n        /* \"#utility.yul\":11152:11153   */\n      0x01\n        /* \"#utility.yul\":11141:11150   */\n      dup3\n        /* \"#utility.yul\":11137:11154   */\n      and\n        /* \"#utility.yul\":11168:11169   */\n      0x00\n        /* \"#utility.yul\":11163:11329   */\n      dup2\n      eq\n      tag_240\n      jumpi\n        /* \"#utility.yul\":11343:11344   */\n      0x01\n        /* \"#utility.yul\":11338:11679   */\n      dup2\n      eq\n      tag_241\n      jumpi\n        /* \"#utility.yul\":11130:11679   */\n      jump(tag_239)\n        /* \"#utility.yul\":11163:11329   */\n    tag_240:\n        /* \"#utility.yul\":11247:11251   */\n      0xff\n        /* \"#utility.yul\":11243:11252   */\n      not\n        /* \"#utility.yul\":11232:11241   */\n      dup4\n        /* \"#utility.yul\":11228:11253   */\n      and\n        /* \"#utility.yul\":11223:11226   */\n      dup7\n        /* \"#utility.yul\":11216:11254   */\n      mstore\n        /* \"#utility.yul\":11309:11315   */\n      dup2\n        /* \"#utility.yul\":11302:11316   */\n      iszero\n        /* \"#utility.yul\":11295:11317   */\n      iszero\n        /* \"#utility.yul\":11287:11293   */\n      dup3\n        /* \"#utility.yul\":11283:11318   */\n      mul\n        /* \"#utility.yul\":11278:11281   */\n      dup7\n        /* \"#utility.yul\":11274:11319   */\n      add\n        /* \"#utility.yul\":11267:11319   */\n      swap4\n      pop\n        /* \"#utility.yul\":11163:11329   */\n      jump(tag_239)\n        /* \"#utility.yul\":11338:11679   */\n    tag_241:\n        /* \"#utility.yul\":11405:11443   */\n      tag_242\n        /* \"#utility.yul\":11437:11442   */\n      dup6\n        /* \"#utility.yul\":11405:11443   */\n      tag_90\n      jump\t// in\n    tag_242:\n        /* \"#utility.yul\":11465:11466   */\n      0x00\n        /* \"#utility.yul\":11479:11633   */\n    tag_243:\n        /* \"#utility.yul\":11493:11499   */\n      dup4\n        /* \"#utility.yul\":11490:11491   */\n      dup2\n        /* \"#utility.yul\":11487:11500   */\n      lt\n        /* \"#utility.yul\":11479:11633   */\n      iszero\n      tag_245\n      jumpi\n        /* \"#utility.yul\":11567:11574   */\n      dup2\n        /* \"#utility.yul\":11561:11575   */\n      sload\n        /* \"#utility.yul\":11557:11558   */\n      dup2\n        /* \"#utility.yul\":11552:11555   */\n      dup10\n        /* \"#utility.yul\":11548:11559   */\n      add\n        /* \"#utility.yul\":11541:11576   */\n      mstore\n        /* \"#utility.yul\":11617:11618   */\n      0x01\n        /* \"#utility.yul\":11608:11615   */\n      dup3\n        /* \"#utility.yul\":11604:11619   */\n      add\n        /* \"#utility.yul\":11593:11619   */\n      swap2\n      pop\n        /* \"#utility.yul\":11515:11519   */\n      0x20\n        /* \"#utility.yul\":11512:11513   */\n      dup2\n        /* \"#utility.yul\":11508:11520   */\n      add\n        /* \"#utility.yul\":11503:11520   */\n      swap1\n      pop\n        /* \"#utility.yul\":11479:11633   */\n      jump(tag_243)\n    tag_245:\n        /* \"#utility.yul\":11662:11668   */\n      dup4\n        /* \"#utility.yul\":11657:11660   */\n      dup9\n        /* \"#utility.yul\":11653:11669   */\n      add\n        /* \"#utility.yul\":11646:11669   */\n      swap6\n      pop\n        /* \"#utility.yul\":11345:11679   */\n      pop\n      pop\n        /* \"#utility.yul\":11130:11679   */\n    tag_239:\n      pop\n        /* \"#utility.yul\":10918:11685   */\n      pop\n      pop\n        /* \"#utility.yul\":10811:11685   */\n      swap3\n      swap2\n      pop\n      pop\n      jump\t// out\n        /* \"#utility.yul\":11691:11770   */\n    tag_107:\n        /* \"#utility.yul\":11730:11737   */\n      0x00\n        /* \"#utility.yul\":11759:11764   */\n      dup2\n        /* \"#utility.yul\":11748:11764   */\n      swap1\n      pop\n        /* \"#utility.yul\":11691:11770   */\n      swap2\n      swap1\n      pop\n      jump\t// out\n        /* \"#utility.yul\":11776:11933   */\n    tag_108:\n        /* \"#utility.yul\":11881:11926   */\n      tag_248\n        /* \"#utility.yul\":11901:11925   */\n      tag_249\n        /* \"#utility.yul\":11919:11924   */\n      dup3\n        /* \"#utility.yul\":11901:11925   */\n      tag_66\n      jump\t// in\n    tag_249:\n        /* \"#utility.yul\":11881:11926   */\n      tag_107\n      jump\t// in\n    tag_248:\n        /* \"#utility.yul\":11876:11879   */\n      dup3\n        /* \"#utility.yul\":11869:11927   */\n      mstore\n        /* \"#utility.yul\":11776:11933   */\n      pop\n      pop\n      jump\t// out\n        /* \"#utility.yul\":11939:12644   */\n    tag_65:\n        /* \"#utility.yul\":12169:12172   */\n      0x00\n        /* \"#utility.yul\":12191:12283   */\n      tag_251\n        /* \"#utility.yul\":12279:12282   */\n      dup3\n        /* \"#utility.yul\":12270:12276   */\n      dup8\n        /* \"#utility.yul\":12191:12283   */\n      tag_106\n      jump\t// in\n    tag_251:\n        /* \"#utility.yul\":12184:12283   */\n      swap2\n      pop\n        /* \"#utility.yul\":12300:12392   */\n      tag_252\n        /* \"#utility.yul\":12388:12391   */\n      dup3\n        /* \"#utility.yul\":12379:12385   */\n      dup7\n        /* \"#utility.yul\":12300:12392   */\n      tag_106\n      jump\t// in\n    tag_252:\n        /* \"#utility.yul\":12293:12392   */\n      swap2\n      pop\n        /* \"#utility.yul\":12402:12477   */\n      tag_253\n        /* \"#utility.yul\":12473:12476   */\n      dup3\n        /* \"#utility.yul\":12464:12470   */\n      dup6\n        /* \"#utility.yul\":12402:12477   */\n      tag_108\n      jump\t// in\n    tag_253:\n        /* \"#utility.yul\":12502:12504   */\n      0x20\n        /* \"#utility.yul\":12497:12500   */\n      dup3\n        /* \"#utility.yul\":12493:12505   */\n      add\n        /* \"#utility.yul\":12486:12505   */\n      swap2\n      pop\n        /* \"#utility.yul\":12515:12590   */\n      tag_254\n        /* \"#utility.yul\":12586:12589   */\n      dup3\n        /* \"#utility.yul\":12577:12583   */\n      dup5\n        /* \"#utility.yul\":12515:12590   */\n      tag_108\n      jump\t// in\n    tag_254:\n        /* \"#utility.yul\":12615:12617   */\n      0x20\n        /* \"#utility.yul\":12610:12613   */\n      dup3\n        /* \"#utility.yul\":12606:12618   */\n      add\n        /* \"#utility.yul\":12599:12618   */\n      swap2\n      pop\n        /* \"#utility.yul\":12635:12638   */\n      dup2\n        /* \"#utility.yul\":12628:12638   */\n      swap1\n      pop\n        /* \"#utility.yul\":11939:12644   */\n      swap6\n      swap5\n      pop\n      pop\n      pop\n      pop\n      pop\n      jump\t// out\n\n    auxdata: 0xa2646970667358221220f88bcf1a7ff8b6fd805bd3dd699a4ca15539375c63cf87fbc29c5bf004a80d5664736f6c63430008160033\n}\n",
				"bytecode": {
					"linkReferences": {},
					"object": "608060405234801561000f575f80fd5b50610a078061001d5f395ff3fe608060405234801561000f575f80fd5b5060043610610091575f3560e01c806369b5fb581161006457806369b5fb581461010b5780636a64aabb146101275780638131cf261461014557806393c3939314610161578063ebc38f9c1461017d57610091565b806305b3441014610095578063318a0e29146100b35780633ccb3c8f146100d15780634c9555d8146100ed575b5f80fd5b61009d61019b565b6040516100aa919061034c565b60405180910390f35b6100bb6101a1565b6040516100c891906103ef565b60405180910390f35b6100eb60048036038101906100e6919061044a565b61022c565b005b6100f5610236565b604051610102919061034c565b60405180910390f35b610125600480360381019061012091906105a1565b61023c565b005b61012f61024f565b60405161013c91906103ef565b60405180910390f35b61015f600480360381019061015a91906105a1565b6102db565b005b61017b6004803603810190610176919061044a565b6102ed565b005b6101856102f7565b6040516101929190610600565b60405180910390f35b60025481565b5f80546101ad90610646565b80601f01602080910402602001604051908101604052809291908181526020018280546101d990610646565b80156102245780601f106101fb57610100808354040283529160200191610224565b820191905f5260205f20905b81548152906001019060200180831161020757829003601f168201915b505050505081565b8060038190555050565b60035481565b806001908161024b9190610813565b5050565b6001805461025c90610646565b80601f016020809104026020016040519081016040528092919081815260200182805461028890610646565b80156102d35780601f106102aa576101008083540402835291602001916102d3565b820191905f5260205f20905b8154815290600101906020018083116102b657829003601f168201915b505050505081565b805f90816102e99190610813565b5050565b8060028190555050565b5f805f6001600254600354604051602001610315949392919061098c565b6040516020818303038152906040528051906020012090508091505090565b5f819050919050565b61034681610334565b82525050565b5f60208201905061035f5f83018461033d565b92915050565b5f81519050919050565b5f82825260208201905092915050565b5f5b8381101561039c578082015181840152602081019050610381565b5f8484015250505050565b5f601f19601f8301169050919050565b5f6103c182610365565b6103cb818561036f565b93506103db81856020860161037f565b6103e4816103a7565b840191505092915050565b5f6020820190508181035f83015261040781846103b7565b905092915050565b5f604051905090565b5f80fd5b5f80fd5b61042981610334565b8114610433575f80fd5b50565b5f8135905061044481610420565b92915050565b5f6020828403121561045f5761045e610418565b5b5f61046c84828501610436565b91505092915050565b5f80fd5b5f80fd5b7f4e487b71000000000000000000000000000000000000000000000000000000005f52604160045260245ffd5b6104b3826103a7565b810181811067ffffffffffffffff821117156104d2576104d161047d565b5b80604052505050565b5f6104e461040f565b90506104f082826104aa565b919050565b5f67ffffffffffffffff82111561050f5761050e61047d565b5b610518826103a7565b9050602081019050919050565b828183375f83830152505050565b5f610545610540846104f5565b6104db565b90508281526020810184848401111561056157610560610479565b5b61056c848285610525565b509392505050565b5f82601f83011261058857610587610475565b5b8135610598848260208601610533565b91505092915050565b5f602082840312156105b6576105b5610418565b5b5f82013567ffffffffffffffff8111156105d3576105d261041c565b5b6105df84828501610574565b91505092915050565b5f819050919050565b6105fa816105e8565b82525050565b5f6020820190506106135f8301846105f1565b92915050565b7f4e487b71000000000000000000000000000000000000000000000000000000005f52602260045260245ffd5b5f600282049050600182168061065d57607f821691505b6020821081036106705761066f610619565b5b50919050565b5f819050815f5260205f209050919050565b5f6020601f8301049050919050565b5f82821b905092915050565b5f600883026106d27fffffffffffffffffffffffffffffffffffffffffffffffffffffffffffffffff82610697565b6106dc8683610697565b95508019841693508086168417925050509392505050565b5f819050919050565b5f61071761071261070d84610334565b6106f4565b610334565b9050919050565b5f819050919050565b610730836106fd565b61074461073c8261071e565b8484546106a3565b825550505050565b5f90565b61075861074c565b610763818484610727565b505050565b5b818110156107865761077b5f82610750565b600181019050610769565b5050565b601f8211156107cb5761079c81610676565b6107a584610688565b810160208510156107b4578190505b6107c86107c085610688565b830182610768565b50505b505050565b5f82821c905092915050565b5f6107eb5f19846008026107d0565b1980831691505092915050565b5f61080383836107dc565b9150826002028217905092915050565b61081c82610365565b67ffffffffffffffff8111156108355761083461047d565b5b61083f8254610646565b61084a82828561078a565b5f60209050601f83116001811461087b575f8415610869578287015190505b61087385826107f8565b8655506108da565b601f19841661088986610676565b5f5b828110156108b05784890151825560018201915060208501945060208101905061088b565b868310156108cd57848901516108c9601f8916826107dc565b8355505b6001600288020188555050505b505050505050565b5f81905092915050565b5f81546108f881610646565b61090281866108e2565b9450600182165f811461091c576001811461093157610963565b60ff1983168652811515820286019350610963565b61093a85610676565b5f5b8381101561095b5781548189015260018201915060208101905061093c565b838801955050505b50505092915050565b5f819050919050565b61098661098182610334565b61096c565b82525050565b5f61099782876108ec565b91506109a382866108ec565b91506109af8285610975565b6020820191506109bf8284610975565b6020820191508190509594505050505056fea2646970667358221220f88bcf1a7ff8b6fd805bd3dd699a4ca15539375c63cf87fbc29c5bf004a80d5664736f6c63430008160033",
					"opcodes": "PUSH1 0x80 PUSH1 0x40 MSTORE CALLVALUE DUP1 ISZERO PUSH2 0xF JUMPI PUSH0 DUP1 REVERT JUMPDEST POP PUSH2 0xA07 DUP1 PUSH2 0x1D PUSH0 CODECOPY PUSH0 RETURN INVALID PUSH1 0x80 PUSH1 0x40 MSTORE CALLVALUE DUP1 ISZERO PUSH2 0xF JUMPI PUSH0 DUP1 REVERT JUMPDEST POP PUSH1 0x4 CALLDATASIZE LT PUSH2 0x91 JUMPI PUSH0 CALLDATALOAD PUSH1 0xE0 SHR DUP1 PUSH4 0x69B5FB58 GT PUSH2 0x64 JUMPI DUP1 PUSH4 0x69B5FB58 EQ PUSH2 0x10B JUMPI DUP1 PUSH4 0x6A64AABB EQ PUSH2 0x127 JUMPI DUP1 PUSH4 0x8131CF26 EQ PUSH2 0x145 JUMPI DUP1 PUSH4 0x93C39393 EQ PUSH2 0x161 JUMPI DUP1 PUSH4 0xEBC38F9C EQ PUSH2 0x17D JUMPI PUSH2 0x91 JUMP JUMPDEST DUP1 PUSH4 0x5B34410 EQ PUSH2 0x95 JUMPI DUP1 PUSH4 0x318A0E29 EQ PUSH2 0xB3 JUMPI DUP1 PUSH4 0x3CCB3C8F EQ PUSH2 0xD1 JUMPI DUP1 PUSH4 0x4C9555D8 EQ PUSH2 0xED JUMPI JUMPDEST PUSH0 DUP1 REVERT JUMPDEST PUSH2 0x9D PUSH2 0x19B JUMP JUMPDEST PUSH1 0x40 MLOAD PUSH2 0xAA SWAP2 SWAP1 PUSH2 0x34C JUMP JUMPDEST PUSH1 0x40 MLOAD DUP1 SWAP2 SUB SWAP1 RETURN JUMPDEST PUSH2 0xBB PUSH2 0x1A1 JUMP JUMPDEST PUSH1 0x40 MLOAD PUSH2 0xC8 SWAP2 SWAP1 PUSH2 0x3EF JUMP JUMPDEST PUSH1 0x40 MLOAD DUP1 SWAP2 SUB SWAP1 RETURN JUMPDEST PUSH2 0xEB PUSH1 0x4 DUP1 CALLDATASIZE SUB DUP2 ADD SWAP1 PUSH2 0xE6 SWAP2 SWAP1 PUSH2 0x44A JUMP JUMPDEST PUSH2 0x22C JUMP JUMPDEST STOP JUMPDEST PUSH2 0xF5 PUSH2 0x236 JUMP JUMPDEST PUSH1 0x40 MLOAD PUSH2 0x102 SWAP2 SWAP1 PUSH2 0x34C JUMP JUMPDEST PUSH1 0x40 MLOAD DUP1 SWAP2 SUB SWAP1 RETURN JUMPDEST PUSH2 0x125 PUSH1 0x4 DUP1 CALLDATASIZE SUB DUP2 ADD SWAP1 PUSH2 0x120 SWAP2 SWAP1 PUSH2 0x5A1 JUMP JUMPDEST PUSH2 0x23C JUMP JUMPDEST STOP JUMPDEST PUSH2 0x12F PUSH2 0x24F JUMP JUMPDEST PUSH1 0x40 MLOAD PUSH2 0x13C SWAP2 SWAP1 PUSH2 0x3EF JUMP JUMPDEST PUSH1 0x40 MLOAD DUP1 SWAP2 SUB SWAP1 RETURN JUMPDEST PUSH2 0x15F PUSH1 0x4 DUP1 CALLDATASIZE SUB DUP2 ADD SWAP1 PUSH2 0x15A SWAP2 SWAP1 PUSH2 0x5A1 JUMP JUMPDEST PUSH2 0x2DB JUMP JUMPDEST STOP JUMPDEST PUSH2 0x17B PUSH1 0x4 DUP1 CALLDATASIZE SUB DUP2 ADD SWAP1 PUSH2 0x176 SWAP2 SWAP1 PUSH2 0x44A JUMP JUMPDEST PUSH2 0x2ED JUMP JUMPDEST STOP JUMPDEST PUSH2 0x185 PUSH2 0x2F7 JUMP JUMPDEST PUSH1 0x40 MLOAD PUSH2 0x192 SWAP2 SWAP1 PUSH2 0x600 JUMP JUMPDEST PUSH1 0x40 MLOAD DUP1 SWAP2 SUB SWAP1 RETURN JUMPDEST PUSH1 0x2 SLOAD DUP2 JUMP JUMPDEST PUSH0 DUP1 SLOAD PUSH2 0x1AD SWAP1 PUSH2 0x646 JUMP JUMPDEST DUP1 PUSH1 0x1F ADD PUSH1 0x20 DUP1 SWAP2 DIV MUL PUSH1 0x20 ADD PUSH1 0x40 MLOAD SWAP1 DUP2 ADD PUSH1 0x40 MSTORE DUP1 SWAP3 SWAP2 SWAP1 DUP2 DUP2 MSTORE PUSH1 0x20 ADD DUP3 DUP1 SLOAD PUSH2 0x1D9 SWAP1 PUSH2 0x646 JUMP JUMPDEST DUP1 ISZERO PUSH2 0x224 JUMPI DUP1 PUSH1 0x1F LT PUSH2 0x1FB JUMPI PUSH2 0x100 DUP1 DUP4 SLOAD DIV MUL DUP4 MSTORE SWAP2 PUSH1 0x20 ADD SWAP2 PUSH2 0x224 JUMP JUMPDEST DUP3 ADD SWAP2 SWAP1 PUSH0 MSTORE PUSH1 0x20 PUSH0 KECCAK256 SWAP1 JUMPDEST DUP2 SLOAD DUP2 MSTORE SWAP1 PUSH1 0x1 ADD SWAP1 PUSH1 0x20 ADD DUP1 DUP4 GT PUSH2 0x207 JUMPI DUP3 SWAP1 SUB PUSH1 0x1F AND DUP3 ADD SWAP2 JUMPDEST POP POP POP POP POP DUP2 JUMP JUMPDEST DUP1 PUSH1 0x3 DUP2 SWAP1 SSTORE POP POP JUMP JUMPDEST PUSH1 0x3 SLOAD DUP2 JUMP JUMPDEST DUP1 PUSH1 0x1 SWAP1 DUP2 PUSH2 0x24B SWAP2 SWAP1 PUSH2 0x813 JUMP JUMPDEST POP POP JUMP JUMPDEST PUSH1 0x1 DUP1 SLOAD PUSH2 0x25C SWAP1 PUSH2 0x646 JUMP JUMPDEST DUP1 PUSH1 0x1F ADD PUSH1 0x20 DUP1 SWAP2 DIV MUL PUSH1 0x20 ADD PUSH1 0x40 MLOAD SWAP1 DUP2 ADD PUSH1 0x40 MSTORE DUP1 SWAP3 SWAP2 SWAP1 DUP2 DUP2 MSTORE PUSH1 0x20 ADD DUP3 DUP1 SLOAD PUSH2 0x288 SWAP1 PUSH2 0x646 JUMP JUMPDEST DUP1 ISZERO PUSH2 0x2D3 JUMPI DUP1 PUSH1 0x1F LT PUSH2 0x2AA JUMPI PUSH2 0x100 DUP1 DUP4 SLOAD DIV MUL DUP4 MSTORE SWAP2 PUSH1 0x20 ADD SWAP2 PUSH2 0x2D3 JUMP JUMPDEST DUP3 ADD SWAP2 SWAP1 PUSH0 MSTORE PUSH1 0x20 PUSH0 KECCAK256 SWAP1 JUMPDEST DUP2 SLOAD DUP2 MSTORE SWAP1 PUSH1 0x1 ADD SWAP1 PUSH1 0x20 ADD DUP1 DUP4 GT PUSH2 0x2B6 JUMPI DUP3 SWAP1 SUB PUSH1 0x1F AND DUP3 ADD SWAP2 JUMPDEST POP POP POP POP POP DUP2 JUMP JUMPDEST DUP1 PUSH0 SWAP1 DUP2 PUSH2 0x2E9 SWAP2 SWAP1 PUSH2 0x813 JUMP JUMPDEST POP POP JUMP JUMPDEST DUP1 PUSH1 0x2 DUP2 SWAP1 SSTORE POP POP JUMP JUMPDEST PUSH0 DUP1 PUSH0 PUSH1 0x1 PUSH1 0x2 SLOAD PUSH1 0x3 SLOAD PUSH1 0x40 MLOAD PUSH1 0x20 ADD PUSH2 0x315 SWAP5 SWAP4 SWAP3 SWAP2 SWAP1 PUSH2 0x98C JUMP JUMPDEST PUSH1 0x40 MLOAD PUSH1 0x20 DUP2 DUP4 SUB SUB DUP2 MSTORE SWAP1 PUSH1 0x40 MSTORE DUP1 MLOAD SWAP1 PUSH1 0x20 ADD KECCAK256 SWAP1 POP DUP1 SWAP2 POP POP SWAP1 JUMP JUMPDEST PUSH0 DUP2 SWAP1 POP SWAP2 SWAP1 POP JUMP JUMPDEST PUSH2 0x346 DUP2 PUSH2 0x334 JUMP JUMPDEST DUP3 MSTORE POP POP JUMP JUMPDEST PUSH0 PUSH1 0x20 DUP3 ADD SWAP1 POP PUSH2 0x35F PUSH0 DUP4 ADD DUP5 PUSH2 0x33D JUMP JUMPDEST SWAP3 SWAP2 POP POP JUMP JUMPDEST PUSH0 DUP2 MLOAD SWAP1 POP SWAP2 SWAP1 POP JUMP JUMPDEST PUSH0 DUP3 DUP3 MSTORE PUSH1 0x20 DUP3 ADD SWAP1 POP SWAP3 SWAP2 POP POP JUMP JUMPDEST PUSH0 JUMPDEST DUP4 DUP2 LT ISZERO PUSH2 0x39C JUMPI DUP1 DUP3 ADD MLOAD DUP2 DUP5 ADD MSTORE PUSH1 0x20 DUP2 ADD SWAP1 POP PUSH2 0x381 JUMP JUMPDEST PUSH0 DUP5 DUP5 ADD MSTORE POP POP POP POP JUMP JUMPDEST PUSH0 PUSH1 0x1F NOT PUSH1 0x1F DUP4 ADD AND SWAP1 POP SWAP2 SWAP1 POP JUMP JUMPDEST PUSH0 PUSH2 0x3C1 DUP3 PUSH2 0x365 JUMP JUMPDEST PUSH2 0x3CB DUP2 DUP6 PUSH2 0x36F JUMP JUMPDEST SWAP4 POP PUSH2 0x3DB DUP2 DUP6 PUSH1 0x20 DUP7 ADD PUSH2 0x37F JUMP JUMPDEST PUSH2 0x3E4 DUP2 PUSH2 0x3A7 JUMP JUMPDEST DUP5 ADD SWAP2 POP POP SWAP3 SWAP2 POP POP JUMP JUMPDEST PUSH0 PUSH1 0x20 DUP3 ADD SWAP1 POP DUP2 DUP2 SUB PUSH0 DUP4 ADD MSTORE PUSH2 0x407 DUP2 DUP5 PUSH2 0x3B7 JUMP JUMPDEST SWAP1 POP SWAP3 SWAP2 POP POP JUMP JUMPDEST PUSH0 PUSH1 0x40 MLOAD SWAP1 POP SWAP1 JUMP JUMPDEST PUSH0 DUP1 REVERT JUMPDEST PUSH0 DUP1 REVERT JUMPDEST PUSH2 0x429 DUP2 PUSH2 0x334 JUMP JUMPDEST DUP2 EQ PUSH2 0x433 JUMPI PUSH0 DUP1 REVERT JUMPDEST POP JUMP JUMPDEST PUSH0 DUP2 CALLDATALOAD SWAP1 POP PUSH2 0x444 DUP2 PUSH2 0x420 JUMP JUMPDEST SWAP3 SWAP2 POP POP JUMP JUMPDEST PUSH0 PUSH1 0x20 DUP3 DUP5 SUB SLT ISZERO PUSH2 0x45F JUMPI PUSH2 0x45E PUSH2 0x418 JUMP JUMPDEST JUMPDEST PUSH0 PUSH2 0x46C DUP5 DUP3 DUP6 ADD PUSH2 0x436 JUMP JUMPDEST SWAP2 POP POP SWAP3 SWAP2 POP POP JUMP JUMPDEST PUSH0 DUP1 REVERT JUMPDEST PUSH0 DUP1 REVERT JUMPDEST PUSH32 0x4E487B7100000000000000000000000000000000000000000000000000000000 PUSH0 MSTORE PUSH1 0x41 PUSH1 0x4 MSTORE PUSH1 0x24 PUSH0 REVERT JUMPDEST PUSH2 0x4B3 DUP3 PUSH2 0x3A7 JUMP JUMPDEST DUP2 ADD DUP2 DUP2 LT PUSH8 0xFFFFFFFFFFFFFFFF DUP3 GT OR ISZERO PUSH2 0x4D2 JUMPI PUSH2 0x4D1 PUSH2 0x47D JUMP JUMPDEST JUMPDEST DUP1 PUSH1 0x40 MSTORE POP POP POP JUMP JUMPDEST PUSH0 PUSH2 0x4E4 PUSH2 0x40F JUMP JUMPDEST SWAP1 POP PUSH2 0x4F0 DUP3 DUP3 PUSH2 0x4AA JUMP JUMPDEST SWAP2 SWAP1 POP JUMP JUMPDEST PUSH0 PUSH8 0xFFFFFFFFFFFFFFFF DUP3 GT ISZERO PUSH2 0x50F JUMPI PUSH2 0x50E PUSH2 0x47D JUMP JUMPDEST JUMPDEST PUSH2 0x518 DUP3 PUSH2 0x3A7 JUMP JUMPDEST SWAP1 POP PUSH1 0x20 DUP2 ADD SWAP1 POP SWAP2 SWAP1 POP JUMP JUMPDEST DUP3 DUP2 DUP4 CALLDATACOPY PUSH0 DUP4 DUP4 ADD MSTORE POP POP POP JUMP JUMPDEST PUSH0 PUSH2 0x545 PUSH2 0x540 DUP5 PUSH2 0x4F5 JUMP JUMPDEST PUSH2 0x4DB JUMP JUMPDEST SWAP1 POP DUP3 DUP2 MSTORE PUSH1 0x20 DUP2 ADD DUP5 DUP5 DUP5 ADD GT ISZERO PUSH2 0x561 JUMPI PUSH2 0x560 PUSH2 0x479 JUMP JUMPDEST JUMPDEST PUSH2 0x56C DUP5 DUP3 DUP6 PUSH2 0x525 JUMP JUMPDEST POP SWAP4 SWAP3 POP POP POP JUMP JUMPDEST PUSH0 DUP3 PUSH1 0x1F DUP4 ADD SLT PUSH2 0x588 JUMPI PUSH2 0x587 PUSH2 0x475 JUMP JUMPDEST JUMPDEST DUP2 CALLDATALOAD PUSH2 0x598 DUP5 DUP3 PUSH1 0x20 DUP7 ADD PUSH2 0x533 JUMP JUMPDEST SWAP2 POP POP SWAP3 SWAP2 POP POP JUMP JUMPDEST PUSH0 PUSH1 0x20 DUP3 DUP5 SUB SLT ISZERO PUSH2 0x5B6 JUMPI PUSH2 0x5B5 PUSH2 0x418 JUMP JUMPDEST JUMPDEST PUSH0 DUP3 ADD CALLDATALOAD PUSH8 0xFFFFFFFFFFFFFFFF DUP2 GT ISZERO PUSH2 0x5D3 JUMPI PUSH2 0x5D2 PUSH2 0x41C JUMP JUMPDEST JUMPDEST PUSH2 0x5DF DUP5 DUP3 DUP6 ADD PUSH2 0x574 JUMP JUMPDEST SWAP2 POP POP SWAP3 SWAP2 POP POP JUMP JUMPDEST PUSH0 DUP2 SWAP1 POP SWAP2 SWAP1 POP JUMP JUMPDEST PUSH2 0x5FA DUP2 PUSH2 0x5E8 JUMP JUMPDEST DUP3 MSTORE POP POP JUMP JUMPDEST PUSH0 PUSH1 0x20 DUP3 ADD SWAP1 POP PUSH2 0x613 PUSH0 DUP4 ADD DUP5 PUSH2 0x5F1 JUMP JUMPDEST SWAP3 SWAP2 POP POP JUMP JUMPDEST PUSH32 0x4E487B7100000000000000000000000000000000000000000000000000000000 PUSH0 MSTORE PUSH1 0x22 PUSH1 0x4 MSTORE PUSH1 0x24 PUSH0 REVERT JUMPDEST PUSH0 PUSH1 0x2 DUP3 DIV SWAP1 POP PUSH1 0x1 DUP3 AND DUP1 PUSH2 0x65D JUMPI PUSH1 0x7F DUP3 AND SWAP2 POP JUMPDEST PUSH1 0x20 DUP3 LT DUP2 SUB PUSH2 0x670 JUMPI PUSH2 0x66F PUSH2 0x619 JUMP JUMPDEST JUMPDEST POP SWAP2 SWAP1 POP JUMP JUMPDEST PUSH0 DUP2 SWAP1 POP DUP2 PUSH0 MSTORE PUSH1 0x20 PUSH0 KECCAK256 SWAP1 POP SWAP2 SWAP1 POP JUMP JUMPDEST PUSH0 PUSH1 0x20 PUSH1 0x1F DUP4 ADD DIV SWAP1 POP SWAP2 SWAP1 POP JUMP JUMPDEST PUSH0 DUP3 DUP3 SHL SWAP1 POP SWAP3 SWAP2 POP POP JUMP JUMPDEST PUSH0 PUSH1 0x8 DUP4 MUL PUSH2 0x6D2 PUSH32 0xFFFFFFFFFFFFFFFFFFFFFFFFFFFFFFFFFFFFFFFFFFFFFFFFFFFFFFFFFFFFFFFF DUP3 PUSH2 0x697 JUMP JUMPDEST PUSH2 0x6DC DUP7 DUP4 PUSH2 0x697 JUMP JUMPDEST SWAP6 POP DUP1 NOT DUP5 AND SWAP4 POP DUP1 DUP7 AND DUP5 OR SWAP3 POP POP POP SWAP4 SWAP3 POP POP POP JUMP JUMPDEST PUSH0 DUP2 SWAP1 POP SWAP2 SWAP1 POP JUMP JUMPDEST PUSH0 PUSH2 0x717 PUSH2 0x712 PUSH2 0x70D DUP5 PUSH2 0x334 JUMP JUMPDEST PUSH2 0x6F4 JUMP JUMPDEST PUSH2 0x334 JUMP JUMPDEST SWAP1 POP SWAP2 SWAP1 POP JUMP JUMPDEST PUSH0 DUP2 SWAP1 POP SWAP2 SWAP1 POP JUMP JUMPDEST PUSH2 0x730 DUP4 PUSH2 0x6FD JUMP JUMPDEST PUSH2 0x744 PUSH2 0x73C DUP3 PUSH2 0x71E JUMP JUMPDEST DUP5 DUP5 SLOAD PUSH2 0x6A3 JUMP JUMPDEST DUP3 SSTORE POP POP POP POP JUMP JUMPDEST PUSH0 SWAP1 JUMP JUMPDEST PUSH2 0x758 PUSH2 0x74C JUMP JUMPDEST PUSH2 0x763 DUP2 DUP5 DUP5 PUSH2 0x727 JUMP JUMPDEST POP POP POP JUMP JUMPDEST JUMPDEST DUP2 DUP2 LT ISZERO PUSH2 0x786 JUMPI PUSH2 0x77B PUSH0 DUP3 PUSH2 0x750 JUMP JUMPDEST PUSH1 0x1 DUP2 ADD SWAP1 POP PUSH2 0x769 JUMP JUMPDEST POP POP JUMP JUMPDEST PUSH1 0x1F DUP3 GT ISZERO PUSH2 0x7CB JUMPI PUSH2 0x79C DUP2 PUSH2 0x676 JUMP JUMPDEST PUSH2 0x7A5 DUP5 PUSH2 0x688 JUMP JUMPDEST DUP2 ADD PUSH1 0x20 DUP6 LT ISZERO PUSH2 0x7B4 JUMPI DUP2 SWAP1 POP JUMPDEST PUSH2 0x7C8 PUSH2 0x7C0 DUP6 PUSH2 0x688 JUMP JUMPDEST DUP4 ADD DUP3 PUSH2 0x768 JUMP JUMPDEST POP POP JUMPDEST POP POP POP JUMP JUMPDEST PUSH0 DUP3 DUP3 SHR SWAP1 POP SWAP3 SWAP2 POP POP JUMP JUMPDEST PUSH0 PUSH2 0x7EB PUSH0 NOT DUP5 PUSH1 0x8 MUL PUSH2 0x7D0 JUMP JUMPDEST NOT DUP1 DUP4 AND SWAP2 POP POP SWAP3 SWAP2 POP POP JUMP JUMPDEST PUSH0 PUSH2 0x803 DUP4 DUP4 PUSH2 0x7DC JUMP JUMPDEST SWAP2 POP DUP3 PUSH1 0x2 MUL DUP3 OR SWAP1 POP SWAP3 SWAP2 POP POP JUMP JUMPDEST PUSH2 0x81C DUP3 PUSH2 0x365 JUMP JUMPDEST PUSH8 0xFFFFFFFFFFFFFFFF DUP2 GT ISZERO PUSH2 0x835 JUMPI PUSH2 0x834 PUSH2 0x47D JUMP JUMPDEST JUMPDEST PUSH2 0x83F DUP3 SLOAD PUSH2 0x646 JUMP JUMPDEST PUSH2 0x84A DUP3 DUP3 DUP6 PUSH2 0x78A JUMP JUMPDEST PUSH0 PUSH1 0x20 SWAP1 POP PUSH1 0x1F DUP4 GT PUSH1 0x1 DUP2 EQ PUSH2 0x87B JUMPI PUSH0 DUP5 ISZERO PUSH2 0x869 JUMPI DUP3 DUP8 ADD MLOAD SWAP1 POP JUMPDEST PUSH2 0x873 DUP6 DUP3 PUSH2 0x7F8 JUMP JUMPDEST DUP7 SSTORE POP PUSH2 0x8DA JUMP JUMPDEST PUSH1 0x1F NOT DUP5 AND PUSH2 0x889 DUP7 PUSH2 0x676 JUMP JUMPDEST PUSH0 JUMPDEST DUP3 DUP2 LT ISZERO PUSH2 0x8B0 JUMPI DUP5 DUP10 ADD MLOAD DUP3 SSTORE PUSH1 0x1 DUP3 ADD SWAP2 POP PUSH1 0x20 DUP6 ADD SWAP5 POP PUSH1 0x20 DUP2 ADD SWAP1 POP PUSH2 0x88B JUMP JUMPDEST DUP7 DUP4 LT ISZERO PUSH2 0x8CD JUMPI DUP5 DUP10 ADD MLOAD PUSH2 0x8C9 PUSH1 0x1F DUP10 AND DUP3 PUSH2 0x7DC JUMP JUMPDEST DUP4 SSTORE POP JUMPDEST PUSH1 0x1 PUSH1 0x2 DUP9 MUL ADD DUP9 SSTORE POP POP POP JUMPDEST POP POP POP POP POP POP JUMP JUMPDEST PUSH0 DUP2 SWAP1 POP SWAP3 SWAP2 POP POP JUMP JUMPDEST PUSH0 DUP2 SLOAD PUSH2 0x8F8 DUP2 PUSH2 0x646 JUMP JUMPDEST PUSH2 0x902 DUP2 DUP7 PUSH2 0x8E2 JUMP JUMPDEST SWAP5 POP PUSH1 0x1 DUP3 AND PUSH0 DUP2 EQ PUSH2 0x91C JUMPI PUSH1 0x1 DUP2 EQ PUSH2 0x931 JUMPI PUSH2 0x963 JUMP JUMPDEST PUSH1 0xFF NOT DUP4 AND DUP7 MSTORE DUP2 ISZERO ISZERO DUP3 MUL DUP7 ADD SWAP4 POP PUSH2 0x963 JUMP JUMPDEST PUSH2 0x93A DUP6 PUSH2 0x676 JUMP JUMPDEST PUSH0 JUMPDEST DUP4 DUP2 LT ISZERO PUSH2 0x95B JUMPI DUP2 SLOAD DUP2 DUP10 ADD MSTORE PUSH1 0x1 DUP3 ADD SWAP2 POP PUSH1 0x20 DUP2 ADD SWAP1 POP PUSH2 0x93C JUMP JUMPDEST DUP4 DUP9 ADD SWAP6 POP POP POP JUMPDEST POP POP POP SWAP3 SWAP2 POP POP JUMP JUMPDEST PUSH0 DUP2 SWAP1 POP SWAP2 SWAP1 POP JUMP JUMPDEST PUSH2 0x986 PUSH2 0x981 DUP3 PUSH2 0x334 JUMP JUMPDEST PUSH2 0x96C JUMP JUMPDEST DUP3 MSTORE POP POP JUMP JUMPDEST PUSH0 PUSH2 0x997 DUP3 DUP8 PUSH2 0x8EC JUMP JUMPDEST SWAP2 POP PUSH2 0x9A3 DUP3 DUP7 PUSH2 0x8EC JUMP JUMPDEST SWAP2 POP PUSH2 0x9AF DUP3 DUP6 PUSH2 0x975 JUMP JUMPDEST PUSH1 0x20 DUP3 ADD SWAP2 POP PUSH2 0x9BF DUP3 DUP5 PUSH2 0x975 JUMP JUMPDEST PUSH1 0x20 DUP3 ADD SWAP2 POP DUP2 SWAP1 POP SWAP6 SWAP5 POP POP POP POP POP JUMP INVALID LOG2 PUSH5 0x6970667358 0x22 SLT KECCAK256 0xF8 DUP12 0xCF BYTE PUSH32 0xF8B6FD805BD3DD699A4CA15539375C63CF87FBC29C5BF004A80D5664736F6C63 NUMBER STOP ADDMOD AND STOP CALLER "
				},
				"gasEstimates": {
					"creation": {
						"codeDepositCost": "513400",
						"executionCost": "547",
						"totalCost": "513947"
					},
					"external": {
						"authorName()": "infinite",
						"copyrightID()": "infinite",
						"copyrightPrice()": "2492",
						"creationDate()": "2426",
						"musicTitle()": "infinite",
						"setAuthorName(string)": "infinite",
						"setCopyrightPrice(uint256)": "22560",
						"setCreationDate(uint256)": "22581",
						"setMusicTitle(string)": "infinite"
					}
				},
				"methodIdentifiers": {
					"authorName()": "6a64aabb",
					"copyrightID()": "ebc38f9c",
					"copyrightPrice()": "4c9555d8",
					"creationDate()": "05b34410",
					"musicTitle()": "318a0e29",
					"setAuthorName(string)": "69b5fb58",
					"setCopyrightPrice(uint256)": "3ccb3c8f",
					"setCreationDate(uint256)": "93c39393",
					"setMusicTitle(string)": "8131cf26"
				}
			},
			"storageLayout": {
				"storage": [
					{
						"astId": 3,
						"contract": "contracts/register_music_copyright.sol:RegisterMusicCopyright",
						"label": "musicTitle",
						"offset": 0,
						"slot": "0",
						"type": "t_string_storage"
					},
					{
						"astId": 5,
						"contract": "contracts/register_music_copyright.sol:RegisterMusicCopyright",
						"label": "authorName",
						"offset": 0,
						"slot": "1",
						"type": "t_string_storage"
					},
					{
						"astId": 7,
						"contract": "contracts/register_music_copyright.sol:RegisterMusicCopyright",
						"label": "creationDate",
						"offset": 0,
						"slot": "2",
						"type": "t_uint256"
					},
					{
						"astId": 9,
						"contract": "contracts/register_music_copyright.sol:RegisterMusicCopyright",
						"label": "copyrightPrice",
						"offset": 0,
						"slot": "3",
						"type": "t_uint256"
					}
				],
				"types": {
					"t_string_storage": {
						"encoding": "bytes",
						"label": "string",
						"numberOfBytes": "32"
					},
					"t_uint256": {
						"encoding": "inplace",
						"label": "uint256",
						"numberOfBytes": "32"
					}
				}
			},
			"userdoc": {
				"kind": "user",
				"methods": {},
				"version": 1
			}
		}
	}
}