{
	"contracts/music_marketplace.sol": {
		"MusicCatalogue": {
			"abi": [
				{
					"inputs": [],
					"stateMutability": "nonpayable",
					"type": "constructor"
				},
				{
					"inputs": [
						{
							"internalType": "bytes32",
							"name": "_musicId",
							"type": "bytes32"
						}
					],
					"name": "getCopyrightFromCatalogue",
					"outputs": [
						{
							"components": [
								{
									"internalType": "string",
									"name": "musicTitle",
									"type": "string"
								},
								{
									"internalType": "string",
									"name": "authorName",
									"type": "string"
								},
								{
									"internalType": "uint256",
									"name": "creationDate",
									"type": "uint256"
								},
								{
									"internalType": "uint256",
									"name": "copyrightPrice",
									"type": "uint256"
								}
							],
							"internalType": "struct MusicCatalogue.CopyrightDetails",
							"name": "",
							"type": "tuple"
						}
					],
					"stateMutability": "view",
					"type": "function"
				}
			],
			"devdoc": {
				"kind": "dev",
				"methods": {},
				"version": 1
			},
			"evm": {
				"assembly": "    /* \"contracts/music_marketplace.sol\":130:1785  contract MusicCatalogue {... */\n  mstore(0x40, 0x80)\n    /* \"contracts/music_marketplace.sol\":1223:1616  constructor() {... */\n  callvalue\n  dup1\n  iszero\n  tag_1\n  jumpi\n  0x00\n  dup1\n  revert\ntag_1:\n  pop\n    /* \"contracts/music_marketplace.sol\":1247:1270  address registerAddress */\n  0x00\n    /* \"contracts/music_marketplace.sol\":1273:1315  0xf8e81D47203A594245E36C48e151709F0C19fBe8 */\n  0xf8e81d47203a594245e36c48e151709f0c19fbe8\n    /* \"contracts/music_marketplace.sol\":1247:1315  address registerAddress = 0xf8e81D47203A594245E36C48e151709F0C19fBe8 */\n  swap1\n  pop\n    /* \"contracts/music_marketplace.sol\":1421:1436  registerAddress */\n  dup1\n    /* \"contracts/music_marketplace.sol\":1373:1395  registerMusicCopyright */\n  0x00\n  dup1\n    /* \"contracts/music_marketplace.sol\":1373:1437  registerMusicCopyright = RegisterMusicCopyright(registerAddress) */\n  0x0100\n  exp\n  dup2\n  sload\n  dup2\n  0xffffffffffffffffffffffffffffffffffffffff\n  mul\n  not\n  and\n  swap1\n  dup4\n  0xffffffffffffffffffffffffffffffffffffffff\n  and\n  mul\n  or\n  swap1\n  sstore\n  pop\n    /* \"contracts/music_marketplace.sol\":1448:1463  bytes32 musicId */\n  0x00\n    /* \"contracts/music_marketplace.sol\":1466:1488  registerMusicCopyright */\n  dup1\n  0x00\n  swap1\n  sload\n  swap1\n  0x0100\n  exp\n  swap1\n  div\n  0xffffffffffffffffffffffffffffffffffffffff\n  and\n    /* \"contracts/music_marketplace.sol\":1466:1500  registerMusicCopyright.copyrightID */\n  0xffffffffffffffffffffffffffffffffffffffff\n  and\n  0xebc38f9c\n    /* \"contracts/music_marketplace.sol\":1466:1502  registerMusicCopyright.copyrightID() */\n  mload(0x40)\n  dup2\n  0xffffffff\n  and\n  0xe0\n  shl\n  dup2\n  mstore\n  0x04\n  add\n  0x20\n  mload(0x40)\n  dup1\n  dup4\n  sub\n  dup2\n  dup7\n  gas\n  staticcall\n  iszero\n  dup1\n  iszero\n  tag_5\n  jumpi\n  returndatasize\n  0x00\n  dup1\n  returndatacopy\n  revert(0x00, returndatasize)\ntag_5:\n  pop\n  pop\n  pop\n  pop\n  mload(0x40)\n  returndatasize\n  not(0x1f)\n  0x1f\n  dup3\n  add\n  and\n  dup3\n  add\n  dup1\n  0x40\n  mstore\n  pop\n  dup2\n  add\n  swap1\n  tag_6\n  swap2\n  swap1\n  tag_7\n  jump\t// in\ntag_6:\n    /* \"contracts/music_marketplace.sol\":1448:1502  bytes32 musicId = registerMusicCopyright.copyrightID() */\n  swap1\n  pop\n    /* \"contracts/music_marketplace.sol\":1512:1543  CopyrightDetails memory details */\n  0x00\n    /* \"contracts/music_marketplace.sol\":1546:1558  getDetails() */\n  tag_8\n    /* \"contracts/music_marketplace.sol\":1546:1556  getDetails */\n  shl(0x20, tag_9)\n    /* \"contracts/music_marketplace.sol\":1546:1558  getDetails() */\n  0x20\n  shr\n  jump\t// in\ntag_8:\n    /* \"contracts/music_marketplace.sol\":1512:1558  CopyrightDetails memory details = getDetails() */\n  swap1\n  pop\n    /* \"contracts/music_marketplace.sol\":1602:1609  details */\n  dup1\n    /* \"contracts/music_marketplace.sol\":1568:1590  hashTableForCopyrights */\n  0x01\n    /* \"contracts/music_marketplace.sol\":1568:1599  hashTableForCopyrights[musicId] */\n  0x00\n    /* \"contracts/music_marketplace.sol\":1591:1598  musicId */\n  dup5\n    /* \"contracts/music_marketplace.sol\":1568:1599  hashTableForCopyrights[musicId] */\n  dup2\n  mstore\n  0x20\n  add\n  swap1\n  dup2\n  mstore\n  0x20\n  add\n  0x00\n  keccak256\n    /* \"contracts/music_marketplace.sol\":1568:1609  hashTableForCopyrights[musicId] = details */\n  0x00\n  dup3\n  add\n  mload\n  dup2\n  0x00\n  add\n  swap1\n  dup2\n  tag_10\n  swap2\n  swap1\n  tag_11\n  jump\t// in\ntag_10:\n  pop\n  0x20\n  dup3\n  add\n  mload\n  dup2\n  0x01\n  add\n  swap1\n  dup2\n  tag_12\n  swap2\n  swap1\n  tag_11\n  jump\t// in\ntag_12:\n  pop\n  0x40\n  dup3\n  add\n  mload\n  dup2\n  0x02\n  add\n  sstore\n  0x60\n  dup3\n  add\n  mload\n  dup2\n  0x03\n  add\n  sstore\n  swap1\n  pop\n  pop\n    /* \"contracts/music_marketplace.sol\":1237:1616  {... */\n  pop\n  pop\n  pop\n    /* \"contracts/music_marketplace.sol\":130:1785  contract MusicCatalogue {... */\n  jump(tag_13)\n    /* \"contracts/music_marketplace.sol\":643:1217  function getDetails() internal view returns (CopyrightDetails memory){... */\ntag_9:\n    /* \"contracts/music_marketplace.sol\":688:711  CopyrightDetails memory */\n  tag_14\n  tag_15\n  jump\t// in\ntag_14:\n    /* \"contracts/music_marketplace.sol\":722:747  string memory _musicTitle */\n  0x00\n    /* \"contracts/music_marketplace.sol\":750:772  registerMusicCopyright */\n  dup1\n  0x00\n  swap1\n  sload\n  swap1\n  0x0100\n  exp\n  swap1\n  div\n  0xffffffffffffffffffffffffffffffffffffffff\n  and\n    /* \"contracts/music_marketplace.sol\":750:783  registerMusicCopyright.musicTitle */\n  0xffffffffffffffffffffffffffffffffffffffff\n  and\n  0x318a0e29\n    /* \"contracts/music_marketplace.sol\":750:785  registerMusicCopyright.musicTitle() */\n  mload(0x40)\n  dup2\n  0xffffffff\n  and\n  0xe0\n  shl\n  dup2\n  mstore\n  0x04\n  add\n  0x00\n  mload(0x40)\n  dup1\n  dup4\n  sub\n  dup2\n  dup7\n  gas\n  staticcall\n  iszero\n  dup1\n  iszero\n  tag_18\n  jumpi\n  returndatasize\n  0x00\n  dup1\n  returndatacopy\n  revert(0x00, returndatasize)\ntag_18:\n  pop\n  pop\n  pop\n  pop\n  mload(0x40)\n  returndatasize\n  0x00\n  dup3\n  returndatacopy\n  returndatasize\n  not(0x1f)\n  0x1f\n  dup3\n  add\n  and\n  dup3\n  add\n  dup1\n  0x40\n  mstore\n  pop\n  dup2\n  add\n  swap1\n  tag_19\n  swap2\n  swap1\n  tag_20\n  jump\t// in\ntag_19:\n    /* \"contracts/music_marketplace.sol\":722:785  string memory _musicTitle = registerMusicCopyright.musicTitle() */\n  swap1\n  pop\n    /* \"contracts/music_marketplace.sol\":795:820  string memory _authorName */\n  0x00\n    /* \"contracts/music_marketplace.sol\":823:845  registerMusicCopyright */\n  dup1\n  0x00\n  swap1\n  sload\n  swap1\n  0x0100\n  exp\n  swap1\n  div\n  0xffffffffffffffffffffffffffffffffffffffff\n  and\n    /* \"contracts/music_marketplace.sol\":823:856  registerMusicCopyright.authorName */\n  0xffffffffffffffffffffffffffffffffffffffff\n  and\n  0x6a64aabb\n    /* \"contracts/music_marketplace.sol\":823:858  registerMusicCopyright.authorName() */\n  mload(0x40)\n  dup2\n  0xffffffff\n  and\n  0xe0\n  shl\n  dup2\n  mstore\n  0x04\n  add\n  0x00\n  mload(0x40)\n  dup1\n  dup4\n  sub\n  dup2\n  dup7\n  gas\n  staticcall\n  iszero\n  dup1\n  iszero\n  tag_22\n  jumpi\n  returndatasize\n  0x00\n  dup1\n  returndatacopy\n  revert(0x00, returndatasize)\ntag_22:\n  pop\n  pop\n  pop\n  pop\n  mload(0x40)\n  returndatasize\n  0x00\n  dup3\n  returndatacopy\n  returndatasize\n  not(0x1f)\n  0x1f\n  dup3\n  add\n  and\n  dup3\n  add\n  dup1\n  0x40\n  mstore\n  pop\n  dup2\n  add\n  swap1\n  tag_23\n  swap2\n  swap1\n  tag_20\n  jump\t// in\ntag_23:\n    /* \"contracts/music_marketplace.sol\":795:858  string memory _authorName = registerMusicCopyright.authorName() */\n  swap1\n  pop\n    /* \"contracts/music_marketplace.sol\":868:889  uint256 _creationDate */\n  0x00\n    /* \"contracts/music_marketplace.sol\":892:914  registerMusicCopyright */\n  dup1\n  0x00\n  swap1\n  sload\n  swap1\n  0x0100\n  exp\n  swap1\n  div\n  0xffffffffffffffffffffffffffffffffffffffff\n  and\n    /* \"contracts/music_marketplace.sol\":892:927  registerMusicCopyright.creationDate */\n  0xffffffffffffffffffffffffffffffffffffffff\n  and\n  0x05b34410\n    /* \"contracts/music_marketplace.sol\":892:929  registerMusicCopyright.creationDate() */\n  mload(0x40)\n  dup2\n  0xffffffff\n  and\n  0xe0\n  shl\n  dup2\n  mstore\n  0x04\n  add\n  0x20\n  mload(0x40)\n  dup1\n  dup4\n  sub\n  dup2\n  dup7\n  gas\n  staticcall\n  iszero\n  dup1\n  iszero\n  tag_25\n  jumpi\n  returndatasize\n  0x00\n  dup1\n  returndatacopy\n  revert(0x00, returndatasize)\ntag_25:\n  pop\n  pop\n  pop\n  pop\n  mload(0x40)\n  returndatasize\n  not(0x1f)\n  0x1f\n  dup3\n  add\n  and\n  dup3\n  add\n  dup1\n  0x40\n  mstore\n  pop\n  dup2\n  add\n  swap1\n  tag_26\n  swap2\n  swap1\n  tag_27\n  jump\t// in\ntag_26:\n    /* \"contracts/music_marketplace.sol\":868:929  uint256 _creationDate = registerMusicCopyright.creationDate() */\n  swap1\n  pop\n    /* \"contracts/music_marketplace.sol\":939:962  uint256 _copyrightPrice */\n  0x00\n    /* \"contracts/music_marketplace.sol\":965:987  registerMusicCopyright */\n  dup1\n  0x00\n  swap1\n  sload\n  swap1\n  0x0100\n  exp\n  swap1\n  div\n  0xffffffffffffffffffffffffffffffffffffffff\n  and\n    /* \"contracts/music_marketplace.sol\":965:1002  registerMusicCopyright.copyrightPrice */\n  0xffffffffffffffffffffffffffffffffffffffff\n  and\n  0x4c9555d8\n    /* \"contracts/music_marketplace.sol\":965:1004  registerMusicCopyright.copyrightPrice() */\n  mload(0x40)\n  dup2\n  0xffffffff\n  and\n  0xe0\n  shl\n  dup2\n  mstore\n  0x04\n  add\n  0x20\n  mload(0x40)\n  dup1\n  dup4\n  sub\n  dup2\n  dup7\n  gas\n  staticcall\n  iszero\n  dup1\n  iszero\n  tag_29\n  jumpi\n  returndatasize\n  0x00\n  dup1\n  returndatacopy\n  revert(0x00, returndatasize)\ntag_29:\n  pop\n  pop\n  pop\n  pop\n  mload(0x40)\n  returndatasize\n  not(0x1f)\n  0x1f\n  dup3\n  add\n  and\n  dup3\n  add\n  dup1\n  0x40\n  mstore\n  pop\n  dup2\n  add\n  swap1\n  tag_30\n  swap2\n  swap1\n  tag_27\n  jump\t// in\ntag_30:\n    /* \"contracts/music_marketplace.sol\":939:1004  uint256 _copyrightPrice = registerMusicCopyright.copyrightPrice() */\n  swap1\n  pop\n    /* \"contracts/music_marketplace.sol\":1022:1210  CopyrightDetails({... */\n  mload(0x40)\n  dup1\n  0x80\n  add\n  0x40\n  mstore\n  dup1\n    /* \"contracts/music_marketplace.sol\":1065:1076  _musicTitle */\n  dup6\n    /* \"contracts/music_marketplace.sol\":1022:1210  CopyrightDetails({... */\n  dup2\n  mstore\n  0x20\n  add\n    /* \"contracts/music_marketplace.sol\":1102:1113  _authorName */\n  dup5\n    /* \"contracts/music_marketplace.sol\":1022:1210  CopyrightDetails({... */\n  dup2\n  mstore\n  0x20\n  add\n    /* \"contracts/music_marketplace.sol\":1141:1154  _creationDate */\n  dup4\n    /* \"contracts/music_marketplace.sol\":1022:1210  CopyrightDetails({... */\n  dup2\n  mstore\n  0x20\n  add\n    /* \"contracts/music_marketplace.sol\":1184:1199  _copyrightPrice */\n  dup3\n    /* \"contracts/music_marketplace.sol\":1022:1210  CopyrightDetails({... */\n  dup2\n  mstore\n  pop\n    /* \"contracts/music_marketplace.sol\":1015:1210  return CopyrightDetails({... */\n  swap5\n  pop\n  pop\n  pop\n  pop\n  pop\n    /* \"contracts/music_marketplace.sol\":643:1217  function getDetails() internal view returns (CopyrightDetails memory){... */\n  swap1\n  jump\t// out\n    /* \"contracts/music_marketplace.sol\":130:1785  contract MusicCatalogue {... */\ntag_15:\n  mload(0x40)\n  dup1\n  0x80\n  add\n  0x40\n  mstore\n  dup1\n  0x60\n  dup2\n  mstore\n  0x20\n  add\n  0x60\n  dup2\n  mstore\n  0x20\n  add\n  0x00\n  dup2\n  mstore\n  0x20\n  add\n  0x00\n  dup2\n  mstore\n  pop\n  swap1\n  jump\t// out\n    /* \"#utility.yul\":7:82   */\ntag_31:\n    /* \"#utility.yul\":40:46   */\n  0x00\n    /* \"#utility.yul\":73:75   */\n  0x40\n    /* \"#utility.yul\":67:76   */\n  mload\n    /* \"#utility.yul\":57:76   */\n  swap1\n  pop\n    /* \"#utility.yul\":7:82   */\n  swap1\n  jump\t// out\n    /* \"#utility.yul\":88:205   */\ntag_32:\n    /* \"#utility.yul\":197:198   */\n  0x00\n    /* \"#utility.yul\":194:195   */\n  dup1\n    /* \"#utility.yul\":187:199   */\n  revert\n    /* \"#utility.yul\":211:328   */\ntag_33:\n    /* \"#utility.yul\":320:321   */\n  0x00\n    /* \"#utility.yul\":317:318   */\n  dup1\n    /* \"#utility.yul\":310:322   */\n  revert\n    /* \"#utility.yul\":334:411   */\ntag_34:\n    /* \"#utility.yul\":371:378   */\n  0x00\n    /* \"#utility.yul\":400:405   */\n  dup2\n    /* \"#utility.yul\":389:405   */\n  swap1\n  pop\n    /* \"#utility.yul\":334:411   */\n  swap2\n  swap1\n  pop\n  jump\t// out\n    /* \"#utility.yul\":417:539   */\ntag_35:\n    /* \"#utility.yul\":490:514   */\n  tag_74\n    /* \"#utility.yul\":508:513   */\n  dup2\n    /* \"#utility.yul\":490:514   */\n  tag_34\n  jump\t// in\ntag_74:\n    /* \"#utility.yul\":483:488   */\n  dup2\n    /* \"#utility.yul\":480:515   */\n  eq\n    /* \"#utility.yul\":470:533   */\n  tag_75\n  jumpi\n    /* \"#utility.yul\":529:530   */\n  0x00\n    /* \"#utility.yul\":526:527   */\n  dup1\n    /* \"#utility.yul\":519:531   */\n  revert\n    /* \"#utility.yul\":470:533   */\ntag_75:\n    /* \"#utility.yul\":417:539   */\n  pop\n  jump\t// out\n    /* \"#utility.yul\":545:688   */\ntag_36:\n    /* \"#utility.yul\":602:607   */\n  0x00\n    /* \"#utility.yul\":633:639   */\n  dup2\n    /* \"#utility.yul\":627:640   */\n  mload\n    /* \"#utility.yul\":618:640   */\n  swap1\n  pop\n    /* \"#utility.yul\":649:682   */\n  tag_77\n    /* \"#utility.yul\":676:681   */\n  dup2\n    /* \"#utility.yul\":649:682   */\n  tag_35\n  jump\t// in\ntag_77:\n    /* \"#utility.yul\":545:688   */\n  swap3\n  swap2\n  pop\n  pop\n  jump\t// out\n    /* \"#utility.yul\":694:1045   */\ntag_7:\n    /* \"#utility.yul\":764:770   */\n  0x00\n    /* \"#utility.yul\":813:815   */\n  0x20\n    /* \"#utility.yul\":801:810   */\n  dup3\n    /* \"#utility.yul\":792:799   */\n  dup5\n    /* \"#utility.yul\":788:811   */\n  sub\n    /* \"#utility.yul\":784:816   */\n  slt\n    /* \"#utility.yul\":781:900   */\n  iszero\n  tag_79\n  jumpi\n    /* \"#utility.yul\":819:898   */\n  tag_80\n  tag_32\n  jump\t// in\ntag_80:\n    /* \"#utility.yul\":781:900   */\ntag_79:\n    /* \"#utility.yul\":939:940   */\n  0x00\n    /* \"#utility.yul\":964:1028   */\n  tag_81\n    /* \"#utility.yul\":1020:1027   */\n  dup5\n    /* \"#utility.yul\":1011:1017   */\n  dup3\n    /* \"#utility.yul\":1000:1009   */\n  dup6\n    /* \"#utility.yul\":996:1018   */\n  add\n    /* \"#utility.yul\":964:1028   */\n  tag_36\n  jump\t// in\ntag_81:\n    /* \"#utility.yul\":954:1028   */\n  swap2\n  pop\n    /* \"#utility.yul\":910:1038   */\n  pop\n    /* \"#utility.yul\":694:1045   */\n  swap3\n  swap2\n  pop\n  pop\n  jump\t// out\n    /* \"#utility.yul\":1051:1150   */\ntag_37:\n    /* \"#utility.yul\":1103:1109   */\n  0x00\n    /* \"#utility.yul\":1137:1142   */\n  dup2\n    /* \"#utility.yul\":1131:1143   */\n  mload\n    /* \"#utility.yul\":1121:1143   */\n  swap1\n  pop\n    /* \"#utility.yul\":1051:1150   */\n  swap2\n  swap1\n  pop\n  jump\t// out\n    /* \"#utility.yul\":1156:1336   */\ntag_38:\n    /* \"#utility.yul\":1204:1281   */\n  0x4e487b7100000000000000000000000000000000000000000000000000000000\n    /* \"#utility.yul\":1201:1202   */\n  0x00\n    /* \"#utility.yul\":1194:1282   */\n  mstore\n    /* \"#utility.yul\":1301:1305   */\n  0x41\n    /* \"#utility.yul\":1298:1299   */\n  0x04\n    /* \"#utility.yul\":1291:1306   */\n  mstore\n    /* \"#utility.yul\":1325:1329   */\n  0x24\n    /* \"#utility.yul\":1322:1323   */\n  0x00\n    /* \"#utility.yul\":1315:1330   */\n  revert\n    /* \"#utility.yul\":1342:1522   */\ntag_39:\n    /* \"#utility.yul\":1390:1467   */\n  0x4e487b7100000000000000000000000000000000000000000000000000000000\n    /* \"#utility.yul\":1387:1388   */\n  0x00\n    /* \"#utility.yul\":1380:1468   */\n  mstore\n    /* \"#utility.yul\":1487:1491   */\n  0x22\n    /* \"#utility.yul\":1484:1485   */\n  0x04\n    /* \"#utility.yul\":1477:1492   */\n  mstore\n    /* \"#utility.yul\":1511:1515   */\n  0x24\n    /* \"#utility.yul\":1508:1509   */\n  0x00\n    /* \"#utility.yul\":1501:1516   */\n  revert\n    /* \"#utility.yul\":1528:1848   */\ntag_40:\n    /* \"#utility.yul\":1572:1578   */\n  0x00\n    /* \"#utility.yul\":1609:1610   */\n  0x02\n    /* \"#utility.yul\":1603:1607   */\n  dup3\n    /* \"#utility.yul\":1599:1611   */\n  div\n    /* \"#utility.yul\":1589:1611   */\n  swap1\n  pop\n    /* \"#utility.yul\":1656:1657   */\n  0x01\n    /* \"#utility.yul\":1650:1654   */\n  dup3\n    /* \"#utility.yul\":1646:1658   */\n  and\n    /* \"#utility.yul\":1677:1695   */\n  dup1\n    /* \"#utility.yul\":1667:1748   */\n  tag_86\n  jumpi\n    /* \"#utility.yul\":1733:1737   */\n  0x7f\n    /* \"#utility.yul\":1725:1731   */\n  dup3\n    /* \"#utility.yul\":1721:1738   */\n  and\n    /* \"#utility.yul\":1711:1738   */\n  swap2\n  pop\n    /* \"#utility.yul\":1667:1748   */\ntag_86:\n    /* \"#utility.yul\":1795:1797   */\n  0x20\n    /* \"#utility.yul\":1787:1793   */\n  dup3\n    /* \"#utility.yul\":1784:1798   */\n  lt\n    /* \"#utility.yul\":1764:1782   */\n  dup2\n    /* \"#utility.yul\":1761:1799   */\n  sub\n    /* \"#utility.yul\":1758:1842   */\n  tag_87\n  jumpi\n    /* \"#utility.yul\":1814:1832   */\n  tag_88\n  tag_39\n  jump\t// in\ntag_88:\n    /* \"#utility.yul\":1758:1842   */\ntag_87:\n    /* \"#utility.yul\":1579:1848   */\n  pop\n    /* \"#utility.yul\":1528:1848   */\n  swap2\n  swap1\n  pop\n  jump\t// out\n    /* \"#utility.yul\":1854:1995   */\ntag_41:\n    /* \"#utility.yul\":1903:1907   */\n  0x00\n    /* \"#utility.yul\":1926:1929   */\n  dup2\n    /* \"#utility.yul\":1918:1929   */\n  swap1\n  pop\n    /* \"#utility.yul\":1949:1952   */\n  dup2\n    /* \"#utility.yul\":1946:1947   */\n  0x00\n    /* \"#utility.yul\":1939:1953   */\n  mstore\n    /* \"#utility.yul\":1983:1987   */\n  0x20\n    /* \"#utility.yul\":1980:1981   */\n  0x00\n    /* \"#utility.yul\":1970:1988   */\n  keccak256\n    /* \"#utility.yul\":1962:1988   */\n  swap1\n  pop\n    /* \"#utility.yul\":1854:1995   */\n  swap2\n  swap1\n  pop\n  jump\t// out\n    /* \"#utility.yul\":2001:2094   */\ntag_42:\n    /* \"#utility.yul\":2038:2044   */\n  0x00\n    /* \"#utility.yul\":2085:2087   */\n  0x20\n    /* \"#utility.yul\":2080:2082   */\n  0x1f\n    /* \"#utility.yul\":2073:2078   */\n  dup4\n    /* \"#utility.yul\":2069:2083   */\n  add\n    /* \"#utility.yul\":2065:2088   */\n  div\n    /* \"#utility.yul\":2055:2088   */\n  swap1\n  pop\n    /* \"#utility.yul\":2001:2094   */\n  swap2\n  swap1\n  pop\n  jump\t// out\n    /* \"#utility.yul\":2100:2207   */\ntag_43:\n    /* \"#utility.yul\":2144:2152   */\n  0x00\n    /* \"#utility.yul\":2194:2199   */\n  dup3\n    /* \"#utility.yul\":2188:2192   */\n  dup3\n    /* \"#utility.yul\":2184:2200   */\n  shl\n    /* \"#utility.yul\":2163:2200   */\n  swap1\n  pop\n    /* \"#utility.yul\":2100:2207   */\n  swap3\n  swap2\n  pop\n  pop\n  jump\t// out\n    /* \"#utility.yul\":2213:2606   */\ntag_44:\n    /* \"#utility.yul\":2282:2288   */\n  0x00\n    /* \"#utility.yul\":2332:2333   */\n  0x08\n    /* \"#utility.yul\":2320:2330   */\n  dup4\n    /* \"#utility.yul\":2316:2334   */\n  mul\n    /* \"#utility.yul\":2355:2452   */\n  tag_93\n    /* \"#utility.yul\":2385:2451   */\n  0xffffffffffffffffffffffffffffffffffffffffffffffffffffffffffffffff\n    /* \"#utility.yul\":2374:2383   */\n  dup3\n    /* \"#utility.yul\":2355:2452   */\n  tag_43\n  jump\t// in\ntag_93:\n    /* \"#utility.yul\":2473:2512   */\n  tag_94\n    /* \"#utility.yul\":2503:2511   */\n  dup7\n    /* \"#utility.yul\":2492:2501   */\n  dup4\n    /* \"#utility.yul\":2473:2512   */\n  tag_43\n  jump\t// in\ntag_94:\n    /* \"#utility.yul\":2461:2512   */\n  swap6\n  pop\n    /* \"#utility.yul\":2545:2549   */\n  dup1\n    /* \"#utility.yul\":2541:2550   */\n  not\n    /* \"#utility.yul\":2534:2539   */\n  dup5\n    /* \"#utility.yul\":2530:2551   */\n  and\n    /* \"#utility.yul\":2521:2551   */\n  swap4\n  pop\n    /* \"#utility.yul\":2594:2598   */\n  dup1\n    /* \"#utility.yul\":2584:2592   */\n  dup7\n    /* \"#utility.yul\":2580:2599   */\n  and\n    /* \"#utility.yul\":2573:2578   */\n  dup5\n    /* \"#utility.yul\":2570:2600   */\n  or\n    /* \"#utility.yul\":2560:2600   */\n  swap3\n  pop\n    /* \"#utility.yul\":2289:2606   */\n  pop\n  pop\n    /* \"#utility.yul\":2213:2606   */\n  swap4\n  swap3\n  pop\n  pop\n  pop\n  jump\t// out\n    /* \"#utility.yul\":2612:2689   */\ntag_45:\n    /* \"#utility.yul\":2649:2656   */\n  0x00\n    /* \"#utility.yul\":2678:2683   */\n  dup2\n    /* \"#utility.yul\":2667:2683   */\n  swap1\n  pop\n    /* \"#utility.yul\":2612:2689   */\n  swap2\n  swap1\n  pop\n  jump\t// out\n    /* \"#utility.yul\":2695:2755   */\ntag_46:\n    /* \"#utility.yul\":2723:2726   */\n  0x00\n    /* \"#utility.yul\":2744:2749   */\n  dup2\n    /* \"#utility.yul\":2737:2749   */\n  swap1\n  pop\n    /* \"#utility.yul\":2695:2755   */\n  swap2\n  swap1\n  pop\n  jump\t// out\n    /* \"#utility.yul\":2761:2903   */\ntag_47:\n    /* \"#utility.yul\":2811:2820   */\n  0x00\n    /* \"#utility.yul\":2844:2897   */\n  tag_98\n    /* \"#utility.yul\":2862:2896   */\n  tag_99\n    /* \"#utility.yul\":2871:2895   */\n  tag_100\n    /* \"#utility.yul\":2889:2894   */\n  dup5\n    /* \"#utility.yul\":2871:2895   */\n  tag_45\n  jump\t// in\ntag_100:\n    /* \"#utility.yul\":2862:2896   */\n  tag_46\n  jump\t// in\ntag_99:\n    /* \"#utility.yul\":2844:2897   */\n  tag_45\n  jump\t// in\ntag_98:\n    /* \"#utility.yul\":2831:2897   */\n  swap1\n  pop\n    /* \"#utility.yul\":2761:2903   */\n  swap2\n  swap1\n  pop\n  jump\t// out\n    /* \"#utility.yul\":2909:2984   */\ntag_48:\n    /* \"#utility.yul\":2952:2955   */\n  0x00\n    /* \"#utility.yul\":2973:2978   */\n  dup2\n    /* \"#utility.yul\":2966:2978   */\n  swap1\n  pop\n    /* \"#utility.yul\":2909:2984   */\n  swap2\n  swap1\n  pop\n  jump\t// out\n    /* \"#utility.yul\":2990:3259   */\ntag_49:\n    /* \"#utility.yul\":3100:3139   */\n  tag_103\n    /* \"#utility.yul\":3131:3138   */\n  dup4\n    /* \"#utility.yul\":3100:3139   */\n  tag_47\n  jump\t// in\ntag_103:\n    /* \"#utility.yul\":3161:3252   */\n  tag_104\n    /* \"#utility.yul\":3210:3251   */\n  tag_105\n    /* \"#utility.yul\":3234:3250   */\n  dup3\n    /* \"#utility.yul\":3210:3251   */\n  tag_48\n  jump\t// in\ntag_105:\n    /* \"#utility.yul\":3202:3208   */\n  dup5\n    /* \"#utility.yul\":3195:3199   */\n  dup5\n    /* \"#utility.yul\":3189:3200   */\n  sload\n    /* \"#utility.yul\":3161:3252   */\n  tag_44\n  jump\t// in\ntag_104:\n    /* \"#utility.yul\":3155:3159   */\n  dup3\n    /* \"#utility.yul\":3148:3253   */\n  sstore\n    /* \"#utility.yul\":3066:3259   */\n  pop\n    /* \"#utility.yul\":2990:3259   */\n  pop\n  pop\n  pop\n  jump\t// out\n    /* \"#utility.yul\":3265:3338   */\ntag_50:\n    /* \"#utility.yul\":3310:3313   */\n  0x00\n    /* \"#utility.yul\":3265:3338   */\n  swap1\n  jump\t// out\n    /* \"#utility.yul\":3344:3533   */\ntag_51:\n    /* \"#utility.yul\":3421:3453   */\n  tag_108\n  tag_50\n  jump\t// in\ntag_108:\n    /* \"#utility.yul\":3462:3527   */\n  tag_109\n    /* \"#utility.yul\":3520:3526   */\n  dup2\n    /* \"#utility.yul\":3512:3518   */\n  dup5\n    /* \"#utility.yul\":3506:3510   */\n  dup5\n    /* \"#utility.yul\":3462:3527   */\n  tag_49\n  jump\t// in\ntag_109:\n    /* \"#utility.yul\":3397:3533   */\n  pop\n    /* \"#utility.yul\":3344:3533   */\n  pop\n  pop\n  jump\t// out\n    /* \"#utility.yul\":3539:3725   */\ntag_52:\n    /* \"#utility.yul\":3599:3719   */\ntag_111:\n    /* \"#utility.yul\":3616:3619   */\n  dup2\n    /* \"#utility.yul\":3609:3614   */\n  dup2\n    /* \"#utility.yul\":3606:3620   */\n  lt\n    /* \"#utility.yul\":3599:3719   */\n  iszero\n  tag_113\n  jumpi\n    /* \"#utility.yul\":3670:3709   */\n  tag_114\n    /* \"#utility.yul\":3707:3708   */\n  0x00\n    /* \"#utility.yul\":3700:3705   */\n  dup3\n    /* \"#utility.yul\":3670:3709   */\n  tag_51\n  jump\t// in\ntag_114:\n    /* \"#utility.yul\":3643:3644   */\n  0x01\n    /* \"#utility.yul\":3636:3641   */\n  dup2\n    /* \"#utility.yul\":3632:3645   */\n  add\n    /* \"#utility.yul\":3623:3645   */\n  swap1\n  pop\n    /* \"#utility.yul\":3599:3719   */\n  jump(tag_111)\ntag_113:\n    /* \"#utility.yul\":3539:3725   */\n  pop\n  pop\n  jump\t// out\n    /* \"#utility.yul\":3731:4274   */\ntag_53:\n    /* \"#utility.yul\":3832:3834   */\n  0x1f\n    /* \"#utility.yul\":3827:3830   */\n  dup3\n    /* \"#utility.yul\":3824:3835   */\n  gt\n    /* \"#utility.yul\":3821:4267   */\n  iszero\n  tag_116\n  jumpi\n    /* \"#utility.yul\":3866:3904   */\n  tag_117\n    /* \"#utility.yul\":3898:3903   */\n  dup2\n    /* \"#utility.yul\":3866:3904   */\n  tag_41\n  jump\t// in\ntag_117:\n    /* \"#utility.yul\":3950:3979   */\n  tag_118\n    /* \"#utility.yul\":3968:3978   */\n  dup5\n    /* \"#utility.yul\":3950:3979   */\n  tag_42\n  jump\t// in\ntag_118:\n    /* \"#utility.yul\":3940:3948   */\n  dup2\n    /* \"#utility.yul\":3936:3980   */\n  add\n    /* \"#utility.yul\":4133:4135   */\n  0x20\n    /* \"#utility.yul\":4121:4131   */\n  dup6\n    /* \"#utility.yul\":4118:4136   */\n  lt\n    /* \"#utility.yul\":4115:4164   */\n  iszero\n  tag_119\n  jumpi\n    /* \"#utility.yul\":4154:4162   */\n  dup2\n    /* \"#utility.yul\":4139:4162   */\n  swap1\n  pop\n    /* \"#utility.yul\":4115:4164   */\ntag_119:\n    /* \"#utility.yul\":4177:4257   */\n  tag_120\n    /* \"#utility.yul\":4233:4255   */\n  tag_121\n    /* \"#utility.yul\":4251:4254   */\n  dup6\n    /* \"#utility.yul\":4233:4255   */\n  tag_42\n  jump\t// in\ntag_121:\n    /* \"#utility.yul\":4223:4231   */\n  dup4\n    /* \"#utility.yul\":4219:4256   */\n  add\n    /* \"#utility.yul\":4206:4217   */\n  dup3\n    /* \"#utility.yul\":4177:4257   */\n  tag_52\n  jump\t// in\ntag_120:\n    /* \"#utility.yul\":3836:4267   */\n  pop\n  pop\n    /* \"#utility.yul\":3821:4267   */\ntag_116:\n    /* \"#utility.yul\":3731:4274   */\n  pop\n  pop\n  pop\n  jump\t// out\n    /* \"#utility.yul\":4280:4397   */\ntag_54:\n    /* \"#utility.yul\":4334:4342   */\n  0x00\n    /* \"#utility.yul\":4384:4389   */\n  dup3\n    /* \"#utility.yul\":4378:4382   */\n  dup3\n    /* \"#utility.yul\":4374:4390   */\n  shr\n    /* \"#utility.yul\":4353:4390   */\n  swap1\n  pop\n    /* \"#utility.yul\":4280:4397   */\n  swap3\n  swap2\n  pop\n  pop\n  jump\t// out\n    /* \"#utility.yul\":4403:4572   */\ntag_55:\n    /* \"#utility.yul\":4447:4453   */\n  0x00\n    /* \"#utility.yul\":4480:4531   */\n  tag_124\n    /* \"#utility.yul\":4528:4529   */\n  0x00\n    /* \"#utility.yul\":4524:4530   */\n  not\n    /* \"#utility.yul\":4516:4521   */\n  dup5\n    /* \"#utility.yul\":4513:4514   */\n  0x08\n    /* \"#utility.yul\":4509:4522   */\n  mul\n    /* \"#utility.yul\":4480:4531   */\n  tag_54\n  jump\t// in\ntag_124:\n    /* \"#utility.yul\":4476:4532   */\n  not\n    /* \"#utility.yul\":4561:4565   */\n  dup1\n    /* \"#utility.yul\":4555:4559   */\n  dup4\n    /* \"#utility.yul\":4551:4566   */\n  and\n    /* \"#utility.yul\":4541:4566   */\n  swap2\n  pop\n    /* \"#utility.yul\":4454:4572   */\n  pop\n    /* \"#utility.yul\":4403:4572   */\n  swap3\n  swap2\n  pop\n  pop\n  jump\t// out\n    /* \"#utility.yul\":4577:4872   */\ntag_56:\n    /* \"#utility.yul\":4653:4657   */\n  0x00\n    /* \"#utility.yul\":4799:4828   */\n  tag_126\n    /* \"#utility.yul\":4824:4827   */\n  dup4\n    /* \"#utility.yul\":4818:4822   */\n  dup4\n    /* \"#utility.yul\":4799:4828   */\n  tag_55\n  jump\t// in\ntag_126:\n    /* \"#utility.yul\":4791:4828   */\n  swap2\n  pop\n    /* \"#utility.yul\":4861:4864   */\n  dup3\n    /* \"#utility.yul\":4858:4859   */\n  0x02\n    /* \"#utility.yul\":4854:4865   */\n  mul\n    /* \"#utility.yul\":4848:4852   */\n  dup3\n    /* \"#utility.yul\":4845:4866   */\n  or\n    /* \"#utility.yul\":4837:4866   */\n  swap1\n  pop\n    /* \"#utility.yul\":4577:4872   */\n  swap3\n  swap2\n  pop\n  pop\n  jump\t// out\n    /* \"#utility.yul\":4877:6272   */\ntag_11:\n    /* \"#utility.yul\":4994:5031   */\n  tag_128\n    /* \"#utility.yul\":5027:5030   */\n  dup3\n    /* \"#utility.yul\":4994:5031   */\n  tag_37\n  jump\t// in\ntag_128:\n    /* \"#utility.yul\":5096:5114   */\n  0xffffffffffffffff\n    /* \"#utility.yul\":5088:5094   */\n  dup2\n    /* \"#utility.yul\":5085:5115   */\n  gt\n    /* \"#utility.yul\":5082:5138   */\n  iszero\n  tag_129\n  jumpi\n    /* \"#utility.yul\":5118:5136   */\n  tag_130\n  tag_38\n  jump\t// in\ntag_130:\n    /* \"#utility.yul\":5082:5138   */\ntag_129:\n    /* \"#utility.yul\":5162:5200   */\n  tag_131\n    /* \"#utility.yul\":5194:5198   */\n  dup3\n    /* \"#utility.yul\":5188:5199   */\n  sload\n    /* \"#utility.yul\":5162:5200   */\n  tag_40\n  jump\t// in\ntag_131:\n    /* \"#utility.yul\":5247:5314   */\n  tag_132\n    /* \"#utility.yul\":5307:5313   */\n  dup3\n    /* \"#utility.yul\":5299:5305   */\n  dup3\n    /* \"#utility.yul\":5293:5297   */\n  dup6\n    /* \"#utility.yul\":5247:5314   */\n  tag_53\n  jump\t// in\ntag_132:\n    /* \"#utility.yul\":5341:5342   */\n  0x00\n    /* \"#utility.yul\":5365:5369   */\n  0x20\n    /* \"#utility.yul\":5352:5369   */\n  swap1\n  pop\n    /* \"#utility.yul\":5397:5399   */\n  0x1f\n    /* \"#utility.yul\":5389:5395   */\n  dup4\n    /* \"#utility.yul\":5386:5400   */\n  gt\n    /* \"#utility.yul\":5414:5415   */\n  0x01\n    /* \"#utility.yul\":5409:6027   */\n  dup2\n  eq\n  tag_134\n  jumpi\n    /* \"#utility.yul\":6071:6072   */\n  0x00\n    /* \"#utility.yul\":6088:6094   */\n  dup5\n    /* \"#utility.yul\":6085:6162   */\n  iszero\n  tag_135\n  jumpi\n    /* \"#utility.yul\":6137:6146   */\n  dup3\n    /* \"#utility.yul\":6132:6135   */\n  dup8\n    /* \"#utility.yul\":6128:6147   */\n  add\n    /* \"#utility.yul\":6122:6148   */\n  mload\n    /* \"#utility.yul\":6113:6148   */\n  swap1\n  pop\n    /* \"#utility.yul\":6085:6162   */\ntag_135:\n    /* \"#utility.yul\":6188:6255   */\n  tag_136\n    /* \"#utility.yul\":6248:6254   */\n  dup6\n    /* \"#utility.yul\":6241:6246   */\n  dup3\n    /* \"#utility.yul\":6188:6255   */\n  tag_56\n  jump\t// in\ntag_136:\n    /* \"#utility.yul\":6182:6186   */\n  dup7\n    /* \"#utility.yul\":6175:6256   */\n  sstore\n    /* \"#utility.yul\":6044:6266   */\n  pop\n    /* \"#utility.yul\":5379:6266   */\n  jump(tag_133)\n    /* \"#utility.yul\":5409:6027   */\ntag_134:\n    /* \"#utility.yul\":5461:5465   */\n  0x1f\n    /* \"#utility.yul\":5457:5466   */\n  not\n    /* \"#utility.yul\":5449:5455   */\n  dup5\n    /* \"#utility.yul\":5445:5467   */\n  and\n    /* \"#utility.yul\":5495:5532   */\n  tag_137\n    /* \"#utility.yul\":5527:5531   */\n  dup7\n    /* \"#utility.yul\":5495:5532   */\n  tag_41\n  jump\t// in\ntag_137:\n    /* \"#utility.yul\":5554:5555   */\n  0x00\n    /* \"#utility.yul\":5568:5776   */\ntag_138:\n    /* \"#utility.yul\":5582:5589   */\n  dup3\n    /* \"#utility.yul\":5579:5580   */\n  dup2\n    /* \"#utility.yul\":5576:5590   */\n  lt\n    /* \"#utility.yul\":5568:5776   */\n  iszero\n  tag_140\n  jumpi\n    /* \"#utility.yul\":5661:5670   */\n  dup5\n    /* \"#utility.yul\":5656:5659   */\n  dup10\n    /* \"#utility.yul\":5652:5671   */\n  add\n    /* \"#utility.yul\":5646:5672   */\n  mload\n    /* \"#utility.yul\":5638:5644   */\n  dup3\n    /* \"#utility.yul\":5631:5673   */\n  sstore\n    /* \"#utility.yul\":5712:5713   */\n  0x01\n    /* \"#utility.yul\":5704:5710   */\n  dup3\n    /* \"#utility.yul\":5700:5714   */\n  add\n    /* \"#utility.yul\":5690:5714   */\n  swap2\n  pop\n    /* \"#utility.yul\":5759:5761   */\n  0x20\n    /* \"#utility.yul\":5748:5757   */\n  dup6\n    /* \"#utility.yul\":5744:5762   */\n  add\n    /* \"#utility.yul\":5731:5762   */\n  swap5\n  pop\n    /* \"#utility.yul\":5605:5609   */\n  0x20\n    /* \"#utility.yul\":5602:5603   */\n  dup2\n    /* \"#utility.yul\":5598:5610   */\n  add\n    /* \"#utility.yul\":5593:5610   */\n  swap1\n  pop\n    /* \"#utility.yul\":5568:5776   */\n  jump(tag_138)\ntag_140:\n    /* \"#utility.yul\":5804:5810   */\n  dup7\n    /* \"#utility.yul\":5795:5802   */\n  dup4\n    /* \"#utility.yul\":5792:5811   */\n  lt\n    /* \"#utility.yul\":5789:5968   */\n  iszero\n  tag_141\n  jumpi\n    /* \"#utility.yul\":5862:5871   */\n  dup5\n    /* \"#utility.yul\":5857:5860   */\n  dup10\n    /* \"#utility.yul\":5853:5872   */\n  add\n    /* \"#utility.yul\":5847:5873   */\n  mload\n    /* \"#utility.yul\":5905:5953   */\n  tag_142\n    /* \"#utility.yul\":5947:5951   */\n  0x1f\n    /* \"#utility.yul\":5939:5945   */\n  dup10\n    /* \"#utility.yul\":5935:5952   */\n  and\n    /* \"#utility.yul\":5924:5933   */\n  dup3\n    /* \"#utility.yul\":5905:5953   */\n  tag_55\n  jump\t// in\ntag_142:\n    /* \"#utility.yul\":5897:5903   */\n  dup4\n    /* \"#utility.yul\":5890:5954   */\n  sstore\n    /* \"#utility.yul\":5812:5968   */\n  pop\n    /* \"#utility.yul\":5789:5968   */\ntag_141:\n    /* \"#utility.yul\":6014:6015   */\n  0x01\n    /* \"#utility.yul\":6010:6011   */\n  0x02\n    /* \"#utility.yul\":6002:6008   */\n  dup9\n    /* \"#utility.yul\":5998:6012   */\n  mul\n    /* \"#utility.yul\":5994:6016   */\n  add\n    /* \"#utility.yul\":5988:5992   */\n  dup9\n    /* \"#utility.yul\":5981:6017   */\n  sstore\n    /* \"#utility.yul\":5416:6027   */\n  pop\n  pop\n  pop\n    /* \"#utility.yul\":5379:6266   */\ntag_133:\n  pop\n    /* \"#utility.yul\":4969:6272   */\n  pop\n  pop\n  pop\n    /* \"#utility.yul\":4877:6272   */\n  pop\n  pop\n  jump\t// out\n    /* \"#utility.yul\":6278:6395   */\ntag_57:\n    /* \"#utility.yul\":6387:6388   */\n  0x00\n    /* \"#utility.yul\":6384:6385   */\n  dup1\n    /* \"#utility.yul\":6377:6389   */\n  revert\n    /* \"#utility.yul\":6401:6518   */\ntag_58:\n    /* \"#utility.yul\":6510:6511   */\n  0x00\n    /* \"#utility.yul\":6507:6508   */\n  dup1\n    /* \"#utility.yul\":6500:6512   */\n  revert\n    /* \"#utility.yul\":6524:6626   */\ntag_59:\n    /* \"#utility.yul\":6565:6571   */\n  0x00\n    /* \"#utility.yul\":6616:6618   */\n  0x1f\n    /* \"#utility.yul\":6612:6619   */\n  not\n    /* \"#utility.yul\":6607:6609   */\n  0x1f\n    /* \"#utility.yul\":6600:6605   */\n  dup4\n    /* \"#utility.yul\":6596:6610   */\n  add\n    /* \"#utility.yul\":6592:6620   */\n  and\n    /* \"#utility.yul\":6582:6620   */\n  swap1\n  pop\n    /* \"#utility.yul\":6524:6626   */\n  swap2\n  swap1\n  pop\n  jump\t// out\n    /* \"#utility.yul\":6632:6913   */\ntag_60:\n    /* \"#utility.yul\":6715:6742   */\n  tag_147\n    /* \"#utility.yul\":6737:6741   */\n  dup3\n    /* \"#utility.yul\":6715:6742   */\n  tag_59\n  jump\t// in\ntag_147:\n    /* \"#utility.yul\":6707:6713   */\n  dup2\n    /* \"#utility.yul\":6703:6743   */\n  add\n    /* \"#utility.yul\":6845:6851   */\n  dup2\n    /* \"#utility.yul\":6833:6843   */\n  dup2\n    /* \"#utility.yul\":6830:6852   */\n  lt\n    /* \"#utility.yul\":6809:6827   */\n  0xffffffffffffffff\n    /* \"#utility.yul\":6797:6807   */\n  dup3\n    /* \"#utility.yul\":6794:6828   */\n  gt\n    /* \"#utility.yul\":6791:6853   */\n  or\n    /* \"#utility.yul\":6788:6876   */\n  iszero\n  tag_148\n  jumpi\n    /* \"#utility.yul\":6856:6874   */\n  tag_149\n  tag_38\n  jump\t// in\ntag_149:\n    /* \"#utility.yul\":6788:6876   */\ntag_148:\n    /* \"#utility.yul\":6896:6906   */\n  dup1\n    /* \"#utility.yul\":6892:6894   */\n  0x40\n    /* \"#utility.yul\":6885:6907   */\n  mstore\n    /* \"#utility.yul\":6675:6913   */\n  pop\n    /* \"#utility.yul\":6632:6913   */\n  pop\n  pop\n  jump\t// out\n    /* \"#utility.yul\":6919:7048   */\ntag_61:\n    /* \"#utility.yul\":6953:6959   */\n  0x00\n    /* \"#utility.yul\":6980:7000   */\n  tag_151\n  tag_31\n  jump\t// in\ntag_151:\n    /* \"#utility.yul\":6970:7000   */\n  swap1\n  pop\n    /* \"#utility.yul\":7009:7042   */\n  tag_152\n    /* \"#utility.yul\":7037:7041   */\n  dup3\n    /* \"#utility.yul\":7029:7035   */\n  dup3\n    /* \"#utility.yul\":7009:7042   */\n  tag_60\n  jump\t// in\ntag_152:\n    /* \"#utility.yul\":6919:7048   */\n  swap2\n  swap1\n  pop\n  jump\t// out\n    /* \"#utility.yul\":7054:7362   */\ntag_62:\n    /* \"#utility.yul\":7116:7120   */\n  0x00\n    /* \"#utility.yul\":7206:7224   */\n  0xffffffffffffffff\n    /* \"#utility.yul\":7198:7204   */\n  dup3\n    /* \"#utility.yul\":7195:7225   */\n  gt\n    /* \"#utility.yul\":7192:7248   */\n  iszero\n  tag_154\n  jumpi\n    /* \"#utility.yul\":7228:7246   */\n  tag_155\n  tag_38\n  jump\t// in\ntag_155:\n    /* \"#utility.yul\":7192:7248   */\ntag_154:\n    /* \"#utility.yul\":7266:7295   */\n  tag_156\n    /* \"#utility.yul\":7288:7294   */\n  dup3\n    /* \"#utility.yul\":7266:7295   */\n  tag_59\n  jump\t// in\ntag_156:\n    /* \"#utility.yul\":7258:7295   */\n  swap1\n  pop\n    /* \"#utility.yul\":7350:7354   */\n  0x20\n    /* \"#utility.yul\":7344:7348   */\n  dup2\n    /* \"#utility.yul\":7340:7355   */\n  add\n    /* \"#utility.yul\":7332:7355   */\n  swap1\n  pop\n    /* \"#utility.yul\":7054:7362   */\n  swap2\n  swap1\n  pop\n  jump\t// out\n    /* \"#utility.yul\":7368:7614   */\ntag_63:\n    /* \"#utility.yul\":7449:7450   */\n  0x00\n    /* \"#utility.yul\":7459:7572   */\ntag_158:\n    /* \"#utility.yul\":7473:7479   */\n  dup4\n    /* \"#utility.yul\":7470:7471   */\n  dup2\n    /* \"#utility.yul\":7467:7480   */\n  lt\n    /* \"#utility.yul\":7459:7572   */\n  iszero\n  tag_160\n  jumpi\n    /* \"#utility.yul\":7558:7559   */\n  dup1\n    /* \"#utility.yul\":7553:7556   */\n  dup3\n    /* \"#utility.yul\":7549:7560   */\n  add\n    /* \"#utility.yul\":7543:7561   */\n  mload\n    /* \"#utility.yul\":7539:7540   */\n  dup2\n    /* \"#utility.yul\":7534:7537   */\n  dup5\n    /* \"#utility.yul\":7530:7541   */\n  add\n    /* \"#utility.yul\":7523:7562   */\n  mstore\n    /* \"#utility.yul\":7495:7497   */\n  0x20\n    /* \"#utility.yul\":7492:7493   */\n  dup2\n    /* \"#utility.yul\":7488:7498   */\n  add\n    /* \"#utility.yul\":7483:7498   */\n  swap1\n  pop\n    /* \"#utility.yul\":7459:7572   */\n  jump(tag_158)\ntag_160:\n    /* \"#utility.yul\":7606:7607   */\n  0x00\n    /* \"#utility.yul\":7597:7603   */\n  dup5\n    /* \"#utility.yul\":7592:7595   */\n  dup5\n    /* \"#utility.yul\":7588:7604   */\n  add\n    /* \"#utility.yul\":7581:7608   */\n  mstore\n    /* \"#utility.yul\":7430:7614   */\n  pop\n    /* \"#utility.yul\":7368:7614   */\n  pop\n  pop\n  pop\n  jump\t// out\n    /* \"#utility.yul\":7620:8054   */\ntag_64:\n    /* \"#utility.yul\":7709:7714   */\n  0x00\n    /* \"#utility.yul\":7734:7800   */\n  tag_162\n    /* \"#utility.yul\":7750:7799   */\n  tag_163\n    /* \"#utility.yul\":7792:7798   */\n  dup5\n    /* \"#utility.yul\":7750:7799   */\n  tag_62\n  jump\t// in\ntag_163:\n    /* \"#utility.yul\":7734:7800   */\n  tag_61\n  jump\t// in\ntag_162:\n    /* \"#utility.yul\":7725:7800   */\n  swap1\n  pop\n    /* \"#utility.yul\":7823:7829   */\n  dup3\n    /* \"#utility.yul\":7816:7821   */\n  dup2\n    /* \"#utility.yul\":7809:7830   */\n  mstore\n    /* \"#utility.yul\":7861:7865   */\n  0x20\n    /* \"#utility.yul\":7854:7859   */\n  dup2\n    /* \"#utility.yul\":7850:7866   */\n  add\n    /* \"#utility.yul\":7899:7902   */\n  dup5\n    /* \"#utility.yul\":7890:7896   */\n  dup5\n    /* \"#utility.yul\":7885:7888   */\n  dup5\n    /* \"#utility.yul\":7881:7897   */\n  add\n    /* \"#utility.yul\":7878:7903   */\n  gt\n    /* \"#utility.yul\":7875:7987   */\n  iszero\n  tag_164\n  jumpi\n    /* \"#utility.yul\":7906:7985   */\n  tag_165\n  tag_58\n  jump\t// in\ntag_165:\n    /* \"#utility.yul\":7875:7987   */\ntag_164:\n    /* \"#utility.yul\":7996:8048   */\n  tag_166\n    /* \"#utility.yul\":8041:8047   */\n  dup5\n    /* \"#utility.yul\":8036:8039   */\n  dup3\n    /* \"#utility.yul\":8031:8034   */\n  dup6\n    /* \"#utility.yul\":7996:8048   */\n  tag_63\n  jump\t// in\ntag_166:\n    /* \"#utility.yul\":7715:8054   */\n  pop\n    /* \"#utility.yul\":7620:8054   */\n  swap4\n  swap3\n  pop\n  pop\n  pop\n  jump\t// out\n    /* \"#utility.yul\":8074:8429   */\ntag_65:\n    /* \"#utility.yul\":8141:8146   */\n  0x00\n    /* \"#utility.yul\":8190:8193   */\n  dup3\n    /* \"#utility.yul\":8183:8187   */\n  0x1f\n    /* \"#utility.yul\":8175:8181   */\n  dup4\n    /* \"#utility.yul\":8171:8188   */\n  add\n    /* \"#utility.yul\":8167:8194   */\n  slt\n    /* \"#utility.yul\":8157:8279   */\n  tag_168\n  jumpi\n    /* \"#utility.yul\":8198:8277   */\n  tag_169\n  tag_57\n  jump\t// in\ntag_169:\n    /* \"#utility.yul\":8157:8279   */\ntag_168:\n    /* \"#utility.yul\":8308:8314   */\n  dup2\n    /* \"#utility.yul\":8302:8315   */\n  mload\n    /* \"#utility.yul\":8333:8423   */\n  tag_170\n    /* \"#utility.yul\":8419:8422   */\n  dup5\n    /* \"#utility.yul\":8411:8417   */\n  dup3\n    /* \"#utility.yul\":8404:8408   */\n  0x20\n    /* \"#utility.yul\":8396:8402   */\n  dup7\n    /* \"#utility.yul\":8392:8409   */\n  add\n    /* \"#utility.yul\":8333:8423   */\n  tag_64\n  jump\t// in\ntag_170:\n    /* \"#utility.yul\":8324:8423   */\n  swap2\n  pop\n    /* \"#utility.yul\":8147:8429   */\n  pop\n    /* \"#utility.yul\":8074:8429   */\n  swap3\n  swap2\n  pop\n  pop\n  jump\t// out\n    /* \"#utility.yul\":8435:8959   */\ntag_20:\n    /* \"#utility.yul\":8515:8521   */\n  0x00\n    /* \"#utility.yul\":8564:8566   */\n  0x20\n    /* \"#utility.yul\":8552:8561   */\n  dup3\n    /* \"#utility.yul\":8543:8550   */\n  dup5\n    /* \"#utility.yul\":8539:8562   */\n  sub\n    /* \"#utility.yul\":8535:8567   */\n  slt\n    /* \"#utility.yul\":8532:8651   */\n  iszero\n  tag_172\n  jumpi\n    /* \"#utility.yul\":8570:8649   */\n  tag_173\n  tag_32\n  jump\t// in\ntag_173:\n    /* \"#utility.yul\":8532:8651   */\ntag_172:\n    /* \"#utility.yul\":8711:8712   */\n  0x00\n    /* \"#utility.yul\":8700:8709   */\n  dup3\n    /* \"#utility.yul\":8696:8713   */\n  add\n    /* \"#utility.yul\":8690:8714   */\n  mload\n    /* \"#utility.yul\":8741:8759   */\n  0xffffffffffffffff\n    /* \"#utility.yul\":8733:8739   */\n  dup2\n    /* \"#utility.yul\":8730:8760   */\n  gt\n    /* \"#utility.yul\":8727:8844   */\n  iszero\n  tag_174\n  jumpi\n    /* \"#utility.yul\":8763:8842   */\n  tag_175\n  tag_33\n  jump\t// in\ntag_175:\n    /* \"#utility.yul\":8727:8844   */\ntag_174:\n    /* \"#utility.yul\":8868:8942   */\n  tag_176\n    /* \"#utility.yul\":8934:8941   */\n  dup5\n    /* \"#utility.yul\":8925:8931   */\n  dup3\n    /* \"#utility.yul\":8914:8923   */\n  dup6\n    /* \"#utility.yul\":8910:8932   */\n  add\n    /* \"#utility.yul\":8868:8942   */\n  tag_65\n  jump\t// in\ntag_176:\n    /* \"#utility.yul\":8858:8942   */\n  swap2\n  pop\n    /* \"#utility.yul\":8661:8952   */\n  pop\n    /* \"#utility.yul\":8435:8959   */\n  swap3\n  swap2\n  pop\n  pop\n  jump\t// out\n    /* \"#utility.yul\":8965:9087   */\ntag_66:\n    /* \"#utility.yul\":9038:9062   */\n  tag_178\n    /* \"#utility.yul\":9056:9061   */\n  dup2\n    /* \"#utility.yul\":9038:9062   */\n  tag_45\n  jump\t// in\ntag_178:\n    /* \"#utility.yul\":9031:9036   */\n  dup2\n    /* \"#utility.yul\":9028:9063   */\n  eq\n    /* \"#utility.yul\":9018:9081   */\n  tag_179\n  jumpi\n    /* \"#utility.yul\":9077:9078   */\n  0x00\n    /* \"#utility.yul\":9074:9075   */\n  dup1\n    /* \"#utility.yul\":9067:9079   */\n  revert\n    /* \"#utility.yul\":9018:9081   */\ntag_179:\n    /* \"#utility.yul\":8965:9087   */\n  pop\n  jump\t// out\n    /* \"#utility.yul\":9093:9236   */\ntag_67:\n    /* \"#utility.yul\":9150:9155   */\n  0x00\n    /* \"#utility.yul\":9181:9187   */\n  dup2\n    /* \"#utility.yul\":9175:9188   */\n  mload\n    /* \"#utility.yul\":9166:9188   */\n  swap1\n  pop\n    /* \"#utility.yul\":9197:9230   */\n  tag_181\n    /* \"#utility.yul\":9224:9229   */\n  dup2\n    /* \"#utility.yul\":9197:9230   */\n  tag_66\n  jump\t// in\ntag_181:\n    /* \"#utility.yul\":9093:9236   */\n  swap3\n  swap2\n  pop\n  pop\n  jump\t// out\n    /* \"#utility.yul\":9242:9593   */\ntag_27:\n    /* \"#utility.yul\":9312:9318   */\n  0x00\n    /* \"#utility.yul\":9361:9363   */\n  0x20\n    /* \"#utility.yul\":9349:9358   */\n  dup3\n    /* \"#utility.yul\":9340:9347   */\n  dup5\n    /* \"#utility.yul\":9336:9359   */\n  sub\n    /* \"#utility.yul\":9332:9364   */\n  slt\n    /* \"#utility.yul\":9329:9448   */\n  iszero\n  tag_183\n  jumpi\n    /* \"#utility.yul\":9367:9446   */\n  tag_184\n  tag_32\n  jump\t// in\ntag_184:\n    /* \"#utility.yul\":9329:9448   */\ntag_183:\n    /* \"#utility.yul\":9487:9488   */\n  0x00\n    /* \"#utility.yul\":9512:9576   */\n  tag_185\n    /* \"#utility.yul\":9568:9575   */\n  dup5\n    /* \"#utility.yul\":9559:9565   */\n  dup3\n    /* \"#utility.yul\":9548:9557   */\n  dup6\n    /* \"#utility.yul\":9544:9566   */\n  add\n    /* \"#utility.yul\":9512:9576   */\n  tag_67\n  jump\t// in\ntag_185:\n    /* \"#utility.yul\":9502:9576   */\n  swap2\n  pop\n    /* \"#utility.yul\":9458:9586   */\n  pop\n    /* \"#utility.yul\":9242:9593   */\n  swap3\n  swap2\n  pop\n  pop\n  jump\t// out\n    /* \"contracts/music_marketplace.sol\":130:1785  contract MusicCatalogue {... */\ntag_13:\n  dataSize(sub_0)\n  dup1\n  dataOffset(sub_0)\n  0x00\n  codecopy\n  0x00\n  return\nstop\n\nsub_0: assembly {\n        /* \"contracts/music_marketplace.sol\":130:1785  contract MusicCatalogue {... */\n      mstore(0x40, 0x80)\n      callvalue\n      dup1\n      iszero\n      tag_1\n      jumpi\n      0x00\n      dup1\n      revert\n    tag_1:\n      pop\n      jumpi(tag_2, lt(calldatasize, 0x04))\n      shr(0xe0, calldataload(0x00))\n      dup1\n      0xb04e906f\n      eq\n      tag_3\n      jumpi\n    tag_2:\n      0x00\n      dup1\n      revert\n        /* \"contracts/music_marketplace.sol\":1622:1779  function getCopyrightFromCatalogue(bytes32 _musicId) external view returns (CopyrightDetails memory) {... */\n    tag_3:\n      tag_4\n      0x04\n      dup1\n      calldatasize\n      sub\n      dup2\n      add\n      swap1\n      tag_5\n      swap2\n      swap1\n      tag_6\n      jump\t// in\n    tag_5:\n      tag_7\n      jump\t// in\n    tag_4:\n      mload(0x40)\n      tag_8\n      swap2\n      swap1\n      tag_9\n      jump\t// in\n    tag_8:\n      mload(0x40)\n      dup1\n      swap2\n      sub\n      swap1\n      return\n    tag_7:\n        /* \"contracts/music_marketplace.sol\":1698:1721  CopyrightDetails memory */\n      tag_10\n      tag_11\n      jump\t// in\n    tag_10:\n        /* \"contracts/music_marketplace.sol\":1740:1762  hashTableForCopyrights */\n      0x01\n        /* \"contracts/music_marketplace.sol\":1740:1772  hashTableForCopyrights[_musicId] */\n      0x00\n        /* \"contracts/music_marketplace.sol\":1763:1771  _musicId */\n      dup4\n        /* \"contracts/music_marketplace.sol\":1740:1772  hashTableForCopyrights[_musicId] */\n      dup2\n      mstore\n      0x20\n      add\n      swap1\n      dup2\n      mstore\n      0x20\n      add\n      0x00\n      keccak256\n        /* \"contracts/music_marketplace.sol\":1733:1772  return hashTableForCopyrights[_musicId] */\n      mload(0x40)\n      dup1\n      0x80\n      add\n      0x40\n      mstore\n      swap1\n      dup2\n      0x00\n      dup3\n      add\n      dup1\n      sload\n      tag_13\n      swap1\n      tag_14\n      jump\t// in\n    tag_13:\n      dup1\n      0x1f\n      add\n      0x20\n      dup1\n      swap2\n      div\n      mul\n      0x20\n      add\n      mload(0x40)\n      swap1\n      dup2\n      add\n      0x40\n      mstore\n      dup1\n      swap3\n      swap2\n      swap1\n      dup2\n      dup2\n      mstore\n      0x20\n      add\n      dup3\n      dup1\n      sload\n      tag_15\n      swap1\n      tag_14\n      jump\t// in\n    tag_15:\n      dup1\n      iszero\n      tag_16\n      jumpi\n      dup1\n      0x1f\n      lt\n      tag_17\n      jumpi\n      0x0100\n      dup1\n      dup4\n      sload\n      div\n      mul\n      dup4\n      mstore\n      swap2\n      0x20\n      add\n      swap2\n      jump(tag_16)\n    tag_17:\n      dup3\n      add\n      swap2\n      swap1\n      0x00\n      mstore\n      keccak256(0x00, 0x20)\n      swap1\n    tag_18:\n      dup2\n      sload\n      dup2\n      mstore\n      swap1\n      0x01\n      add\n      swap1\n      0x20\n      add\n      dup1\n      dup4\n      gt\n      tag_18\n      jumpi\n      dup3\n      swap1\n      sub\n      0x1f\n      and\n      dup3\n      add\n      swap2\n    tag_16:\n      pop\n      pop\n      pop\n      pop\n      pop\n      dup2\n      mstore\n      0x20\n      add\n      0x01\n      dup3\n      add\n      dup1\n      sload\n      tag_19\n      swap1\n      tag_14\n      jump\t// in\n    tag_19:\n      dup1\n      0x1f\n      add\n      0x20\n      dup1\n      swap2\n      div\n      mul\n      0x20\n      add\n      mload(0x40)\n      swap1\n      dup2\n      add\n      0x40\n      mstore\n      dup1\n      swap3\n      swap2\n      swap1\n      dup2\n      dup2\n      mstore\n      0x20\n      add\n      dup3\n      dup1\n      sload\n      tag_20\n      swap1\n      tag_14\n      jump\t// in\n    tag_20:\n      dup1\n      iszero\n      tag_21\n      jumpi\n      dup1\n      0x1f\n      lt\n      tag_22\n      jumpi\n      0x0100\n      dup1\n      dup4\n      sload\n      div\n      mul\n      dup4\n      mstore\n      swap2\n      0x20\n      add\n      swap2\n      jump(tag_21)\n    tag_22:\n      dup3\n      add\n      swap2\n      swap1\n      0x00\n      mstore\n      keccak256(0x00, 0x20)\n      swap1\n    tag_23:\n      dup2\n      sload\n      dup2\n      mstore\n      swap1\n      0x01\n      add\n      swap1\n      0x20\n      add\n      dup1\n      dup4\n      gt\n      tag_23\n      jumpi\n      dup3\n      swap1\n      sub\n      0x1f\n      and\n      dup3\n      add\n      swap2\n    tag_21:\n      pop\n      pop\n      pop\n      pop\n      pop\n      dup2\n      mstore\n      0x20\n      add\n      0x02\n      dup3\n      add\n      sload\n      dup2\n      mstore\n      0x20\n      add\n      0x03\n      dup3\n      add\n      sload\n      dup2\n      mstore\n      pop\n      pop\n      swap1\n      pop\n        /* \"contracts/music_marketplace.sol\":1622:1779  function getCopyrightFromCatalogue(bytes32 _musicId) external view returns (CopyrightDetails memory) {... */\n      swap2\n      swap1\n      pop\n      jump\t// out\n    tag_11:\n      mload(0x40)\n      dup1\n      0x80\n      add\n      0x40\n      mstore\n      dup1\n      0x60\n      dup2\n      mstore\n      0x20\n      add\n      0x60\n      dup2\n      mstore\n      0x20\n      add\n      0x00\n      dup2\n      mstore\n      0x20\n      add\n      0x00\n      dup2\n      mstore\n      pop\n      swap1\n      jump\t// out\n        /* \"#utility.yul\":88:205   */\n    tag_25:\n        /* \"#utility.yul\":197:198   */\n      0x00\n        /* \"#utility.yul\":194:195   */\n      dup1\n        /* \"#utility.yul\":187:199   */\n      revert\n        /* \"#utility.yul\":334:411   */\n    tag_27:\n        /* \"#utility.yul\":371:378   */\n      0x00\n        /* \"#utility.yul\":400:405   */\n      dup2\n        /* \"#utility.yul\":389:405   */\n      swap1\n      pop\n        /* \"#utility.yul\":334:411   */\n      swap2\n      swap1\n      pop\n      jump\t// out\n        /* \"#utility.yul\":417:539   */\n    tag_28:\n        /* \"#utility.yul\":490:514   */\n      tag_45\n        /* \"#utility.yul\":508:513   */\n      dup2\n        /* \"#utility.yul\":490:514   */\n      tag_27\n      jump\t// in\n    tag_45:\n        /* \"#utility.yul\":483:488   */\n      dup2\n        /* \"#utility.yul\":480:515   */\n      eq\n        /* \"#utility.yul\":470:533   */\n      tag_46\n      jumpi\n        /* \"#utility.yul\":529:530   */\n      0x00\n        /* \"#utility.yul\":526:527   */\n      dup1\n        /* \"#utility.yul\":519:531   */\n      revert\n        /* \"#utility.yul\":470:533   */\n    tag_46:\n        /* \"#utility.yul\":417:539   */\n      pop\n      jump\t// out\n        /* \"#utility.yul\":545:684   */\n    tag_29:\n        /* \"#utility.yul\":591:596   */\n      0x00\n        /* \"#utility.yul\":629:635   */\n      dup2\n        /* \"#utility.yul\":616:636   */\n      calldataload\n        /* \"#utility.yul\":607:636   */\n      swap1\n      pop\n        /* \"#utility.yul\":645:678   */\n      tag_48\n        /* \"#utility.yul\":672:677   */\n      dup2\n        /* \"#utility.yul\":645:678   */\n      tag_28\n      jump\t// in\n    tag_48:\n        /* \"#utility.yul\":545:684   */\n      swap3\n      swap2\n      pop\n      pop\n      jump\t// out\n        /* \"#utility.yul\":690:1019   */\n    tag_6:\n        /* \"#utility.yul\":749:755   */\n      0x00\n        /* \"#utility.yul\":798:800   */\n      0x20\n        /* \"#utility.yul\":786:795   */\n      dup3\n        /* \"#utility.yul\":777:784   */\n      dup5\n        /* \"#utility.yul\":773:796   */\n      sub\n        /* \"#utility.yul\":769:801   */\n      slt\n        /* \"#utility.yul\":766:885   */\n      iszero\n      tag_50\n      jumpi\n        /* \"#utility.yul\":804:883   */\n      tag_51\n      tag_25\n      jump\t// in\n    tag_51:\n        /* \"#utility.yul\":766:885   */\n    tag_50:\n        /* \"#utility.yul\":924:925   */\n      0x00\n        /* \"#utility.yul\":949:1002   */\n      tag_52\n        /* \"#utility.yul\":994:1001   */\n      dup5\n        /* \"#utility.yul\":985:991   */\n      dup3\n        /* \"#utility.yul\":974:983   */\n      dup6\n        /* \"#utility.yul\":970:992   */\n      add\n        /* \"#utility.yul\":949:1002   */\n      tag_29\n      jump\t// in\n    tag_52:\n        /* \"#utility.yul\":939:1002   */\n      swap2\n      pop\n        /* \"#utility.yul\":895:1012   */\n      pop\n        /* \"#utility.yul\":690:1019   */\n      swap3\n      swap2\n      pop\n      pop\n      jump\t// out\n        /* \"#utility.yul\":1025:1124   */\n    tag_30:\n        /* \"#utility.yul\":1077:1083   */\n      0x00\n        /* \"#utility.yul\":1111:1116   */\n      dup2\n        /* \"#utility.yul\":1105:1117   */\n      mload\n        /* \"#utility.yul\":1095:1117   */\n      swap1\n      pop\n        /* \"#utility.yul\":1025:1124   */\n      swap2\n      swap1\n      pop\n      jump\t// out\n        /* \"#utility.yul\":1130:1289   */\n    tag_31:\n        /* \"#utility.yul\":1204:1215   */\n      0x00\n        /* \"#utility.yul\":1238:1244   */\n      dup3\n        /* \"#utility.yul\":1233:1236   */\n      dup3\n        /* \"#utility.yul\":1226:1245   */\n      mstore\n        /* \"#utility.yul\":1278:1282   */\n      0x20\n        /* \"#utility.yul\":1273:1276   */\n      dup3\n        /* \"#utility.yul\":1269:1283   */\n      add\n        /* \"#utility.yul\":1254:1283   */\n      swap1\n      pop\n        /* \"#utility.yul\":1130:1289   */\n      swap3\n      swap2\n      pop\n      pop\n      jump\t// out\n        /* \"#utility.yul\":1295:1541   */\n    tag_32:\n        /* \"#utility.yul\":1376:1377   */\n      0x00\n        /* \"#utility.yul\":1386:1499   */\n    tag_56:\n        /* \"#utility.yul\":1400:1406   */\n      dup4\n        /* \"#utility.yul\":1397:1398   */\n      dup2\n        /* \"#utility.yul\":1394:1407   */\n      lt\n        /* \"#utility.yul\":1386:1499   */\n      iszero\n      tag_58\n      jumpi\n        /* \"#utility.yul\":1485:1486   */\n      dup1\n        /* \"#utility.yul\":1480:1483   */\n      dup3\n        /* \"#utility.yul\":1476:1487   */\n      add\n        /* \"#utility.yul\":1470:1488   */\n      mload\n        /* \"#utility.yul\":1466:1467   */\n      dup2\n        /* \"#utility.yul\":1461:1464   */\n      dup5\n        /* \"#utility.yul\":1457:1468   */\n      add\n        /* \"#utility.yul\":1450:1489   */\n      mstore\n        /* \"#utility.yul\":1422:1424   */\n      0x20\n        /* \"#utility.yul\":1419:1420   */\n      dup2\n        /* \"#utility.yul\":1415:1425   */\n      add\n        /* \"#utility.yul\":1410:1425   */\n      swap1\n      pop\n        /* \"#utility.yul\":1386:1499   */\n      jump(tag_56)\n    tag_58:\n        /* \"#utility.yul\":1533:1534   */\n      0x00\n        /* \"#utility.yul\":1524:1530   */\n      dup5\n        /* \"#utility.yul\":1519:1522   */\n      dup5\n        /* \"#utility.yul\":1515:1531   */\n      add\n        /* \"#utility.yul\":1508:1535   */\n      mstore\n        /* \"#utility.yul\":1357:1541   */\n      pop\n        /* \"#utility.yul\":1295:1541   */\n      pop\n      pop\n      pop\n      jump\t// out\n        /* \"#utility.yul\":1547:1649   */\n    tag_33:\n        /* \"#utility.yul\":1588:1594   */\n      0x00\n        /* \"#utility.yul\":1639:1641   */\n      0x1f\n        /* \"#utility.yul\":1635:1642   */\n      not\n        /* \"#utility.yul\":1630:1632   */\n      0x1f\n        /* \"#utility.yul\":1623:1628   */\n      dup4\n        /* \"#utility.yul\":1619:1633   */\n      add\n        /* \"#utility.yul\":1615:1643   */\n      and\n        /* \"#utility.yul\":1605:1643   */\n      swap1\n      pop\n        /* \"#utility.yul\":1547:1649   */\n      swap2\n      swap1\n      pop\n      jump\t// out\n        /* \"#utility.yul\":1655:2012   */\n    tag_34:\n        /* \"#utility.yul\":1733:1736   */\n      0x00\n        /* \"#utility.yul\":1761:1800   */\n      tag_61\n        /* \"#utility.yul\":1794:1799   */\n      dup3\n        /* \"#utility.yul\":1761:1800   */\n      tag_30\n      jump\t// in\n    tag_61:\n        /* \"#utility.yul\":1816:1877   */\n      tag_62\n        /* \"#utility.yul\":1870:1876   */\n      dup2\n        /* \"#utility.yul\":1865:1868   */\n      dup6\n        /* \"#utility.yul\":1816:1877   */\n      tag_31\n      jump\t// in\n    tag_62:\n        /* \"#utility.yul\":1809:1877   */\n      swap4\n      pop\n        /* \"#utility.yul\":1886:1951   */\n      tag_63\n        /* \"#utility.yul\":1944:1950   */\n      dup2\n        /* \"#utility.yul\":1939:1942   */\n      dup6\n        /* \"#utility.yul\":1932:1936   */\n      0x20\n        /* \"#utility.yul\":1925:1930   */\n      dup7\n        /* \"#utility.yul\":1921:1937   */\n      add\n        /* \"#utility.yul\":1886:1951   */\n      tag_32\n      jump\t// in\n    tag_63:\n        /* \"#utility.yul\":1976:2005   */\n      tag_64\n        /* \"#utility.yul\":1998:2004   */\n      dup2\n        /* \"#utility.yul\":1976:2005   */\n      tag_33\n      jump\t// in\n    tag_64:\n        /* \"#utility.yul\":1971:1974   */\n      dup5\n        /* \"#utility.yul\":1967:2006   */\n      add\n        /* \"#utility.yul\":1960:2006   */\n      swap2\n      pop\n        /* \"#utility.yul\":1737:2012   */\n      pop\n        /* \"#utility.yul\":1655:2012   */\n      swap3\n      swap2\n      pop\n      pop\n      jump\t// out\n        /* \"#utility.yul\":2018:2095   */\n    tag_35:\n        /* \"#utility.yul\":2055:2062   */\n      0x00\n        /* \"#utility.yul\":2084:2089   */\n      dup2\n        /* \"#utility.yul\":2073:2089   */\n      swap1\n      pop\n        /* \"#utility.yul\":2018:2095   */\n      swap2\n      swap1\n      pop\n      jump\t// out\n        /* \"#utility.yul\":2101:2209   */\n    tag_36:\n        /* \"#utility.yul\":2178:2202   */\n      tag_67\n        /* \"#utility.yul\":2196:2201   */\n      dup2\n        /* \"#utility.yul\":2178:2202   */\n      tag_35\n      jump\t// in\n    tag_67:\n        /* \"#utility.yul\":2173:2176   */\n      dup3\n        /* \"#utility.yul\":2166:2203   */\n      mstore\n        /* \"#utility.yul\":2101:2209   */\n      pop\n      pop\n      jump\t// out\n        /* \"#utility.yul\":2303:3372   */\n    tag_37:\n        /* \"#utility.yul\":2436:2439   */\n      0x00\n        /* \"#utility.yul\":2472:2476   */\n      0x80\n        /* \"#utility.yul\":2467:2470   */\n      dup4\n        /* \"#utility.yul\":2463:2477   */\n      add\n        /* \"#utility.yul\":2565:2569   */\n      0x00\n        /* \"#utility.yul\":2558:2563   */\n      dup4\n        /* \"#utility.yul\":2554:2570   */\n      add\n        /* \"#utility.yul\":2548:2571   */\n      mload\n        /* \"#utility.yul\":2618:2621   */\n      dup5\n        /* \"#utility.yul\":2612:2616   */\n      dup3\n        /* \"#utility.yul\":2608:2622   */\n      sub\n        /* \"#utility.yul\":2601:2605   */\n      0x00\n        /* \"#utility.yul\":2596:2599   */\n      dup7\n        /* \"#utility.yul\":2592:2606   */\n      add\n        /* \"#utility.yul\":2585:2623   */\n      mstore\n        /* \"#utility.yul\":2644:2717   */\n      tag_69\n        /* \"#utility.yul\":2712:2716   */\n      dup3\n        /* \"#utility.yul\":2698:2710   */\n      dup3\n        /* \"#utility.yul\":2644:2717   */\n      tag_34\n      jump\t// in\n    tag_69:\n        /* \"#utility.yul\":2636:2717   */\n      swap2\n      pop\n        /* \"#utility.yul\":2487:2728   */\n      pop\n        /* \"#utility.yul\":2816:2820   */\n      0x20\n        /* \"#utility.yul\":2809:2814   */\n      dup4\n        /* \"#utility.yul\":2805:2821   */\n      add\n        /* \"#utility.yul\":2799:2822   */\n      mload\n        /* \"#utility.yul\":2869:2872   */\n      dup5\n        /* \"#utility.yul\":2863:2867   */\n      dup3\n        /* \"#utility.yul\":2859:2873   */\n      sub\n        /* \"#utility.yul\":2852:2856   */\n      0x20\n        /* \"#utility.yul\":2847:2850   */\n      dup7\n        /* \"#utility.yul\":2843:2857   */\n      add\n        /* \"#utility.yul\":2836:2874   */\n      mstore\n        /* \"#utility.yul\":2895:2968   */\n      tag_70\n        /* \"#utility.yul\":2963:2967   */\n      dup3\n        /* \"#utility.yul\":2949:2961   */\n      dup3\n        /* \"#utility.yul\":2895:2968   */\n      tag_34\n      jump\t// in\n    tag_70:\n        /* \"#utility.yul\":2887:2968   */\n      swap2\n      pop\n        /* \"#utility.yul\":2738:2979   */\n      pop\n        /* \"#utility.yul\":3069:3073   */\n      0x40\n        /* \"#utility.yul\":3062:3067   */\n      dup4\n        /* \"#utility.yul\":3058:3074   */\n      add\n        /* \"#utility.yul\":3052:3075   */\n      mload\n        /* \"#utility.yul\":3088:3151   */\n      tag_71\n        /* \"#utility.yul\":3145:3149   */\n      0x40\n        /* \"#utility.yul\":3140:3143   */\n      dup7\n        /* \"#utility.yul\":3136:3150   */\n      add\n        /* \"#utility.yul\":3122:3134   */\n      dup3\n        /* \"#utility.yul\":3088:3151   */\n      tag_36\n      jump\t// in\n    tag_71:\n        /* \"#utility.yul\":2989:3161   */\n      pop\n        /* \"#utility.yul\":3253:3257   */\n      0x60\n        /* \"#utility.yul\":3246:3251   */\n      dup4\n        /* \"#utility.yul\":3242:3258   */\n      add\n        /* \"#utility.yul\":3236:3259   */\n      mload\n        /* \"#utility.yul\":3272:3335   */\n      tag_72\n        /* \"#utility.yul\":3329:3333   */\n      0x60\n        /* \"#utility.yul\":3324:3327   */\n      dup7\n        /* \"#utility.yul\":3320:3334   */\n      add\n        /* \"#utility.yul\":3306:3318   */\n      dup3\n        /* \"#utility.yul\":3272:3335   */\n      tag_36\n      jump\t// in\n    tag_72:\n        /* \"#utility.yul\":3171:3345   */\n      pop\n        /* \"#utility.yul\":3362:3366   */\n      dup1\n        /* \"#utility.yul\":3355:3366   */\n      swap2\n      pop\n        /* \"#utility.yul\":2441:3372   */\n      pop\n        /* \"#utility.yul\":2303:3372   */\n      swap3\n      swap2\n      pop\n      pop\n      jump\t// out\n        /* \"#utility.yul\":3378:3779   */\n    tag_9:\n        /* \"#utility.yul\":3535:3539   */\n      0x00\n        /* \"#utility.yul\":3573:3575   */\n      0x20\n        /* \"#utility.yul\":3562:3571   */\n      dup3\n        /* \"#utility.yul\":3558:3576   */\n      add\n        /* \"#utility.yul\":3550:3576   */\n      swap1\n      pop\n        /* \"#utility.yul\":3622:3631   */\n      dup2\n        /* \"#utility.yul\":3616:3620   */\n      dup2\n        /* \"#utility.yul\":3612:3632   */\n      sub\n        /* \"#utility.yul\":3608:3609   */\n      0x00\n        /* \"#utility.yul\":3597:3606   */\n      dup4\n        /* \"#utility.yul\":3593:3610   */\n      add\n        /* \"#utility.yul\":3586:3633   */\n      mstore\n        /* \"#utility.yul\":3650:3772   */\n      tag_74\n        /* \"#utility.yul\":3767:3771   */\n      dup2\n        /* \"#utility.yul\":3758:3764   */\n      dup5\n        /* \"#utility.yul\":3650:3772   */\n      tag_37\n      jump\t// in\n    tag_74:\n        /* \"#utility.yul\":3642:3772   */\n      swap1\n      pop\n        /* \"#utility.yul\":3378:3779   */\n      swap3\n      swap2\n      pop\n      pop\n      jump\t// out\n        /* \"#utility.yul\":3785:3965   */\n    tag_38:\n        /* \"#utility.yul\":3833:3910   */\n      0x4e487b7100000000000000000000000000000000000000000000000000000000\n        /* \"#utility.yul\":3830:3831   */\n      0x00\n        /* \"#utility.yul\":3823:3911   */\n      mstore\n        /* \"#utility.yul\":3930:3934   */\n      0x22\n        /* \"#utility.yul\":3927:3928   */\n      0x04\n        /* \"#utility.yul\":3920:3935   */\n      mstore\n        /* \"#utility.yul\":3954:3958   */\n      0x24\n        /* \"#utility.yul\":3951:3952   */\n      0x00\n        /* \"#utility.yul\":3944:3959   */\n      revert\n        /* \"#utility.yul\":3971:4291   */\n    tag_14:\n        /* \"#utility.yul\":4015:4021   */\n      0x00\n        /* \"#utility.yul\":4052:4053   */\n      0x02\n        /* \"#utility.yul\":4046:4050   */\n      dup3\n        /* \"#utility.yul\":4042:4054   */\n      div\n        /* \"#utility.yul\":4032:4054   */\n      swap1\n      pop\n        /* \"#utility.yul\":4099:4100   */\n      0x01\n        /* \"#utility.yul\":4093:4097   */\n      dup3\n        /* \"#utility.yul\":4089:4101   */\n      and\n        /* \"#utility.yul\":4120:4138   */\n      dup1\n        /* \"#utility.yul\":4110:4191   */\n      tag_77\n      jumpi\n        /* \"#utility.yul\":4176:4180   */\n      0x7f\n        /* \"#utility.yul\":4168:4174   */\n      dup3\n        /* \"#utility.yul\":4164:4181   */\n      and\n        /* \"#utility.yul\":4154:4181   */\n      swap2\n      pop\n        /* \"#utility.yul\":4110:4191   */\n    tag_77:\n        /* \"#utility.yul\":4238:4240   */\n      0x20\n        /* \"#utility.yul\":4230:4236   */\n      dup3\n        /* \"#utility.yul\":4227:4241   */\n      lt\n        /* \"#utility.yul\":4207:4225   */\n      dup2\n        /* \"#utility.yul\":4204:4242   */\n      sub\n        /* \"#utility.yul\":4201:4285   */\n      tag_78\n      jumpi\n        /* \"#utility.yul\":4257:4275   */\n      tag_79\n      tag_38\n      jump\t// in\n    tag_79:\n        /* \"#utility.yul\":4201:4285   */\n    tag_78:\n        /* \"#utility.yul\":4022:4291   */\n      pop\n        /* \"#utility.yul\":3971:4291   */\n      swap2\n      swap1\n      pop\n      jump\t// out\n\n    auxdata: 0xa2646970667358221220ffccba21e845d373a615e73920af38563a7b3f7be2cf008009af6fdd5b56ad6864736f6c63430008160033\n}\n",
				"bytecode": {
					"linkReferences": {},
					"object": "608060405234801562000010575f80fd5b505f73f8e81d47203a594245e36c48e151709f0c19fbe89050805f806101000a81548173ffffffffffffffffffffffffffffffffffffffff021916908373ffffffffffffffffffffffffffffffffffffffff1602179055505f805f9054906101000a900473ffffffffffffffffffffffffffffffffffffffff1673ffffffffffffffffffffffffffffffffffffffff1663ebc38f9c6040518163ffffffff1660e01b8152600401602060405180830381865afa158015620000d3573d5f803e3d5ffd5b505050506040513d601f19601f82011682018060405250810190620000f9919062000463565b90505f6200010c6200016e60201b60201c565b90508060015f8481526020019081526020015f205f820151815f019081620001359190620006f7565b5060208201518160010190816200014d9190620006f7565b506040820151816002015560608201518160030155905050505050620009d0565b62000178620003f4565b5f805f9054906101000a900473ffffffffffffffffffffffffffffffffffffffff1673ffffffffffffffffffffffffffffffffffffffff1663318a0e296040518163ffffffff1660e01b81526004015f60405180830381865afa158015620001e2573d5f803e3d5ffd5b505050506040513d5f823e3d601f19601f820116820180604052508101906200020c919062000922565b90505f805f9054906101000a900473ffffffffffffffffffffffffffffffffffffffff1673ffffffffffffffffffffffffffffffffffffffff16636a64aabb6040518163ffffffff1660e01b81526004015f60405180830381865afa15801562000278573d5f803e3d5ffd5b505050506040513d5f823e3d601f19601f82011682018060405250810190620002a2919062000922565b90505f805f9054906101000a900473ffffffffffffffffffffffffffffffffffffffff1673ffffffffffffffffffffffffffffffffffffffff166305b344106040518163ffffffff1660e01b8152600401602060405180830381865afa1580156200030f573d5f803e3d5ffd5b505050506040513d601f19601f82011682018060405250810190620003359190620009a0565b90505f805f9054906101000a900473ffffffffffffffffffffffffffffffffffffffff1673ffffffffffffffffffffffffffffffffffffffff16634c9555d86040518163ffffffff1660e01b8152600401602060405180830381865afa158015620003a2573d5f803e3d5ffd5b505050506040513d601f19601f82011682018060405250810190620003c89190620009a0565b905060405180608001604052808581526020018481526020018381526020018281525094505050505090565b604051806080016040528060608152602001606081526020015f81526020015f81525090565b5f604051905090565b5f80fd5b5f80fd5b5f819050919050565b6200043f816200042b565b81146200044a575f80fd5b50565b5f815190506200045d8162000434565b92915050565b5f602082840312156200047b576200047a62000423565b5b5f6200048a848285016200044d565b91505092915050565b5f81519050919050565b7f4e487b71000000000000000000000000000000000000000000000000000000005f52604160045260245ffd5b7f4e487b71000000000000000000000000000000000000000000000000000000005f52602260045260245ffd5b5f60028204905060018216806200050f57607f821691505b602082108103620005255762000524620004ca565b5b50919050565b5f819050815f5260205f209050919050565b5f6020601f8301049050919050565b5f82821b905092915050565b5f60088302620005897fffffffffffffffffffffffffffffffffffffffffffffffffffffffffffffffff826200054c565b6200059586836200054c565b95508019841693508086168417925050509392505050565b5f819050919050565b5f819050919050565b5f620005df620005d9620005d384620005ad565b620005b6565b620005ad565b9050919050565b5f819050919050565b620005fa83620005bf565b620006126200060982620005e6565b84845462000558565b825550505050565b5f90565b620006286200061a565b62000635818484620005ef565b505050565b5b818110156200065c57620006505f826200061e565b6001810190506200063b565b5050565b601f821115620006ab5762000675816200052b565b62000680846200053d565b8101602085101562000690578190505b620006a86200069f856200053d565b8301826200063a565b50505b505050565b5f82821c905092915050565b5f620006cd5f1984600802620006b0565b1980831691505092915050565b5f620006e78383620006bc565b9150826002028217905092915050565b620007028262000493565b67ffffffffffffffff8111156200071e576200071d6200049d565b5b6200072a8254620004f7565b6200073782828562000660565b5f60209050601f8311600181146200076d575f841562000758578287015190505b620007648582620006da565b865550620007d3565b601f1984166200077d866200052b565b5f5b82811015620007a6578489015182556001820191506020850194506020810190506200077f565b86831015620007c65784890151620007c2601f891682620006bc565b8355505b6001600288020188555050505b505050505050565b5f80fd5b5f80fd5b5f601f19601f8301169050919050565b620007fe82620007e3565b810181811067ffffffffffffffff8211171562000820576200081f6200049d565b5b80604052505050565b5f620008346200041a565b9050620008428282620007f3565b919050565b5f67ffffffffffffffff8211156200086457620008636200049d565b5b6200086f82620007e3565b9050602081019050919050565b5f5b838110156200089b5780820151818401526020810190506200087e565b5f8484015250505050565b5f620008bc620008b68462000847565b62000829565b905082815260208101848484011115620008db57620008da620007df565b5b620008e88482856200087c565b509392505050565b5f82601f830112620009075762000906620007db565b5b815162000919848260208601620008a6565b91505092915050565b5f602082840312156200093a576200093962000423565b5b5f82015167ffffffffffffffff8111156200095a576200095962000427565b5b6200096884828501620008f0565b91505092915050565b6200097c81620005ad565b811462000987575f80fd5b50565b5f815190506200099a8162000971565b92915050565b5f60208284031215620009b857620009b762000423565b5b5f620009c7848285016200098a565b91505092915050565b6103ff80620009de5f395ff3fe608060405234801561000f575f80fd5b5060043610610029575f3560e01c8063b04e906f1461002d575b5f80fd5b61004760048036038101906100429190610218565b61005d565b604051610054919061034c565b60405180910390f35b6100656101bb565b60015f8381526020019081526020015f206040518060800160405290815f8201805461009090610399565b80601f01602080910402602001604051908101604052809291908181526020018280546100bc90610399565b80156101075780601f106100de57610100808354040283529160200191610107565b820191905f5260205f20905b8154815290600101906020018083116100ea57829003601f168201915b5050505050815260200160018201805461012090610399565b80601f016020809104026020016040519081016040528092919081815260200182805461014c90610399565b80156101975780601f1061016e57610100808354040283529160200191610197565b820191905f5260205f20905b81548152906001019060200180831161017a57829003601f168201915b50505050508152602001600282015481526020016003820154815250509050919050565b604051806080016040528060608152602001606081526020015f81526020015f81525090565b5f80fd5b5f819050919050565b6101f7816101e5565b8114610201575f80fd5b50565b5f81359050610212816101ee565b92915050565b5f6020828403121561022d5761022c6101e1565b5b5f61023a84828501610204565b91505092915050565b5f81519050919050565b5f82825260208201905092915050565b5f5b8381101561027a57808201518184015260208101905061025f565b5f8484015250505050565b5f601f19601f8301169050919050565b5f61029f82610243565b6102a9818561024d565b93506102b981856020860161025d565b6102c281610285565b840191505092915050565b5f819050919050565b6102df816102cd565b82525050565b5f608083015f8301518482035f8601526102ff8282610295565b915050602083015184820360208601526103198282610295565b915050604083015161032e60408601826102d6565b50606083015161034160608601826102d6565b508091505092915050565b5f6020820190508181035f83015261036481846102e5565b905092915050565b7f4e487b71000000000000000000000000000000000000000000000000000000005f52602260045260245ffd5b5f60028204905060018216806103b057607f821691505b6020821081036103c3576103c261036c565b5b5091905056fea2646970667358221220ffccba21e845d373a615e73920af38563a7b3f7be2cf008009af6fdd5b56ad6864736f6c63430008160033",
					"opcodes": "PUSH1 0x80 PUSH1 0x40 MSTORE CALLVALUE DUP1 ISZERO PUSH3 0x10 JUMPI PUSH0 DUP1 REVERT JUMPDEST POP PUSH0 PUSH20 0xF8E81D47203A594245E36C48E151709F0C19FBE8 SWAP1 POP DUP1 PUSH0 DUP1 PUSH2 0x100 EXP DUP2 SLOAD DUP2 PUSH20 0xFFFFFFFFFFFFFFFFFFFFFFFFFFFFFFFFFFFFFFFF MUL NOT AND SWAP1 DUP4 PUSH20 0xFFFFFFFFFFFFFFFFFFFFFFFFFFFFFFFFFFFFFFFF AND MUL OR SWAP1 SSTORE POP PUSH0 DUP1 PUSH0 SWAP1 SLOAD SWAP1 PUSH2 0x100 EXP SWAP1 DIV PUSH20 0xFFFFFFFFFFFFFFFFFFFFFFFFFFFFFFFFFFFFFFFF AND PUSH20 0xFFFFFFFFFFFFFFFFFFFFFFFFFFFFFFFFFFFFFFFF AND PUSH4 0xEBC38F9C PUSH1 0x40 MLOAD DUP2 PUSH4 0xFFFFFFFF AND PUSH1 0xE0 SHL DUP2 MSTORE PUSH1 0x4 ADD PUSH1 0x20 PUSH1 0x40 MLOAD DUP1 DUP4 SUB DUP2 DUP7 GAS STATICCALL ISZERO DUP1 ISZERO PUSH3 0xD3 JUMPI RETURNDATASIZE PUSH0 DUP1 RETURNDATACOPY RETURNDATASIZE PUSH0 REVERT JUMPDEST POP POP POP POP PUSH1 0x40 MLOAD RETURNDATASIZE PUSH1 0x1F NOT PUSH1 0x1F DUP3 ADD AND DUP3 ADD DUP1 PUSH1 0x40 MSTORE POP DUP2 ADD SWAP1 PUSH3 0xF9 SWAP2 SWAP1 PUSH3 0x463 JUMP JUMPDEST SWAP1 POP PUSH0 PUSH3 0x10C PUSH3 0x16E PUSH1 0x20 SHL PUSH1 0x20 SHR JUMP JUMPDEST SWAP1 POP DUP1 PUSH1 0x1 PUSH0 DUP5 DUP2 MSTORE PUSH1 0x20 ADD SWAP1 DUP2 MSTORE PUSH1 0x20 ADD PUSH0 KECCAK256 PUSH0 DUP3 ADD MLOAD DUP2 PUSH0 ADD SWAP1 DUP2 PUSH3 0x135 SWAP2 SWAP1 PUSH3 0x6F7 JUMP JUMPDEST POP PUSH1 0x20 DUP3 ADD MLOAD DUP2 PUSH1 0x1 ADD SWAP1 DUP2 PUSH3 0x14D SWAP2 SWAP1 PUSH3 0x6F7 JUMP JUMPDEST POP PUSH1 0x40 DUP3 ADD MLOAD DUP2 PUSH1 0x2 ADD SSTORE PUSH1 0x60 DUP3 ADD MLOAD DUP2 PUSH1 0x3 ADD SSTORE SWAP1 POP POP POP POP POP PUSH3 0x9D0 JUMP JUMPDEST PUSH3 0x178 PUSH3 0x3F4 JUMP JUMPDEST PUSH0 DUP1 PUSH0 SWAP1 SLOAD SWAP1 PUSH2 0x100 EXP SWAP1 DIV PUSH20 0xFFFFFFFFFFFFFFFFFFFFFFFFFFFFFFFFFFFFFFFF AND PUSH20 0xFFFFFFFFFFFFFFFFFFFFFFFFFFFFFFFFFFFFFFFF AND PUSH4 0x318A0E29 PUSH1 0x40 MLOAD DUP2 PUSH4 0xFFFFFFFF AND PUSH1 0xE0 SHL DUP2 MSTORE PUSH1 0x4 ADD PUSH0 PUSH1 0x40 MLOAD DUP1 DUP4 SUB DUP2 DUP7 GAS STATICCALL ISZERO DUP1 ISZERO PUSH3 0x1E2 JUMPI RETURNDATASIZE PUSH0 DUP1 RETURNDATACOPY RETURNDATASIZE PUSH0 REVERT JUMPDEST POP POP POP POP PUSH1 0x40 MLOAD RETURNDATASIZE PUSH0 DUP3 RETURNDATACOPY RETURNDATASIZE PUSH1 0x1F NOT PUSH1 0x1F DUP3 ADD AND DUP3 ADD DUP1 PUSH1 0x40 MSTORE POP DUP2 ADD SWAP1 PUSH3 0x20C SWAP2 SWAP1 PUSH3 0x922 JUMP JUMPDEST SWAP1 POP PUSH0 DUP1 PUSH0 SWAP1 SLOAD SWAP1 PUSH2 0x100 EXP SWAP1 DIV PUSH20 0xFFFFFFFFFFFFFFFFFFFFFFFFFFFFFFFFFFFFFFFF AND PUSH20 0xFFFFFFFFFFFFFFFFFFFFFFFFFFFFFFFFFFFFFFFF AND PUSH4 0x6A64AABB PUSH1 0x40 MLOAD DUP2 PUSH4 0xFFFFFFFF AND PUSH1 0xE0 SHL DUP2 MSTORE PUSH1 0x4 ADD PUSH0 PUSH1 0x40 MLOAD DUP1 DUP4 SUB DUP2 DUP7 GAS STATICCALL ISZERO DUP1 ISZERO PUSH3 0x278 JUMPI RETURNDATASIZE PUSH0 DUP1 RETURNDATACOPY RETURNDATASIZE PUSH0 REVERT JUMPDEST POP POP POP POP PUSH1 0x40 MLOAD RETURNDATASIZE PUSH0 DUP3 RETURNDATACOPY RETURNDATASIZE PUSH1 0x1F NOT PUSH1 0x1F DUP3 ADD AND DUP3 ADD DUP1 PUSH1 0x40 MSTORE POP DUP2 ADD SWAP1 PUSH3 0x2A2 SWAP2 SWAP1 PUSH3 0x922 JUMP JUMPDEST SWAP1 POP PUSH0 DUP1 PUSH0 SWAP1 SLOAD SWAP1 PUSH2 0x100 EXP SWAP1 DIV PUSH20 0xFFFFFFFFFFFFFFFFFFFFFFFFFFFFFFFFFFFFFFFF AND PUSH20 0xFFFFFFFFFFFFFFFFFFFFFFFFFFFFFFFFFFFFFFFF AND PUSH4 0x5B34410 PUSH1 0x40 MLOAD DUP2 PUSH4 0xFFFFFFFF AND PUSH1 0xE0 SHL DUP2 MSTORE PUSH1 0x4 ADD PUSH1 0x20 PUSH1 0x40 MLOAD DUP1 DUP4 SUB DUP2 DUP7 GAS STATICCALL ISZERO DUP1 ISZERO PUSH3 0x30F JUMPI RETURNDATASIZE PUSH0 DUP1 RETURNDATACOPY RETURNDATASIZE PUSH0 REVERT JUMPDEST POP POP POP POP PUSH1 0x40 MLOAD RETURNDATASIZE PUSH1 0x1F NOT PUSH1 0x1F DUP3 ADD AND DUP3 ADD DUP1 PUSH1 0x40 MSTORE POP DUP2 ADD SWAP1 PUSH3 0x335 SWAP2 SWAP1 PUSH3 0x9A0 JUMP JUMPDEST SWAP1 POP PUSH0 DUP1 PUSH0 SWAP1 SLOAD SWAP1 PUSH2 0x100 EXP SWAP1 DIV PUSH20 0xFFFFFFFFFFFFFFFFFFFFFFFFFFFFFFFFFFFFFFFF AND PUSH20 0xFFFFFFFFFFFFFFFFFFFFFFFFFFFFFFFFFFFFFFFF AND PUSH4 0x4C9555D8 PUSH1 0x40 MLOAD DUP2 PUSH4 0xFFFFFFFF AND PUSH1 0xE0 SHL DUP2 MSTORE PUSH1 0x4 ADD PUSH1 0x20 PUSH1 0x40 MLOAD DUP1 DUP4 SUB DUP2 DUP7 GAS STATICCALL ISZERO DUP1 ISZERO PUSH3 0x3A2 JUMPI RETURNDATASIZE PUSH0 DUP1 RETURNDATACOPY RETURNDATASIZE PUSH0 REVERT JUMPDEST POP POP POP POP PUSH1 0x40 MLOAD RETURNDATASIZE PUSH1 0x1F NOT PUSH1 0x1F DUP3 ADD AND DUP3 ADD DUP1 PUSH1 0x40 MSTORE POP DUP2 ADD SWAP1 PUSH3 0x3C8 SWAP2 SWAP1 PUSH3 0x9A0 JUMP JUMPDEST SWAP1 POP PUSH1 0x40 MLOAD DUP1 PUSH1 0x80 ADD PUSH1 0x40 MSTORE DUP1 DUP6 DUP2 MSTORE PUSH1 0x20 ADD DUP5 DUP2 MSTORE PUSH1 0x20 ADD DUP4 DUP2 MSTORE PUSH1 0x20 ADD DUP3 DUP2 MSTORE POP SWAP5 POP POP POP POP POP SWAP1 JUMP JUMPDEST PUSH1 0x40 MLOAD DUP1 PUSH1 0x80 ADD PUSH1 0x40 MSTORE DUP1 PUSH1 0x60 DUP2 MSTORE PUSH1 0x20 ADD PUSH1 0x60 DUP2 MSTORE PUSH1 0x20 ADD PUSH0 DUP2 MSTORE PUSH1 0x20 ADD PUSH0 DUP2 MSTORE POP SWAP1 JUMP JUMPDEST PUSH0 PUSH1 0x40 MLOAD SWAP1 POP SWAP1 JUMP JUMPDEST PUSH0 DUP1 REVERT JUMPDEST PUSH0 DUP1 REVERT JUMPDEST PUSH0 DUP2 SWAP1 POP SWAP2 SWAP1 POP JUMP JUMPDEST PUSH3 0x43F DUP2 PUSH3 0x42B JUMP JUMPDEST DUP2 EQ PUSH3 0x44A JUMPI PUSH0 DUP1 REVERT JUMPDEST POP JUMP JUMPDEST PUSH0 DUP2 MLOAD SWAP1 POP PUSH3 0x45D DUP2 PUSH3 0x434 JUMP JUMPDEST SWAP3 SWAP2 POP POP JUMP JUMPDEST PUSH0 PUSH1 0x20 DUP3 DUP5 SUB SLT ISZERO PUSH3 0x47B JUMPI PUSH3 0x47A PUSH3 0x423 JUMP JUMPDEST JUMPDEST PUSH0 PUSH3 0x48A DUP5 DUP3 DUP6 ADD PUSH3 0x44D JUMP JUMPDEST SWAP2 POP POP SWAP3 SWAP2 POP POP JUMP JUMPDEST PUSH0 DUP2 MLOAD SWAP1 POP SWAP2 SWAP1 POP JUMP JUMPDEST PUSH32 0x4E487B7100000000000000000000000000000000000000000000000000000000 PUSH0 MSTORE PUSH1 0x41 PUSH1 0x4 MSTORE PUSH1 0x24 PUSH0 REVERT JUMPDEST PUSH32 0x4E487B7100000000000000000000000000000000000000000000000000000000 PUSH0 MSTORE PUSH1 0x22 PUSH1 0x4 MSTORE PUSH1 0x24 PUSH0 REVERT JUMPDEST PUSH0 PUSH1 0x2 DUP3 DIV SWAP1 POP PUSH1 0x1 DUP3 AND DUP1 PUSH3 0x50F JUMPI PUSH1 0x7F DUP3 AND SWAP2 POP JUMPDEST PUSH1 0x20 DUP3 LT DUP2 SUB PUSH3 0x525 JUMPI PUSH3 0x524 PUSH3 0x4CA JUMP JUMPDEST JUMPDEST POP SWAP2 SWAP1 POP JUMP JUMPDEST PUSH0 DUP2 SWAP1 POP DUP2 PUSH0 MSTORE PUSH1 0x20 PUSH0 KECCAK256 SWAP1 POP SWAP2 SWAP1 POP JUMP JUMPDEST PUSH0 PUSH1 0x20 PUSH1 0x1F DUP4 ADD DIV SWAP1 POP SWAP2 SWAP1 POP JUMP JUMPDEST PUSH0 DUP3 DUP3 SHL SWAP1 POP SWAP3 SWAP2 POP POP JUMP JUMPDEST PUSH0 PUSH1 0x8 DUP4 MUL PUSH3 0x589 PUSH32 0xFFFFFFFFFFFFFFFFFFFFFFFFFFFFFFFFFFFFFFFFFFFFFFFFFFFFFFFFFFFFFFFF DUP3 PUSH3 0x54C JUMP JUMPDEST PUSH3 0x595 DUP7 DUP4 PUSH3 0x54C JUMP JUMPDEST SWAP6 POP DUP1 NOT DUP5 AND SWAP4 POP DUP1 DUP7 AND DUP5 OR SWAP3 POP POP POP SWAP4 SWAP3 POP POP POP JUMP JUMPDEST PUSH0 DUP2 SWAP1 POP SWAP2 SWAP1 POP JUMP JUMPDEST PUSH0 DUP2 SWAP1 POP SWAP2 SWAP1 POP JUMP JUMPDEST PUSH0 PUSH3 0x5DF PUSH3 0x5D9 PUSH3 0x5D3 DUP5 PUSH3 0x5AD JUMP JUMPDEST PUSH3 0x5B6 JUMP JUMPDEST PUSH3 0x5AD JUMP JUMPDEST SWAP1 POP SWAP2 SWAP1 POP JUMP JUMPDEST PUSH0 DUP2 SWAP1 POP SWAP2 SWAP1 POP JUMP JUMPDEST PUSH3 0x5FA DUP4 PUSH3 0x5BF JUMP JUMPDEST PUSH3 0x612 PUSH3 0x609 DUP3 PUSH3 0x5E6 JUMP JUMPDEST DUP5 DUP5 SLOAD PUSH3 0x558 JUMP JUMPDEST DUP3 SSTORE POP POP POP POP JUMP JUMPDEST PUSH0 SWAP1 JUMP JUMPDEST PUSH3 0x628 PUSH3 0x61A JUMP JUMPDEST PUSH3 0x635 DUP2 DUP5 DUP5 PUSH3 0x5EF JUMP JUMPDEST POP POP POP JUMP JUMPDEST JUMPDEST DUP2 DUP2 LT ISZERO PUSH3 0x65C JUMPI PUSH3 0x650 PUSH0 DUP3 PUSH3 0x61E JUMP JUMPDEST PUSH1 0x1 DUP2 ADD SWAP1 POP PUSH3 0x63B JUMP JUMPDEST POP POP JUMP JUMPDEST PUSH1 0x1F DUP3 GT ISZERO PUSH3 0x6AB JUMPI PUSH3 0x675 DUP2 PUSH3 0x52B JUMP JUMPDEST PUSH3 0x680 DUP5 PUSH3 0x53D JUMP JUMPDEST DUP2 ADD PUSH1 0x20 DUP6 LT ISZERO PUSH3 0x690 JUMPI DUP2 SWAP1 POP JUMPDEST PUSH3 0x6A8 PUSH3 0x69F DUP6 PUSH3 0x53D JUMP JUMPDEST DUP4 ADD DUP3 PUSH3 0x63A JUMP JUMPDEST POP POP JUMPDEST POP POP POP JUMP JUMPDEST PUSH0 DUP3 DUP3 SHR SWAP1 POP SWAP3 SWAP2 POP POP JUMP JUMPDEST PUSH0 PUSH3 0x6CD PUSH0 NOT DUP5 PUSH1 0x8 MUL PUSH3 0x6B0 JUMP JUMPDEST NOT DUP1 DUP4 AND SWAP2 POP POP SWAP3 SWAP2 POP POP JUMP JUMPDEST PUSH0 PUSH3 0x6E7 DUP4 DUP4 PUSH3 0x6BC JUMP JUMPDEST SWAP2 POP DUP3 PUSH1 0x2 MUL DUP3 OR SWAP1 POP SWAP3 SWAP2 POP POP JUMP JUMPDEST PUSH3 0x702 DUP3 PUSH3 0x493 JUMP JUMPDEST PUSH8 0xFFFFFFFFFFFFFFFF DUP2 GT ISZERO PUSH3 0x71E JUMPI PUSH3 0x71D PUSH3 0x49D JUMP JUMPDEST JUMPDEST PUSH3 0x72A DUP3 SLOAD PUSH3 0x4F7 JUMP JUMPDEST PUSH3 0x737 DUP3 DUP3 DUP6 PUSH3 0x660 JUMP JUMPDEST PUSH0 PUSH1 0x20 SWAP1 POP PUSH1 0x1F DUP4 GT PUSH1 0x1 DUP2 EQ PUSH3 0x76D JUMPI PUSH0 DUP5 ISZERO PUSH3 0x758 JUMPI DUP3 DUP8 ADD MLOAD SWAP1 POP JUMPDEST PUSH3 0x764 DUP6 DUP3 PUSH3 0x6DA JUMP JUMPDEST DUP7 SSTORE POP PUSH3 0x7D3 JUMP JUMPDEST PUSH1 0x1F NOT DUP5 AND PUSH3 0x77D DUP7 PUSH3 0x52B JUMP JUMPDEST PUSH0 JUMPDEST DUP3 DUP2 LT ISZERO PUSH3 0x7A6 JUMPI DUP5 DUP10 ADD MLOAD DUP3 SSTORE PUSH1 0x1 DUP3 ADD SWAP2 POP PUSH1 0x20 DUP6 ADD SWAP5 POP PUSH1 0x20 DUP2 ADD SWAP1 POP PUSH3 0x77F JUMP JUMPDEST DUP7 DUP4 LT ISZERO PUSH3 0x7C6 JUMPI DUP5 DUP10 ADD MLOAD PUSH3 0x7C2 PUSH1 0x1F DUP10 AND DUP3 PUSH3 0x6BC JUMP JUMPDEST DUP4 SSTORE POP JUMPDEST PUSH1 0x1 PUSH1 0x2 DUP9 MUL ADD DUP9 SSTORE POP POP POP JUMPDEST POP POP POP POP POP POP JUMP JUMPDEST PUSH0 DUP1 REVERT JUMPDEST PUSH0 DUP1 REVERT JUMPDEST PUSH0 PUSH1 0x1F NOT PUSH1 0x1F DUP4 ADD AND SWAP1 POP SWAP2 SWAP1 POP JUMP JUMPDEST PUSH3 0x7FE DUP3 PUSH3 0x7E3 JUMP JUMPDEST DUP2 ADD DUP2 DUP2 LT PUSH8 0xFFFFFFFFFFFFFFFF DUP3 GT OR ISZERO PUSH3 0x820 JUMPI PUSH3 0x81F PUSH3 0x49D JUMP JUMPDEST JUMPDEST DUP1 PUSH1 0x40 MSTORE POP POP POP JUMP JUMPDEST PUSH0 PUSH3 0x834 PUSH3 0x41A JUMP JUMPDEST SWAP1 POP PUSH3 0x842 DUP3 DUP3 PUSH3 0x7F3 JUMP JUMPDEST SWAP2 SWAP1 POP JUMP JUMPDEST PUSH0 PUSH8 0xFFFFFFFFFFFFFFFF DUP3 GT ISZERO PUSH3 0x864 JUMPI PUSH3 0x863 PUSH3 0x49D JUMP JUMPDEST JUMPDEST PUSH3 0x86F DUP3 PUSH3 0x7E3 JUMP JUMPDEST SWAP1 POP PUSH1 0x20 DUP2 ADD SWAP1 POP SWAP2 SWAP1 POP JUMP JUMPDEST PUSH0 JUMPDEST DUP4 DUP2 LT ISZERO PUSH3 0x89B JUMPI DUP1 DUP3 ADD MLOAD DUP2 DUP5 ADD MSTORE PUSH1 0x20 DUP2 ADD SWAP1 POP PUSH3 0x87E JUMP JUMPDEST PUSH0 DUP5 DUP5 ADD MSTORE POP POP POP POP JUMP JUMPDEST PUSH0 PUSH3 0x8BC PUSH3 0x8B6 DUP5 PUSH3 0x847 JUMP JUMPDEST PUSH3 0x829 JUMP JUMPDEST SWAP1 POP DUP3 DUP2 MSTORE PUSH1 0x20 DUP2 ADD DUP5 DUP5 DUP5 ADD GT ISZERO PUSH3 0x8DB JUMPI PUSH3 0x8DA PUSH3 0x7DF JUMP JUMPDEST JUMPDEST PUSH3 0x8E8 DUP5 DUP3 DUP6 PUSH3 0x87C JUMP JUMPDEST POP SWAP4 SWAP3 POP POP POP JUMP JUMPDEST PUSH0 DUP3 PUSH1 0x1F DUP4 ADD SLT PUSH3 0x907 JUMPI PUSH3 0x906 PUSH3 0x7DB JUMP JUMPDEST JUMPDEST DUP2 MLOAD PUSH3 0x919 DUP5 DUP3 PUSH1 0x20 DUP7 ADD PUSH3 0x8A6 JUMP JUMPDEST SWAP2 POP POP SWAP3 SWAP2 POP POP JUMP JUMPDEST PUSH0 PUSH1 0x20 DUP3 DUP5 SUB SLT ISZERO PUSH3 0x93A JUMPI PUSH3 0x939 PUSH3 0x423 JUMP JUMPDEST JUMPDEST PUSH0 DUP3 ADD MLOAD PUSH8 0xFFFFFFFFFFFFFFFF DUP2 GT ISZERO PUSH3 0x95A JUMPI PUSH3 0x959 PUSH3 0x427 JUMP JUMPDEST JUMPDEST PUSH3 0x968 DUP5 DUP3 DUP6 ADD PUSH3 0x8F0 JUMP JUMPDEST SWAP2 POP POP SWAP3 SWAP2 POP POP JUMP JUMPDEST PUSH3 0x97C DUP2 PUSH3 0x5AD JUMP JUMPDEST DUP2 EQ PUSH3 0x987 JUMPI PUSH0 DUP1 REVERT JUMPDEST POP JUMP JUMPDEST PUSH0 DUP2 MLOAD SWAP1 POP PUSH3 0x99A DUP2 PUSH3 0x971 JUMP JUMPDEST SWAP3 SWAP2 POP POP JUMP JUMPDEST PUSH0 PUSH1 0x20 DUP3 DUP5 SUB SLT ISZERO PUSH3 0x9B8 JUMPI PUSH3 0x9B7 PUSH3 0x423 JUMP JUMPDEST JUMPDEST PUSH0 PUSH3 0x9C7 DUP5 DUP3 DUP6 ADD PUSH3 0x98A JUMP JUMPDEST SWAP2 POP POP SWAP3 SWAP2 POP POP JUMP JUMPDEST PUSH2 0x3FF DUP1 PUSH3 0x9DE PUSH0 CODECOPY PUSH0 RETURN INVALID PUSH1 0x80 PUSH1 0x40 MSTORE CALLVALUE DUP1 ISZERO PUSH2 0xF JUMPI PUSH0 DUP1 REVERT JUMPDEST POP PUSH1 0x4 CALLDATASIZE LT PUSH2 0x29 JUMPI PUSH0 CALLDATALOAD PUSH1 0xE0 SHR DUP1 PUSH4 0xB04E906F EQ PUSH2 0x2D JUMPI JUMPDEST PUSH0 DUP1 REVERT JUMPDEST PUSH2 0x47 PUSH1 0x4 DUP1 CALLDATASIZE SUB DUP2 ADD SWAP1 PUSH2 0x42 SWAP2 SWAP1 PUSH2 0x218 JUMP JUMPDEST PUSH2 0x5D JUMP JUMPDEST PUSH1 0x40 MLOAD PUSH2 0x54 SWAP2 SWAP1 PUSH2 0x34C JUMP JUMPDEST PUSH1 0x40 MLOAD DUP1 SWAP2 SUB SWAP1 RETURN JUMPDEST PUSH2 0x65 PUSH2 0x1BB JUMP JUMPDEST PUSH1 0x1 PUSH0 DUP4 DUP2 MSTORE PUSH1 0x20 ADD SWAP1 DUP2 MSTORE PUSH1 0x20 ADD PUSH0 KECCAK256 PUSH1 0x40 MLOAD DUP1 PUSH1 0x80 ADD PUSH1 0x40 MSTORE SWAP1 DUP2 PUSH0 DUP3 ADD DUP1 SLOAD PUSH2 0x90 SWAP1 PUSH2 0x399 JUMP JUMPDEST DUP1 PUSH1 0x1F ADD PUSH1 0x20 DUP1 SWAP2 DIV MUL PUSH1 0x20 ADD PUSH1 0x40 MLOAD SWAP1 DUP2 ADD PUSH1 0x40 MSTORE DUP1 SWAP3 SWAP2 SWAP1 DUP2 DUP2 MSTORE PUSH1 0x20 ADD DUP3 DUP1 SLOAD PUSH2 0xBC SWAP1 PUSH2 0x399 JUMP JUMPDEST DUP1 ISZERO PUSH2 0x107 JUMPI DUP1 PUSH1 0x1F LT PUSH2 0xDE JUMPI PUSH2 0x100 DUP1 DUP4 SLOAD DIV MUL DUP4 MSTORE SWAP2 PUSH1 0x20 ADD SWAP2 PUSH2 0x107 JUMP JUMPDEST DUP3 ADD SWAP2 SWAP1 PUSH0 MSTORE PUSH1 0x20 PUSH0 KECCAK256 SWAP1 JUMPDEST DUP2 SLOAD DUP2 MSTORE SWAP1 PUSH1 0x1 ADD SWAP1 PUSH1 0x20 ADD DUP1 DUP4 GT PUSH2 0xEA JUMPI DUP3 SWAP1 SUB PUSH1 0x1F AND DUP3 ADD SWAP2 JUMPDEST POP POP POP POP POP DUP2 MSTORE PUSH1 0x20 ADD PUSH1 0x1 DUP3 ADD DUP1 SLOAD PUSH2 0x120 SWAP1 PUSH2 0x399 JUMP JUMPDEST DUP1 PUSH1 0x1F ADD PUSH1 0x20 DUP1 SWAP2 DIV MUL PUSH1 0x20 ADD PUSH1 0x40 MLOAD SWAP1 DUP2 ADD PUSH1 0x40 MSTORE DUP1 SWAP3 SWAP2 SWAP1 DUP2 DUP2 MSTORE PUSH1 0x20 ADD DUP3 DUP1 SLOAD PUSH2 0x14C SWAP1 PUSH2 0x399 JUMP JUMPDEST DUP1 ISZERO PUSH2 0x197 JUMPI DUP1 PUSH1 0x1F LT PUSH2 0x16E JUMPI PUSH2 0x100 DUP1 DUP4 SLOAD DIV MUL DUP4 MSTORE SWAP2 PUSH1 0x20 ADD SWAP2 PUSH2 0x197 JUMP JUMPDEST DUP3 ADD SWAP2 SWAP1 PUSH0 MSTORE PUSH1 0x20 PUSH0 KECCAK256 SWAP1 JUMPDEST DUP2 SLOAD DUP2 MSTORE SWAP1 PUSH1 0x1 ADD SWAP1 PUSH1 0x20 ADD DUP1 DUP4 GT PUSH2 0x17A JUMPI DUP3 SWAP1 SUB PUSH1 0x1F AND DUP3 ADD SWAP2 JUMPDEST POP POP POP POP POP DUP2 MSTORE PUSH1 0x20 ADD PUSH1 0x2 DUP3 ADD SLOAD DUP2 MSTORE PUSH1 0x20 ADD PUSH1 0x3 DUP3 ADD SLOAD DUP2 MSTORE POP POP SWAP1 POP SWAP2 SWAP1 POP JUMP JUMPDEST PUSH1 0x40 MLOAD DUP1 PUSH1 0x80 ADD PUSH1 0x40 MSTORE DUP1 PUSH1 0x60 DUP2 MSTORE PUSH1 0x20 ADD PUSH1 0x60 DUP2 MSTORE PUSH1 0x20 ADD PUSH0 DUP2 MSTORE PUSH1 0x20 ADD PUSH0 DUP2 MSTORE POP SWAP1 JUMP JUMPDEST PUSH0 DUP1 REVERT JUMPDEST PUSH0 DUP2 SWAP1 POP SWAP2 SWAP1 POP JUMP JUMPDEST PUSH2 0x1F7 DUP2 PUSH2 0x1E5 JUMP JUMPDEST DUP2 EQ PUSH2 0x201 JUMPI PUSH0 DUP1 REVERT JUMPDEST POP JUMP JUMPDEST PUSH0 DUP2 CALLDATALOAD SWAP1 POP PUSH2 0x212 DUP2 PUSH2 0x1EE JUMP JUMPDEST SWAP3 SWAP2 POP POP JUMP JUMPDEST PUSH0 PUSH1 0x20 DUP3 DUP5 SUB SLT ISZERO PUSH2 0x22D JUMPI PUSH2 0x22C PUSH2 0x1E1 JUMP JUMPDEST JUMPDEST PUSH0 PUSH2 0x23A DUP5 DUP3 DUP6 ADD PUSH2 0x204 JUMP JUMPDEST SWAP2 POP POP SWAP3 SWAP2 POP POP JUMP JUMPDEST PUSH0 DUP2 MLOAD SWAP1 POP SWAP2 SWAP1 POP JUMP JUMPDEST PUSH0 DUP3 DUP3 MSTORE PUSH1 0x20 DUP3 ADD SWAP1 POP SWAP3 SWAP2 POP POP JUMP JUMPDEST PUSH0 JUMPDEST DUP4 DUP2 LT ISZERO PUSH2 0x27A JUMPI DUP1 DUP3 ADD MLOAD DUP2 DUP5 ADD MSTORE PUSH1 0x20 DUP2 ADD SWAP1 POP PUSH2 0x25F JUMP JUMPDEST PUSH0 DUP5 DUP5 ADD MSTORE POP POP POP POP JUMP JUMPDEST PUSH0 PUSH1 0x1F NOT PUSH1 0x1F DUP4 ADD AND SWAP1 POP SWAP2 SWAP1 POP JUMP JUMPDEST PUSH0 PUSH2 0x29F DUP3 PUSH2 0x243 JUMP JUMPDEST PUSH2 0x2A9 DUP2 DUP6 PUSH2 0x24D JUMP JUMPDEST SWAP4 POP PUSH2 0x2B9 DUP2 DUP6 PUSH1 0x20 DUP7 ADD PUSH2 0x25D JUMP JUMPDEST PUSH2 0x2C2 DUP2 PUSH2 0x285 JUMP JUMPDEST DUP5 ADD SWAP2 POP POP SWAP3 SWAP2 POP POP JUMP JUMPDEST PUSH0 DUP2 SWAP1 POP SWAP2 SWAP1 POP JUMP JUMPDEST PUSH2 0x2DF DUP2 PUSH2 0x2CD JUMP JUMPDEST DUP3 MSTORE POP POP JUMP JUMPDEST PUSH0 PUSH1 0x80 DUP4 ADD PUSH0 DUP4 ADD MLOAD DUP5 DUP3 SUB PUSH0 DUP7 ADD MSTORE PUSH2 0x2FF DUP3 DUP3 PUSH2 0x295 JUMP JUMPDEST SWAP2 POP POP PUSH1 0x20 DUP4 ADD MLOAD DUP5 DUP3 SUB PUSH1 0x20 DUP7 ADD MSTORE PUSH2 0x319 DUP3 DUP3 PUSH2 0x295 JUMP JUMPDEST SWAP2 POP POP PUSH1 0x40 DUP4 ADD MLOAD PUSH2 0x32E PUSH1 0x40 DUP7 ADD DUP3 PUSH2 0x2D6 JUMP JUMPDEST POP PUSH1 0x60 DUP4 ADD MLOAD PUSH2 0x341 PUSH1 0x60 DUP7 ADD DUP3 PUSH2 0x2D6 JUMP JUMPDEST POP DUP1 SWAP2 POP POP SWAP3 SWAP2 POP POP JUMP JUMPDEST PUSH0 PUSH1 0x20 DUP3 ADD SWAP1 POP DUP2 DUP2 SUB PUSH0 DUP4 ADD MSTORE PUSH2 0x364 DUP2 DUP5 PUSH2 0x2E5 JUMP JUMPDEST SWAP1 POP SWAP3 SWAP2 POP POP JUMP JUMPDEST PUSH32 0x4E487B7100000000000000000000000000000000000000000000000000000000 PUSH0 MSTORE PUSH1 0x22 PUSH1 0x4 MSTORE PUSH1 0x24 PUSH0 REVERT JUMPDEST PUSH0 PUSH1 0x2 DUP3 DIV SWAP1 POP PUSH1 0x1 DUP3 AND DUP1 PUSH2 0x3B0 JUMPI PUSH1 0x7F DUP3 AND SWAP2 POP JUMPDEST PUSH1 0x20 DUP3 LT DUP2 SUB PUSH2 0x3C3 JUMPI PUSH2 0x3C2 PUSH2 0x36C JUMP JUMPDEST JUMPDEST POP SWAP2 SWAP1 POP JUMP INVALID LOG2 PUSH5 0x6970667358 0x22 SLT KECCAK256 SELFDESTRUCT 0xCC 0xBA 0x21 0xE8 GASLIMIT 0xD3 PUSH20 0xA615E73920AF38563A7B3F7BE2CF008009AF6FDD JUMPDEST JUMP 0xAD PUSH9 0x64736F6C6343000816 STOP CALLER "
				},
				"gasEstimates": {
					"creation": {
						"codeDepositCost": "204600",
						"executionCost": "infinite",
						"totalCost": "infinite"
					},
					"external": {
						"getCopyrightFromCatalogue(bytes32)": "infinite"
					},
					"internal": {
						"getDetails()": "infinite"
					}
				},
				"methodIdentifiers": {
					"getCopyrightFromCatalogue(bytes32)": "b04e906f"
				}
			},
			"storageLayout": {
				"storage": [
					{
						"astId": 6,
						"contract": "contracts/music_marketplace.sol:MusicCatalogue",
						"label": "registerMusicCopyright",
						"offset": 0,
						"slot": "0",
						"type": "t_contract(RegisterMusicCopyright)175"
					},
					{
						"astId": 11,
						"contract": "contracts/music_marketplace.sol:MusicCatalogue",
						"label": "hashTableForCopyrights",
						"offset": 0,
						"slot": "1",
						"type": "t_mapping(t_bytes32,t_struct(CopyrightDetails)20_storage)"
					}
				],
				"types": {
					"t_bytes32": {
						"encoding": "inplace",
						"label": "bytes32",
						"numberOfBytes": "32"
					},
					"t_contract(RegisterMusicCopyright)175": {
						"encoding": "inplace",
						"label": "contract RegisterMusicCopyright",
						"numberOfBytes": "20"
					},
					"t_mapping(t_bytes32,t_struct(CopyrightDetails)20_storage)": {
						"encoding": "mapping",
						"key": "t_bytes32",
						"label": "mapping(bytes32 => struct MusicCatalogue.CopyrightDetails)",
						"numberOfBytes": "32",
						"value": "t_struct(CopyrightDetails)20_storage"
					},
					"t_string_storage": {
						"encoding": "bytes",
						"label": "string",
						"numberOfBytes": "32"
					},
					"t_struct(CopyrightDetails)20_storage": {
						"encoding": "inplace",
						"label": "struct MusicCatalogue.CopyrightDetails",
						"members": [
							{
								"astId": 13,
								"contract": "contracts/music_marketplace.sol:MusicCatalogue",
								"label": "musicTitle",
								"offset": 0,
								"slot": "0",
								"type": "t_string_storage"
							},
							{
								"astId": 15,
								"contract": "contracts/music_marketplace.sol:MusicCatalogue",
								"label": "authorName",
								"offset": 0,
								"slot": "1",
								"type": "t_string_storage"
							},
							{
								"astId": 17,
								"contract": "contracts/music_marketplace.sol:MusicCatalogue",
								"label": "creationDate",
								"offset": 0,
								"slot": "2",
								"type": "t_uint256"
							},
							{
								"astId": 19,
								"contract": "contracts/music_marketplace.sol:MusicCatalogue",
								"label": "copyrightPrice",
								"offset": 0,
								"slot": "3",
								"type": "t_uint256"
							}
						],
						"numberOfBytes": "128"
					},
					"t_uint256": {
						"encoding": "inplace",
						"label": "uint256",
						"numberOfBytes": "32"
					}
				}
			},
			"userdoc": {
				"kind": "user",
				"methods": {},
				"version": 1
			}
		}
	}
}